:020000040800F2
:10000000500A0020D1000008113200087D2B0008A2
:1000100000000000000000000000000000000000E0
:1000200000000000000000000000000097330008FE
:100030000000000000000000593200084D360008A2
:10004000E3000008E3000008E3000008E300000804
:10005000E3000008E3000008E300000821100008A6
:10006000E3000008E3000008E3000008E3000008E4
:10007000E3000008E3000008E3000008E3000008D4
:1000800051370008E300000800000000E30000080A
:10009000E3000008E3000008E3000008E3000008B4
:1000A000E3000008E3000008E3000008653E0008E4
:1000B000E300000800000000E30000080348854654
:1000C00000F018FB0048004751580008500A002073
:1000D0000448804704480047FEE7FEE7FEE7FEE7E6
:1000E000FEE7FEE7CD360008BD00000830B50B4640
:1000F000014600202022012409E00D46D5409D4202
:1001000005D31D469540491B254695404019154687
:10011000521E002DF1DC30BD10B5202A04DB08464C
:10012000203AD040002110BD0B46D340D0402024BF
:10013000A21A91400843194610BD03460B439B0782
:1001400003D009E008C9121F08C0042AFAD203E04C
:100150000B780370401C491C521EF9D27047D2B272
:1001600001E00270401C491EFBD270470022F6E7F6
:1001700010B513460A4604461946FFF7F0FF20461D
:1001800010BD421C0178401C0029FBD1801A704729
:1001900030B504460020034600E05B1C934203D2C6
:1001A000E05CCD5C401BF8D030BD0321001D401E3B
:1001B000037812021A43491EF9D5104670470246C9
:1001C00070B54A40D30FDB0740002DD04A002AD03B
:1001D000010E140E000212020919400A520A841874
:1001E000E50104465443000A120A2E045043A419A0
:1001F0004219200CC543AA18120C0125AD03521C4C
:10020000521912047F39240400D0521C104301D427
:100210004000491EC2B20C06C0092018401C40080C
:10022000802A02D003E0002070BD40084000002971
:1002300000DA0020184370BD420005D04200120EC3
:1002400052428A4201DB00207047C90508187047F6
:1002500010B500229623114600F04DF810BDC20FD4
:10026000D207400040080BD0C10D0723DB01C9189D
:1002700040020905400A1143C20840071143704774
:10028000002001467047F0B51FB40646002082B03A
:1002900005464024019100901BE0019922460F463B
:1002A0003046FFF739FF049A059B801A994110D315
:1002B00010461946224600F02FFA361A8F41019750
:1002C000224601200021009F00F026FA38184D41F7
:1002D00000902046641E0028DFDC019B0098294620
:1002E000324607B0F0BD002904DA401C490001D1B4
:1002F00040084000704770B40024050C05D110245C
:10030000000402D1002921D01124050E01D10002E0
:100310000834050F01D10001241D850F01D1800093
:10032000A41C002801DB4000641C002908D0202503
:100330002E1B0D46F540A14000D001212943084362
:1003400001061B1B000ADB1D02D5002070BC704794
:10035000DB05181880180029F8DA401C4900F5D18F
:1003600070BC400840007047F0B50746084658404A
:1003700087B0C00F049048000E4659004008490855
:10038000BC1A884105D2384631461E4617460B46F0
:1003900002465800400810434CD0300D03904005F1
:1003A0005900400D490D0590401A0290402872DA1C
:1003B00018030121000B09050843019004980092DD
:1003C000002805D0019952420020884100920190F6
:1003D000029840210A1A0199009800F09DF90546FB
:1003E0000C466B4607CB00F0A7F9C0197141039A80
:1003F0000E0D0023D71756401A467A40164344D0B4
:10040000049A002A2DD0029A012A039A15DC1205BB
:10041000C01A914101263605001C7141D20F059E7C
:10042000D2070093019202962A46234600F0A4F9CF
:1004300007B0F0BD38463146FAE71605224A0F46A6
:10044000B218C01AB74101210905001C4F4100181C
:100450007F41114618187941E20F10436D1964412C
:1004600013E0E2076D0815436408C2071443039ABA
:1004700001261205C01A91413605001C7141CE07B4
:10048000400830434908C01851412A46234600F02D
:1004900066F9CDE7FFE7049801224000C117121A60
:1004A00000238B4104983146C417381AA141EEE766
:1004B00030B40124E407634030BC55E730B4012474
:1004C000E407614030BC4FE70000E0FFF0B51FB427
:1004D00088B00B990998002448400999C00F490039
:1004E00049080991C0070B990090490049080B91F0
:1004F00009990898A64608431CD00B990A98084306
:1005000018D0099801244000420D4800410D099877
:1005100024050003000B204309900B980003000BF7
:1005200020430B9050181C4940180022019014469B
:10053000104605E0002001460DB0F0BD032801DAA9
:10054000034600E003239C46C11A0AAE0AE05F009E
:1005500008ADED5B4F00F75B7D430027AA187C4197
:10056000491C5B1E6145F2DD410004AB5A52210477
:10057000120C0A43240C401C0828DFDB019802906F
:100580000099704601910090059B049A079906987E
:1005900000F0F2F8D0E700000DFCFFFFF0B50C46CC
:1005A0005C4085B0E40FE40703944C000026640827
:1005B00059009446490802460296224321D06246D9
:1005C0000A431ED06200570D4A000E032303550D47
:1005D000012402462C492405781B1B0B360B4018BE
:1005E00023432643614600901C46501AB44103D36E
:1005F0000098401C009002E0921800985B4100288F
:1006000003DA0020014605B0F0BD002001210905F4
:100610000746864611E064461D46141BB54106D3C5
:100620006546521BB341744607430C43A646CD07AB
:1006300040084908284392185B4105460D43EAD11A
:100640001046184313D06046194650407140084385
:1006500006D06046101AB34106D20122002306E0FC
:1006600000220123DB0702E00122D243531000984D
:1006700074460105381C6141029C039D00196941C3
:1006800000F06DF8BFE70000FD0300004A00090319
:100690000123090B1B0519430A4B10B5520D9A4251
:1006A00002DA0020014610BD064B34339A4203DCC7
:1006B0009A1AFFF731FD10BD034BD21800F02CF849
:1006C00010BD0000FF030000CDFBFFFF10B50029A7
:1006D00004DB0124E40740428C412146002B04DB6B
:1006E0001C460123DB075242A341994200D19042AC
:1006F00010BD0000064C0125064E05E0E36807CC5E
:100700002B430C3C98471034B442F7D3FFF7DAFC84
:10071000D0590008F059000810B5202A04DB014622
:10072000203A9140002010BD914020239C1A03469E
:10073000E3401943904010BD10B5202A06DBCB17CB
:100740000846203A1041C1170B4306E00B461341FF
:10075000D0402024A21A91400843194610BD10B57C
:10076000002B08DA0024401C614192185B411A43B7
:1007700001D14008400010BDF0B51FB482B005465D
:100780000C0003D0084603F08BFB02E003F088FB6B
:1007900020300246009021462846FFF7BDFF049B0B
:1007A000059A04460F4618431143084314D01846CF
:1007B00010431BD0009840210A1A18460599FFF7EC
:1007C000ABFC05460E46009A05990498FFF7A4FF76
:1007D000084305D0012004E02046394607B0F0BDAB
:1007E0000020C11705430E432C43374300990E9850
:1007F0006305401A7905E40A00220C43FD0A0A3019
:1008000002D500200146E9E70105101969410C9C59
:100810000D9D00196941FFF7A2FFDFE770B58C1845
:100820000578401C6B075B0F01D10378401C2A112F
:1008300006D10278401C03E006780E70401C491C6B
:100840005B1EF9D12B0705D40023521E0DD40B706B
:10085000491CFAE70378401CCB1A921C03E01D7870
:100860000D70491C5B1C521EF9D5A142D8D3002043
:1008700070BD000010B500F0F3F804A000F008FB14
:100880002246114603A000F003FB10BD53746172B1
:1008900074210A0052656164207265733A202564F0
:1008A0002C2049443A203078253034780A00000062
:1008B000FEB5534D00206870684604F005FF684699
:1008C00000F0B6FB01281CD1A9894EA000F0E0FA87
:1008D0004F4C207800280FD000F0F2FB0A224D493F
:1008E00000287DD0AB890A2B0CD0E268A36894461F
:1008F0000A79152A0DD018E000F086FC2078401CFB
:100900002070FEBD1420A881E8814248A0384282B0
:10091000FEBD152809D000200871FF21A9314B51D7
:10092000FF3560468135E862FEBD354AFF25A935B1
:10093000AE58FF328132FF27F537D56A0022F6190B
:1009400055416246F61A9541EED22D4DFF260871AB
:10095000A9367351FF358135EA62C825112812D0B6
:10096000122816D013281AD014281ED0152825D0E6
:100970001628D9D11621832000F05EFA658026A0C2
:1009800000F086FAFEBD658026A000F081FA1121F4
:1009900010E0658026A000F07BFA12210AE0658055
:1009A00026A000F075FA132104E0658026A000F06F
:1009B0006FFA1421832000F03FFAFEBD087C032863
:1009C000FBD2401CC0B208740328F6D11521832045
:1009D00000F032FA1FA000F05BFA6078002800E017
:1009E00005E002D000206070FEBD0120FBE7A88971
:1009F000142802D000200874FEBDAA81EA81FEBD41
:100A00008804002073616D706C655B25645D000077
:100A100060010020280600204765733A2044434CBB
:100A20004B2100004765733A20555021000000001B
:100A30004765733A20444F574E2100004765733A8B
:100A4000204C4546542100004765733A20524947DF
:100A5000485421004765733A20484F4C4421000018
:100A600010B50A4800214160417001700A2181607F
:100A700081810022C181202453001B18521CD9827D
:100A8000D2B29C83032AF7D310BD00008804002053
:100A9000F7B5002416460546570809E00198A1005D
:100AA0000818FFF782FB1021C84129680860641C00
:100AB000A742F3D8F00704D00198A100405A296852
:100AC000088028680068FEBDFEB505460024900831
:100AD00016460F4601900EE0A000C0190090FFF7E7
:100AE00064FB00BA010A00980902C0780143286833
:100AF00001600198641CA042EED8B00721D0B00775
:100B0000800F012803D1A1002A68795C11700228A6
:100B100008D1A000C1194878097800020843296863
:100B200040BA0880F04380070BD1A000C01941787B
:100B30000278090211432A6849BA1180296880782D
:100B4000087028680068FEBD10B500F0EFFD0C4984
:100B500008600CA000F09CF9012002F033FD0006B3
:100B6000000E02D0012806D103E0002002F078FC3C
:100B700001E002F031FC112003F01CFE10BD00006A
:100B8000580100202D2D2D2D2D2D2D2D2D2D2D2DD0
:100B900044454D4F5F496E69742D2D2D2D2D2D2D02
:100BA0002D2D2D2D2D2D0D0A000000000020C043FD
:100BB00070470000F0B401784A2901D04B2917D1C1
:100BC000437800220C4C1D09D100665CB5420BD164
:100BD00009194968002907D041881807000FD20079
:100BE00012195268F0BC1047521CD2B2052AEBD33E
:100BF000F0BC0020C043704720000020024610B522
:100C00000020130003F063F90D10140B08171A0BE2
:100C10000B0B0B1E210C0B00084603F02DFE10BD24
:100C2000084603F05BFE10BD084603F09DFE10BDB4
:100C300003F0A4FF10BD03F035FE10BDC8B203F0F1
:100C400045FF10BD04F09EF810BD03F0BDFF10BDC0
:100C5000010010B5054805D0012902D104F04EF974
:100C6000002010BD04F000F9FAE70000FFFFFFFFCD
:100C700010B50024002806D0012808D0022809D089
:100C800003280ED10AE0084604F0E0F909E004F078
:100C9000D1F906E0002004F0C1F902E0084604F0B2
:100CA0009BFC204610BD000010B50421034801F054
:100CB00041FD00F03BFD0249486010BDE801002005
:100CC00048010020010010B5024802D104F0C8F923
:100CD000002010BDFFFFFFFF13B5002805D16846B7
:100CE00040790C2803D004F031FD00201CBD022007
:100CF00003F0C2FD01218902054800F007FD00282C
:100D000002D004F097F9F0E7024804F087F9ECE725
:100D100000040048204E0000F8B5324C8C46A36811
:100D20000546984201D3EA1A01E0C81A4219104652
:100D30007D380F2804D800202070A070E3603BE0CD
:100D4000284F11463E780A390120B040761C3F6991
:100D5000F6B2052902D88743276105E01146143908
:100D6000052903D83843206126700EE010466F38FD
:100D700004280AD801206070E068834201D31A1A5F
:100D800002E06146081AC218E3602078202813D3D5
:100D900014481030017842788A18FF2A20D18278CE
:100DA000C0781018FF281BD110020143A180012038
:100DB000A070002020700CE06078002810D0002087
:100DC0006070A07800280BD007481018142807D8A6
:100DD000A188102000F0DCF8A188102000F02CF889
:100DE000A560F8BD00000020DCFBFFFF10B500226D
:100DF0000421044800F093FC00F098FC02490860CC
:100E000010BD0000000400481400002010B500F0E0
:100E10008DFC074C2168401A7D21C900884206D309
:100E200000F084FC20600421024800F074FC10BD36
:100E3000140000200004004813B582B04A2269461D
:100E40000A704870087B8870487B094CC87020780D
:100E50008200801800190422801CFFF76EF92078A8
:100E60001421401CFFF742F92170002004B010BD8E
:100E70000A04002010B566210448FFF777F90348FB
:100E800066216630FFF772F910BD0000A403002050
:100E90000FB410B540211048FFF768F903AB4021AB
:100EA0000D48029A02F0E6FF0B48FFF76AF90006C8
:100EB000000E0DD008490D220A54401CC0B20A226F
:100EC0000A54401CC2B20023DB43044801F0F1FD88
:100ED00010BC08BC04B018472403002028020020DE
:100EE00070B5274C002305222146264801F06EFDEF
:100EF000002816D104222146234800F0B2FA2179B5
:100F0000C0B281420DD12046FFF754FE002808DD13
:100F1000204601784A2904D16D210170002100F09A
:100F200055F81A4D16486C7829788C420ED0A100DD
:100F3000611849190422891CFFF7FFF8601C14216D
:100F4000FFF7D4F869700E48FFF734FE0F4D0C48D8
:100F5000663D6C7829788C4210D0A100611849193F
:100F60000422891CFFF7E9F8601C1421FFF7BEF882
:100F700069700021C943024800F028F870BD0000E4
:100F80001800002028020020C40100200A040020CC
:100F900013B582B0552269460A704870087B887084
:100FA000487B094CC8702078820080180019042200
:100FB000801CFFF7C2F820781421401CFFF796F838
:100FC0002170002004B010BDA403002070B50D46B0
:100FD000044601460422054800F043FA20712B46DE
:100FE00005222146024801F064FD70BDC4010020C5
:100FF0002802002010B500F099FB084C2168401A27
:101000001E280AD300F092FB2060112003F0D2FBCF
:10101000012000F0BBFAFFF74BFC10BD5801002087
:1010200010B500F033F9202000F0C0FA10BD000028
:10103000F0B5224A0021D31D8446F9334D006046A5
:10104000465B5C8A28200D4645436700AD18EF19C2
:10105000641C7E84A0B2D489844215D8002410E098
:1010600000263746A01940002818408CC719761C66
:101070003606360EF6D06600AE198036641C7783CD
:10108000E4B29089A042EBD8491CC9B20329D5D358
:10109000588A002805D102F047FBD41DF934E161DC
:1010A000A061588A401C80B25882D189884203D3FB
:1010B000002058820120F0BD0020F0BD88040020EF
:1010C000FCB5002005460646019000F0EBF8002430
:1010D0006946204600F050F90146012806D0022951
:1010E00004D0032916D0042932D050E0444A20010C
:1010F000FF23801851331954FF2119318B58694649
:101100000988FF320A2701327943D269CF1759186B
:101110007A4112E03A4A2001FF23801851331954D2
:10112000FF2119318F5869460988FF320A2301329D
:101130005943D269CB1779185A41FF2359331950B3
:10114000FF300130C2650120A0402843C5B21EE037
:101150002B4A2001FF23801851331954FF211931E4
:101160008B5869460988FF320A2701327943CF1725
:10117000D26959187A41FF2359331950FF30013091
:10118000C2650120A0402843761CC5B2F6B2641C9B
:10119000E4B2032C9CD3002D2CD0002E01D01520BE
:1011A000FCBD1848690705D5034670331ECB0646BB
:1011B00040361EC6A90705D5014660311EC9064640
:1011C00030361EC6E90704D0014650311EC9203012
:1011D0001EC00221012000F087F80021012000F04C
:1011E00083F804460221002000F07EF8012C03D091
:1011F000002C03D00198FCBD1420FCBD1320FCBDC5
:101200008804002088050020F8B5134D0024002034
:10121000224628235A4353190146AA8906E04E0064
:101220009E198036768B3018491C89B28A42F6D8CE
:101230001146FEF75BFF82B2600040190282818B8B
:101240000091C38A214605A0FFF722FE641CE4B288
:10125000032CDCD3F8BD00008804002043484E2056
:1012600025642D3E20626173653A2025642C646FED
:10127000776E5F6C696D69743A2025642C757020F7
:101280006C696D69743A2025640A0000034840695E
:10129000800602D5024901204870704700040140D1
:1012A0008804002030B50F4B0020002111E02822D7
:1012B0004243D2184C00121944008032E418558B76
:1012C000248AA54201D32C1B00E00024491C54832E
:1012D000C9B29A898A42EAD8401CC0B20328E4D332
:1012E00030BD000088040020F0B505460C20204ADF
:1012F000684384180C260A4672431D4EFF3481341D
:101300009219A3881B48FF328132834206D0968807
:10131000864203D0B34226D3B3421BD826898642E5
:1013200006D01789874203D0BE421CD3BE4211D8D3
:101330002488844206D01788874203D0BC4212D347
:10134000BC4207D8844207D01489844202D19488D1
:10135000844201D00846F0BD1188814205D0864202
:1013600001D1834201D02846F0BDFF20F0BD00002E
:1013700088040020FFFF0000F0B504460C2325463A
:101380005D43344B0120EB18FF3381338646304AEE
:1013900000201A8165002F4E1A8028279A80AD19E7
:1013A0007C43A4190246D880A4462DE00A3C94420E
:1013B00007DC540064448034648B402C01D2002448
:1013C000A646540064448034668BDF88BE4201D94F
:1013D000DE809A801F4EB689761E964212DD668B9D
:1013E000EF8ABE4205D2A68BBE4202D35E80561C57
:1013F0001E80668BEF8ABE4204D3A48BBC4201D20E
:101400005E811A81521C92B2124EB4899442CDD898
:1014100032469289142A02D17246012A0CD09A8847
:101420000B4EB2420BD0DB88AD8BAB4207D9641EAA
:10143000A24205D1012006E0092008800420F0BD69
:10144000002A02D003200A80F0BD0220FBE7000042
:10145000FFFF0000880400200068006C7047002037
:101460007047F8B504460020257F0346012D0FD0B4
:1014700001252577022666772668B7682F43B7606F
:10148000266A012E10D0022E12D0032E14D106E0AF
:101490000220F8BD83002668CB583360401C904280
:1014A000F8D32068036807E02046FFF70DFB02E051
:1014B0002046FFF7EDFA03466577002020771846AF
:1014C000F8BD10B504000DD0607F002803D120774F
:1014D000204600F025F8022060772046FFF7BFFF86
:1014E000002801D0012010BD6079002814D02069A7
:1014F000216808612168886860229043626910430E
:1015000088602168886880229043A26910438860BF
:1015100001206077002010BD0020C043E8E70000F4
:1015200008B500680549884207D10548426940214D
:101530000A43426140690840009008BD0030024003
:101540000010024070B50024014620314A78022A7A
:1015500003D004218163012416E0026813680E257C
:10156000AB431360026813685B085B0013600122E1
:10157000056C1346AB40C56B6B604A7000220A7065
:10158000416B002900D08847204670BD31B500F07E
:10159000CDF8009C0546601C00D0641C00F0C6F825
:1015A000401BA042FAD338BD7047000010B5044973
:1015B0004A69024202D04861FFF7F6FF10BD000001
:1015C00000040140F8B500238DE001249C40A446AE
:1015D00022407DD04C68022C01D0122C0CD1DC08AA
:1015E000A40027183C6A5D07ED0E0F26AE40B443F9
:1015F0000E69AE4026433E6205685E000324B44097
:101600000F79A543BF07BF0FB7402F4307604D6851
:10161000012D05D0022D03D0112D01D0122D0ED198
:101620008568CF68A543B7402F4387604768654604
:10163000AF430D79ED06ED0F9D403D434560C56814
:10164000A5438C68B4402C43C4604C68E40049D581
:10165000284CA56901263543A561A4699D0834403D
:101660000094254CAD002F19BC689D072E0F0F2547
:10167000B540AC430925ED06A84201D100250FE095
:101680001E4DA84201D101250AE01D4DA84201D1FD
:10169000022505E01B4DA84201D1032500E00525E8
:1016A000B5402543BD60184C25684E689543F60348
:1016B00000D51543256065684E689543B60300D58F
:1016C00015436560A5684E689543F60202D500E0B3
:1016D00008E01543A560E5684E689543B60200D55D
:1016E0001543E5605B1C0A681446DC4000D06CE7DB
:1016F000F8BD000000100240000001400004004856
:1017000000080048000C004800040140006908403F
:1017100000D00120704742694A4042617047002A68
:1017200001D0816170478162704700000148006804
:101730007047000070010020FFB5054604464035A3
:10174000687883B0202873D10C98002871D00D9848
:1017500000286ED0287801286AD001202870FFF771
:10176000E5FF0746012200901923D103204601F02E
:101770001BFB002876D1222068704020A87000262C
:1017800066640C9860620D98608566630E980090A0
:10179000019704A90EC9204601F03CFA002804D0A4
:1017A000606C2E70042860D05CE0618D092080029E
:1017B000FF2905D9FF22228501231B06009006E0A0
:1017C000618D21850090208D0123C2B25B062046E9
:1017D000049901F0D7FA00970022042120460E9BBD
:1017E00001F0E2FA00283DD12068416A606A421C9B
:1017F00062620170208D401E81B22185608D401E85
:101800006085002921D1608D00281ED0009700221C
:10181000802120460E9B01F0C7FA002822D1608D5E
:10182000FF2807D9FF22228501231B06009608E026
:101830002AE01AE0608D20850096208D0123C2B237
:101840005B062046049901F09DFA608D0028C2D104
:101850003A4620460E9901F0CBFA002807D0606C7A
:10186000042802D0032007B0F0BD0120FBE7216867
:101870002020C86121684A68044B1A404A60687099
:10188000AE702E700020EEE70220ECE700E800FECC
:10189000FFB5054604464035687885B0202877D1E5
:1018A0001098002875D01198002872D02878012847
:1018B0006ED001202870FFF739FF07460122009003
:1018C0001923D103204601F06FFA00287AD1222093
:1018D00068704020A87000266664109860621198B5
:1018E000608566630F9A12980E9900910290039793
:1018F000019206A90EC9204601F0C1F9002804D0C2
:10190000606C2E70042860D05CE0618D092080023C
:10191000FF2905D9FF22228501231B06009006E03E
:10192000618D21850090208D0123C2B25B06204687
:10193000069901F027FA0097002204212046129B05
:1019400001F032FA00283DD12068416A606A421CE9
:1019500062620170208D401E80B22085618D491E1B
:101960006185002821D1608D00281ED000970022BB
:1019700080212046129B01F017FA002822D1608DA9
:10198000FF2807D9FF22228501231B06009608E0C5
:101990002AE01AE0608D20850096208D0123C2B2D6
:1019A0005B062046069901F0EDF9608D0028C2D152
:1019B0003A462046129901F01BFA002807D0606CC5
:1019C000042802D0032009B0F0BD0120FBE7216804
:1019D0002020C86121684A68044B1A404A60687038
:1019E000AE702E700020EEE70220ECE700E800FE6B
:1019F000FFB5054604464035687883B0202876D187
:101A00000C98002874D00D98002871D028780128EF
:101A10006DD001202870FFF789FE07460122009053
:101A20001923D103204601F0BFF9002853D121200A
:101A300068704020A870002666640C9860620D985B
:101A4000608566630E980090019704A90EC9204630
:101A500001F062F9002804D0606C2E7004286AD06E
:101A600039E0608DFF2805D9FF22228501231B065E
:101A7000009606E0608D20850096208D0123C2B27D
:101A80005B062046049901F07DF93A4620460E99FE
:101A900001F0D5F9002803D0606C04284BD01AE07F
:101AA000606A411C6162216800788862608D401E16
:101AB0006085208D401E0004000C208524D1608D9F
:101AC000002821D000970022802120460E9B01F0A3
:101AD0006BF9002802D0032007B0F0BD608DFF280D
:101AE00007D9FF22228501231B06009608E024E087
:101AF00021E0608D20850096208D0123C2B25B0617
:101B00002046049901F03EF9608D0028BDD13A4687
:101B100020460E9901F06CF90028BDD120682021E3
:101B2000C16120684268064B1A4042606970AE701D
:101B30002E700020D0E70120CEE70220CCE7000085
:101B400000E800FE02480168491C0160704700007F
:101B50007001002010B50648016810221143016091
:101B6000002000F007F800F017F8002010BD00007A
:101B70000020024010B5044600F05EF97D21C90046
:101B8000FEF7B4FA00F062FB00222146501E00F07E
:101B90002FF8002010BD000008B50F488169012210
:101BA00011438161816911400091C26901040A43B6
:101BB000C261C0690022084000901146501F00F029
:101BC00017F800221146901E00F012F8002211466C
:101BD000501E00F00DF808BD00100240C106C90EED
:101BE00001208840014908607047000000E100E0E2
:101BF00010B501F00FFB10BDBFF34F8F0449034830
:101C0000C860BFF34F8F00BFFDE700000400FA0576
:101C100000ED00E0F8B505460068394CC00352D528
:101C2000E0690026C00007D4E16920040143E161B6
:101C3000E16901400126009132480168C90510D4CC
:101C40000168821511430160FFF770FD074604E04B
:101C5000FFF76CFDC01B642824D82A480068C00523
:101C6000F6D5206A03273F02384020D06968394002
:101C700081421CD0206A226AB843012109040A4328
:101C80002262226A8A4322622062C0070FD0FFF7D5
:101C90004DFD009008E0FFF749FD0099411A1A48F0
:101CA000814201D90320F8BD206A8007F3D5206A5C
:101CB0006968B84308432062002E04D0E16901201E
:101CC00000078143E1612878C00705D0206BA9682F
:101CD00080088000084320632878800605D5206BA3
:101CE00010218843E968084320632888400505D50A
:101CF000206B402188432969084320630020F8BDF8
:101D0000001002400070004088130000F8B505463E
:101D100044480E460068C007C00FB0420AD241488E
:101D2000016849084900314301600068C007C00FDD
:101D3000B0425CD128783C4C800705D56068F02122
:101D40008843A968084360602878C0073FD0686866
:101D5000012813D02168022813D08907002946DA08
:101D600061688908890001436160FFF7DFFC6968E9
:101D7000074601290DD0022917D024E021688903E4
:101D8000ECE78901EAE7FFF7D1FCC11B2748814254
:101D900017D860680007800F0128F4D117E0FFF71B
:101DA000C5FCC11B214881420BD860680007800F29
:101DB0000228F4D10BE0FFF7B9FCC11B1B4881429C
:101DC00001D90320F8BD60680007800FF3D11548E2
:101DD0000168C907C90FB1420BD901684908490018
:101DE000314301600068C007C00FB04201D001203C
:101DF000F8BD2878400706D56068072109028843A6
:101E0000E9680843606000F02DF86168084A090637
:101E1000090F515CC840074908600020FFF7AAFE7F
:101E20000020F8BD0020024000100240881300008E
:101E30009C580008740100200148006870470000A9
:101E4000740100200448054900684968044A4905AE
:101E5000490F515CC84070477401002000100240D7
:101E6000AC58000810B512A30FCB88B06C460FC455
:101E700013A30FCB0FC416494A680C201346034026
:101E80001448042B0FD0082B0DD193021B0F6C4666
:101E9000E45CC96A04AB0907090F595CD20304D595
:101EA000FEF724F9604308B010BD0B486043FAE721
:101EB00002030405060708090A0B0C0D0E0F10108B
:101EC0000102030405060708090A0B0C0D0E0F108A
:101ED0000010024000127A0000093D00FEB50446E1
:101EE0000078D04DC00747D068680007800F0128F0
:101EF00007D068680007800F022809D16868C0030E
:101F000006D52868800337D5606800287ED033E086
:101F1000012062680004012A11D08100002A01D04A
:101F2000052A10D02A6882432A60286888432860DE
:101F30006068002814D0FFF7F9FB06460CE029681A
:101F400001432960F4E72A680A432A60F7E7FFF7AC
:101F5000EDFB801B64286FD828688003F7D50BE061
:101F6000FFF7E4FB064604E0FFF7E0FB801B642874
:101F7000F1D828688003F7D420780126800700284C
:101F80003BDA68680007800F07D068680007800F99
:101F9000022809D16868C00306D42868800715D5CF
:101FA000E068012832D111E0E0680028286815D0E7
:101FB00030432860FFF7BAFB074604E0FFF7B6FBA3
:101FC000C01B0228C7D828688007F7D52868F821E1
:101FD00088432169C900084328600EE0400840009A
:101FE0002860FFF7A3FB074604E0FFF79FFBC01B39
:101FF0000228B0D828688007F7D42078000724D5B5
:10200000E0690028686A10D0304300E008E16862A7
:10201000FFF78CFB074604E0FFF788FBC01B022894
:1020200099D8686A8007F7D50FE0400840006862D9
:10203000FFF77CFB074605E09DE0FFF777FBC01B41
:10204000022888D8686A8007F7D4207804274007D8
:10205000002860DA00200190E869C00008D4E9692E
:10206000B8060143E961E96901400120009101904E
:102070006D480168C90511D40168821511430160DA
:10208000FFF754FB009005E0FFF750FB0099401A62
:10209000642870D864480068C005F5D5A068012898
:1020A0000AD0002801D0052810D0286A4008400036
:1020B0002862286AB84301E0286A30432862A06891
:1020C000002812D0FFF732FB00900AE0286A38435C
:1020D0002862F1E7FFF72AFB0099411A5348814231
:1020E00049D8286A8007F5D50DE0FFF71FFB00905F
:1020F00006E0FFF71BFB0099411A4C4881423AD891
:10210000286A8007F5D40198002804D0E9690120E5
:1021100000078143E9612078C00635D56069012850
:102120000CD0401D686B23D038436863686B40084F
:1021300040006863FFF7FAFA064622E0686B38430E
:102140006863686B30436863FFF7F0FA064604E0A3
:10215000FFF7ECFA801B02285BD8686B8007F7D585
:10216000686BF8218843A169C900084368630BE0E4
:10217000B8436863F4E74CE0FFF7D8FA801B022805
:1021800047D8686B8007F7D4206A002846D0696872
:102190000907890F022943D001263606022828683C
:1021A00005D0B0432860FFF7C1FA044633E0B043DE
:1021B0002860FFF7BBFA074604E0FFF7B7FAC01B39
:1021C000022826D828688001F7D4E86AE16A000965
:1021D00000010843E862616AA06A084369683D2219
:1021E0001204914308436860286830432860FFF771
:1021F0009DFA044604E0FFF799FA001B022808D86C
:1022000028688001F7D509E0FFF790FA001B022843
:1022100001D90320FEBD28688001F5D40020FEBD51
:102220000120FEBD00100240007000408813000035
:10223000042204490428086902D0904308617047C9
:102240001043FBE700E000E070470000094910B5CB
:10225000401E884201D9012010BD074C6061032156
:10226000081F00F0D7FF0020A06107202061002098
:1022700010BD0000FFFFFF0000E000E010B5FFF719
:10228000E3FF10BD7047704770B5034620331A7FD7
:10229000012A27D001241C7702225A770326CA6814
:1022A0003602B2438E6800253243A602B2434E681E
:1022B00000683243E602B2430E6832432603B2435B
:1022C0000E6932436603B2434E6989693243A603FD
:1022D000B2430A43E603B2430A4342645C771D7784
:1022E000002070BD022070BD70B502462032137F01
:1022F000012B1BD0012313770224547704686568EF
:102300007026B5436560046865680E68354365608E
:102310000468A5688026B543A5600068846849689C
:102320000C43846053770020107770BD022070BD8D
:1023300070B5040005D025462035687F002802D0FE
:1023400006E0012070BD00202877204600F00AF842
:1023500002206877211D206801F002FA01206877C9
:10236000002070BD08B500680549884207D10548BE
:102370008269C1140A43826180690840009008BDE7
:10238000002C014000100240F8B5054604462035F7
:10239000287F012817D001272F770220687722682D
:1023A00090687726FF23B0431B029843906008682B
:1023B000502837D00EDC202857D006DC00284ED01D
:1023C000102840D14EE00220F8BD302850D04028DF
:1023D00039D13CE060282DD0702817D0012212039B
:1023E000801A0ED090422ED1CB684A688968206846
:1023F00001F00BFA20688168012292031143816089
:1024000021E020688168C908C900F8E7CB684A68FC
:102410008968206801F0F9F921688868B043304381
:10242000886010E0CA684968206801F0FDFA502110
:10243000206806E0CA684968206801F006FB602150
:10244000206801F0EDF96F7700202877F8BDCA68A1
:102450004968206801F0E8FA40212068F1E700218E
:102460002068EEE710212068EBE720212068E8E7EC
:1024700030212068E5E710B50446007F082807D121
:102480000C21204600F07FF92168C96AFEF744FC60
:1024900010BD70B50446006801690025C94389076D
:1024A000002915DBC168C943890711D4E91E016100
:1024B00001202077206880698007204602D0FFF73E
:1024C000DAFF04E000F0B0F8204600F031F925779B
:1024D00020680169C943490717D4C168C94349073E
:1024E00013D40421C9430161022020772068806948
:1024F0008005800F204602D0FFF7BDFF04E000F00A
:1025000093F8204600F014F9257720680169C94343
:10251000090716D4C168C943090712D40821C94361
:102520000161042020772068C0698007204602D01E
:10253000FFF7A1FF04E000F077F8204600F0F8F87C
:10254000257720680169C943C90617D4C168C94302
:10255000C90613D41021C9430161082020772068DF
:10256000C0698005800F204602D0FFF784FF04E099
:1025700000F05AF8204600F0DBF825772068016962
:10258000C943C90708D1C168C943C90704D1891E15
:102590000161204600F0F6F820680169C943090688
:1025A00009D4C168C943090605D48021C943016122
:1025B0002046FFF767FE20680169C943490609D430
:1025C000C168C943490605D44021C9430161204679
:1025D00000F0FCF820680169C943890609D4C16884
:1025E000C943890605D42021C94301612046FFF76C
:1025F0004AFE70BD00B50068084985B088420BD11D
:10260000074800900221002001910290049103905C
:1026100069460448FEF7D6FF05B000BD002C014016
:1026200003200000000400487047F8B50646044641
:102630002036307F0D4601280DD001203077022052
:1026400070770427002A08D0042A16D0082A2AD036
:102650000C2A4DD137E00220F8BD206801F0E8F8DF
:102660002068816908221143816120688169B9432A
:102670008161206881692A6912E0206801F01CF9F3
:10268000206882690121C9020A4382612068816948
:102690000122920291438161206881692A691202B4
:1026A0001143816124E0206801F046F92068C26985
:1026B00008210A43C2612068C169B943C161206829
:1026C000C1692A6912E0206801F078F92068C169BF
:1026D0000122D2021143C1612068C269012189022D
:1026E0008A43C2612068C1692A6912021143C1612B
:1026F0000120707700203077F8BD70B5040005D058
:1027000025462035687F002802D006E0012070BDF4
:1027100000202877204600F00AF802206877211D63
:10272000206801F01DF801206877002070BD704717
:102730007047000010B504460068042201F05AF802
:102740000C482168814208D00B48814205D00B48D3
:10275000814202D00A48814204D1486C0122D2034E
:102760001043486420680168012211430160002081
:1027700010BD0000002C0140004001400044014019
:1027800000480140704710B5034620331C7F0022EB
:10279000012C0AD001241C77002908D0042909D073
:1027A00008290AD00C290DD10AE0022010BD0068CA
:1027B000426B07E00068826B04E00068C26B01E0D6
:1027C0000068026C00201877104610BD70477047F3
:1027D00070470000F8B503680446D8691968050712
:1027E0002D0F07D1820605D58A0603D5204601F0B4
:1027F000FFF9F8BD9A68002D64D0D507ED0FFF26CC
:1028000021360E402E435DD0C60706D0CE0504D536
:1028100001261E62E36E3343E36687070223042624
:10282000002F06DAD70704D027683B62E76E3743EC
:10283000E766470706D5D20704D022681662E26E23
:102840001A43E266020709D520220A402A4305D02E
:10285000236808221A62E36E1343E366E26E002ADD
:10286000C7D0800604D5880602D5204601F0C0F9FD
:10287000E06E000703D42068806840061CD520461F
:1028800001F09AF920688168490611D581684022D3
:1028900091438160606E00280AD01A494163606EDE
:1028A000FEF750FE0028A4D0606E416B8847F8BD4B
:1028B0002046FFF78DFFF8BD2046FFF789FF002077
:1028C000E066F8BDC5020DD552020BD5012000050A
:1028D0001862202120466030417281722046FFF745
:1028E00076FFF8BD020605D50A0603D5204601F09D
:1028F00055FAF8BD4006FCD54806FAD5204601F049
:102900006AF9F8BDA53B000870B5040005D025465E
:102910006035687A002802D006E0012070BD0020F2
:102920002872204600F026F824206872206801688A
:10293000490849000160204601F098F90128EDD0CE
:10294000606A002802D0204601F092F820684168B1
:102950000922D20291434160206881682A22914372
:10296000816020680168012211430160204601F066
:10297000E5F870BD00B50068114987B088421DD1E7
:1029800010488269012189030A43826180690840F5
:102990000590C020009002200021019003200291A8
:1029A0000491039069460848FEF70CFE0022114688
:1029B0001B20FFF71DF91B20FFF710F907B000BD22
:1029C000003801400010024000040048FFB50746EF
:1029D00004466037B87A83B00E46202864D1002EB2
:1029E0000CD00598002809D00120A168000381427D
:1029F00007D12069002804D1F00702D0012007B0D8
:102A0000F0BD387A01284FD0012038720020E066EE
:102A10002220B872FEF78AFE0290254640350598BE
:102A20002883059868830122A1681203FF20914240
:102A300004D12169002907D11C4805E0002904D1EF
:102A40002169002900D07F20A883A88B01901CE079
:102A5000688B401E68830698009000222021204643
:102A6000029B01F0CEF9002801D00320C7E7012026
:102A7000A1680003814202D1206900280DD020689E
:102A8000818C019801403170761C688B0028DFD161
:102A90002020B87200203872B1E72068808C01993C
:102AA00008403080B61CF0E70220A8E7FF010000D4
:102AB0007047FFB5064604466036707A83B00D460F
:102AC000202858D1002D0CD00598002809D00120CD
:102AD000A1680003814207D12069002804D1E807DA
:102AE00002D0012007B0F0BD307A012843D0012088
:102AF00030720020E06621207072FEF717FE019010
:102B000027464037059838820598788218E0788AF9
:102B1000401E788206980090002280212046019B6A
:102B200001F06FF9002818D10120A168000381424B
:102B300002D12069002812D02168287808856D1CF0
:102B4000788A0028E3D10698009000224021204690
:102B5000019B01F056F9002808D00320C2E728881D
:102B60002168C005C00D0885AD1CE9E72020707202
:102B700000203072B6E70220B4E77047FEE7016834
:102B80008A69D243920701D400228A62006881696F
:102B9000C943C90703D0816901221143816170478C
:102BA000F7B5044600680E468069C043C0062CD4C1
:102BB00020272546403520688069C04380060FD510
:102BC000701CF8D0002E05D0FEF7B0FD0299401A17
:102BD000B042F0D96F700020A87028700320FEBDAD
:102BE00021681020C8612068C7612046FFF7C7FF31
:102BF00020684168064A11404160042060646F709B
:102C00000020A87028700120FEBD0020FEBD00003D
:102C100000E800FEF8B504460120164640031D46B4
:102C2000DAB20090079F0023204600F0ABF83A4646
:102C30002046069900F003F9002803D0606C0428B0
:102C40001BD018E02846F5B2012809D02168300AC7
:102C500088623A462046069900F0F1F80028EDD146
:102C6000206885620097002240212046069B00F0E4
:102C70009BF8002800D00320F8BD0120F8BDF8B56E
:102C8000044601204003079D0090581917461E4630
:102C9000C2B20023204600F075F82046099A089930
:102CA00000F0CDF8002803D0606C042832D02FE06B
:102CB0003046FEB2012809D02168380A88622046D1
:102CC000099A089900F0BBF80028EDD120688662C7
:102CD000002D1FD0069800281CD000260CE02046AE
:102CE000099A089900F0ABF80028DDD10698216810
:102CF000805D8862761CF6B2AE42F0D309980090EF
:102D0000002240212046089B00F04EF8002800D009
:102D10000320F8BD0120F8BDF8B504460120164691
:102D200040031D46DAB2C3020090079F204600F020
:102D300029F83A462046069900F081F8002803D089
:102D4000606C04281BD018E02846F5B2012809D091
:102D50002168300A88623A462046069900F06FF8EA
:102D60000028EDD12068856200970022802120464E
:102D7000069B00F019F8002800D00320F8BD0120C0
:102D8000F8BD000070B50568049C68688905890D68
:102D90001204044E1143194330402143014369603A
:102DA00070BD0000009800FCF8B51C4617460E46A2
:102DB000054611E0601C0FD0002C05D0FEF7B6FCD4
:102DC0000699401AA04207D920204035687000209B
:102DD000A87028700320F8BD2868816930468843B0
:102DE00004D00020B842E5D00020F8BD0120F9E76A
:102DF00070B516460D4604461AE03246294620466E
:102E0000FFF7CEFE002801D0012070BD002D04D0B8
:102E1000FEF78CFC801BA8420AD9616C202001437C
:102E20006164403460700020A0702070032070BD89
:102E300020688069C0438006DFD4002070BD70B573
:102E400016460D4604461CE0324629462046FFF74A
:102E5000A7FE002801D0012070BD681C11D0002DF4
:102E600004D0FEF763FC801BA8420AD9616C2020C5
:102E700001436164403460700020A0702070032022
:102E800070BD20688069C0438007DDD4002070BD1C
:102E900010B500F043F800F0F9F900F053F8012004
:102EA000401EFDD200F044F80020401EFDD200F08C
:102EB00035F810BD10B500F031F800F0E7F900F07A
:102EC0004BF80120401EFDD200F032F80020401ED9
:102ED000FDD200F023F810BD70B50646002400F0C6
:102EE000BDF9002500F01AF80020401EFDD200F0C8
:102EF0001FF86006040E00F0E1F9002801D0641C00
:102F0000E4B26D1CEDB2082DECD3002E03D0FFF718
:102F1000BFFF204670BDFFF7CDFFFAE710B5FF21D8
:102F2000002201310148FEF7FAFB10BD0004004801
:102F300010B5012211020248FEF7F1FB10BD00009E
:102F40000004004810B50121002249020148FEF7A3
:102F5000E6FB10BD0004004810B5012251020248F2
:102F6000FEF7DDFB10BD00000004004870B505460B
:102F700000F08CF9FFF7D2FF0120401EFDD20024A3
:102F8000280602D5FFF7E8FF01E0FFF7DBFF680640
:102F9000050E0020401EFDD2FFF7CAFF0020401E94
:102FA000FDD2FFF7BBFF0020401EFDD2641CE4B23F
:102FB000082CE5D300F025F870BD10B500F066F9D7
:102FC000FFF7CAFFFFF7B4FF0320401EFDD2FFF753
:102FD000B9FF0220401EFDD2FFF7A0FF10BD10B5C3
:102FE00000F054F9FFF79AFFFFF7ACFF0320401EF3
:102FF000FDD2FFF79DFFFFF7AFFF0220401EFDD27D
:1030000010BD10B5002400F029F9FFF7A5FF00203E
:10301000401EFDD2FFF78CFF07E0641CE4B2FA2CDF
:1030200003D9FFF7DCFF012010BD00F047F90028AD
:10303000F3D1FFF773FF002010BD000010B50D485D
:103040000B490160002101714171602141618021C2
:10305000816101210162FEF734FA002800D0FEE709
:103060000448FEF7FCF9002800D0FEE710BD000080
:1030700000300240C401002070B5294886B0426982
:10308000012149040A43426142690A4005924269AA
:1030900049000A43426142690A40059242690901B6
:1030A0000A43426140690124084005900320400220
:1030B0000090022001900920039402946946049430
:1030C000C006FEF77FFA14216846FDF74FF803208B
:1030D00000020025694631C10320124E0390694663
:1030E0003046FEF76FFA002204213046FEF717FB48
:1030F00014216846FDF73AF80420694631C1694653
:1031000030460395FEF75EFA2020009006480190B5
:10311000694602953046FEF755FA06B070BD0000CC
:1031200000100240000400480000211010B529489A
:1031300094B0274901600024072184604160046144
:10314000446163218461C160FFF7F2F8002800D078
:10315000FEE7012000030E900EA91E48FFF714F9A8
:10316000002800D0FEE71B48FFF7C7FA002800D070
:10317000FEE7129412A917481394FFF7B5F8002838
:1031800000D0FEE76020059401940090029403941F
:1031900004940422694606940E48FFF746FA002874
:1031A00000D0FEE701200794400308940C90099496
:1031B0000A940B9407A90D940648FFF765F80028B8
:1031C00000D0FEE70348FFF715FA14B010BD000069
:1031D000002C0140E801002010B50C480A490160AC
:1031E000E1214902416000218160C160016181618A
:1031F000C1610C22016242614162FFF785FB002838
:1032000000D0FEE710BD0000003801402802002079
:10321000704700008307FF22DB0E9A408907090EE2
:10322000994000280BDA0007000F08388308084887
:103230009B001818C36993430B43C361704783080D
:1032400004489B001B181868904308431860704797
:1032500000ED00E000E400E07047000010B514212C
:103260000848FCF783FF012106484902016000215C
:10327000416081600321C16001460348FEF7A2F965
:1032800010BD0000700400200004004810B5142197
:103290000848FCF76BFF0121064849020160012143
:1032A0004160002181600321C16001460248FEF7B0
:1032B00089F910BD700400200004004810B50121F8
:1032C00049020248FEF722FA10BD0000000400483F
:1032D000FEB5044600200F460090019016461D469C
:1032E00019462046FCF742FF402006436846067018
:1032F00001226946384602F095FA2A4621463846A8
:1033000002F079FA2B4622460121684602F09FFA24
:103310002078FEBDFEB51C460B4600250146402028
:103320000243009568460195027028466A4604E00B
:103330000E5C1718401C7E70C0B2A042F8D3621C0D
:103340006946184602F06EFA00231A46611C684668
:1033500002F07DFA2846FEBDFEB51C4600250B4650
:103360000095694601950A7029466A4604E0465C64
:103370005718491C7E70C9B2A142F8D3621C694635
:10338000184602F04FFA00231A46611C684602F004
:103390005EFA2846FEBD704770B50D4604460146EC
:1033A000164605A0FDF774FD2B46224653213046F4
:1033B000FFF7D2FF002070BD536931313578426C80
:1033C0006F636B57726974652061646472657373AF
:1033D0003D3078257800000010B513A0FDF758FDAA
:1033E00000F0FCF804466420FEF7D0F80EA0FDF7CC
:1033F0004FFD0121084600F0AFF804193F211F20BE
:1034000000F0AAF804196221022000F0A5F80419BE
:103410000121052000F0A0F804190521032000F087
:103420009BF8001900B210BD2D2D2D2D2D2D2D2D09
:103430002D2D2D2D536931313578496E69744C6FBE
:103440006E6752616E676550726F78203363686F84
:103450002D2D2D2D2D2D2D2D2D2D2D2D2D0D0A000C
:1034600070B5054600F0BAF804466420FEF78EF801
:10347000002D1FD03F211F2000F06EF804190121FC
:10348000084600F069F804196221022000F064F88F
:1034900004198021032000F05FF804194021042062
:1034A00000F05AF804192121052000F055F80419FC
:1034B00001214BE03F211F2000F04EF804190F219D
:1034C000012000F049F804196221022000F044F8BC
:1034D00004198021032000F03FF804194021042042
:1034E00000F03AF804192121052000F035F80419FC
:1034F0004D21062000F030F80419E121072000F0EA
:103500002BF804194021082000F026F80419412165
:103510000A2000F021F80419E1210B2000F01CF82A
:10352000041950210C2000F017F804194D210E2029
:1035300000F012F8041987210F2000F00DF804198B
:103540004021102000F008F804190F210F2000F08E
:1035500071F8001900B270BDF8B50D460446014679
:1035600011A0FDF795FC01F06DF900281AD111208A
:1035700000F028F8C606A0066946800E0D7080305F
:103580004870F60E6A4602210A20FFF705FF002860
:1035900008D1112000F016F800B2C006C00EB042EB
:1035A000F7D00020F8BD0000536931313578506103
:1035B00072616D53657420616464726573733D302C
:1035C0007825780008B5024603480123017868464B
:1035D000FFF77EFE08BD00005401002010B50BA0CF
:1035E000FDF756FC0A20FDF7D1FF0A20FDF7CEFFBC
:1035F0000A20FDF7CBFF012211460B2000F01AF83C
:1036000004B20A20FDF7C2FF204610BD2D2D2D2D3E
:103610002D2D2D2D2D2D2D2D5369313135785265C0
:103620007365742D2D2D2D2D2D2D2D2D2D2D2D2D05
:103630000D0A000007B5134602460348017801A8A9
:10364000FFF768FE0EBD00005401002010B5FEF724
:1036500079FAFEF713FE00F06DF810BD30B595B0A5
:103660000125122005950090102003950490002458
:10367000069008946846FEF731FC002800D0FEE76B
:1036800007200C900D940E9400210F940CA8FEF7C7
:103690003DFB002800D0FEE710A810951294FEF71D
:1036A000B9FA002800D0FEE7FEF7C6FB7D21C9006D
:1036B000FCF71CFDFEF7CAFD0420FEF7B9FD002251
:1036C0001146501EFEF794FA15B030BD134801683C
:1036D0000122114301604168114A114041600168B3
:1036E000104A114001600168012292049143016077
:1036F00041683F22120491434160C16A09090901EE
:10370000C162016BFF22543291430163416B49084E
:1037100049004163002181607047000000100240B1
:103720000CB8FFF8FFFFF6FE01498868C9687047CA
:103730006001002072B6054900238A68C868521CDF
:1037400058418A60C86062B670470000600100207E
:1037500010B50248FEF79DFE10BD0000E4020020F7
:10376000F0B502681D4B0124A4071D4D984203D0FB
:10377000A04201D0A84203D17026B2434E68324322
:10378000184E194F98420DD0A0420BD0A84209D034
:10379000164CA04206D0B04204D0B84202D0144C1D
:1037A000A04204D103242402A243CC6822438024F3
:1037B000A2434C69224302608A68C2620A6882623C
:1037C000984206D0B04204D0B84202D0084A904293
:1037D00001D10969016301214161F0BD002C014063
:1037E000000400400040014000440140002000402F
:1037F0000048014010B50123046A8B409C430462D9
:10380000036A8A401343036210BD30B58468FF2504
:103810002D021B021343AC430B432343836030BD93
:10382000826870239A430A4307210A4382607047E3
:10383000F0B5026A520852000262056A4368826962
:103840007024A24392080C6892001443022295430C
:103850008A68164E2A43144DA84207D0B04205D0BC
:10386000134FB84202D0134FB84206D10827BA43CB
:10387000CF681743042297433A46A84207D0B04284
:1038800005D00B4DA84202D00A4DA84206D103250F
:103890002D02AB434D691D438B692B43436084610B
:1038A000496841630262F0BD002C014000400140C4
:1038B000004401400048014070B5026A10239A4359
:1038C0000262056A4268836973242402A3430C6878
:1038D00024021C4320239D438B681B012B43124D64
:1038E000A84208D11D46CB688026B5431B012B4357
:1038F0004025AB4308E00D4DA84205D00C4DA84231
:1039000002D00C4DA84208D10325AD02AA434D694F
:10391000AD0015438A6992002A4342608461496878
:103920008163036270BD0000002C01400040014033
:10393000004401400048014070B5026AFF23013392
:103940009A430262056A4368C2697024A2439208DE
:103950000C68920014430122520295438A681202B5
:103960002A43124DA84208D11546CA68C614B54369
:1039700012022A430515AA4308E00D4DA84205D0BE
:103980000C4DA84202D00C4DA84208D103252D03AE
:10399000AB434D692D011D438B691B012B434360D4
:1039A000C4614968C163026270BD0000002C01401F
:1039B00000400140004401400048014030B5026A27
:1039C00001231B039A430262046A4268C369732598
:1039D0002D02AB430D682D021D4301235B039C4365
:1039E0008B681B0323430C4CA04208D00B4CA04215
:1039F00005D00B4CA04202D00A4CA04205D10124B4
:103A0000A403A2434C69A40122434260C5614968F2
:103A10000164036230BD0000002C01400040014001
:103A2000004401400048014030B5036A046A64085C
:103A3000640004628469F025AC43120122430A2425
:103A4000A3430B438261036230BD30B5036A102487
:103A5000A34303628469036A0F252D031203AC4359
:103A60002243A024A343090119438261016230BDAE
:103A700010B5818CC90707D001684A6801235B042F
:103A80009A43836A1A434A60818C890707D5016883
:103A90004A6801231B049A43C36A1A434A60818C13
:103AA000490707D501684A6801239B049A43036BC1
:103AB0001A434A60818C090707D501684A680123C7
:103AC000DB039A43436B1A434A60818CC90607D5CE
:103AD0000268916801231B039943836B194391602A
:103AE000818C890607D501688A6801235B039A43A4
:103AF000C36B1A438A60818C490612D503685A68E1
:103B000001210905046C8A4322435A60026C8A42EF
:103B100007D10268516803235B059943436C19433D
:103B20005160818C090607D501684A680123DB04CE
:103B3000806C9A4302434A6010BD0000F8B500262D
:103B40000446C666FDF7F2FD054614492068884222
:103B50001DD10068124F000709D501212B46002214
:103B600049052046009700F04CF900280DD1206847
:103B7000006840070BD501212B460022890520460D
:103B8000009700F03EF9002801D00320F8BD202066
:103B900060346072A07226720020F8BD00380140C7
:103BA000FFFFFF0110B5406A0022014640314A8301
:103BB0004A82FEF70DFE10BD01680A68FF2321331B
:103BC0009A430A6001688A68520852008A6020217C
:103BD00060308172704710B501680A6840239A43CB
:103BE0000A60202269210A54FEF7C7FF002010BD99
:103BF00070B50246403203466033948B9D7A01686B
:103C0000222D05D08869082210438861022070BDEA
:103C1000898C012685683603B54202D10569002DDD
:103C20000BD02140446D651C45652170518B491EA8
:103C30000904090C518307D015E0456D2140298006
:103C4000416D891C4165F1E701680A68FF24213450
:103C5000A2430A6001688A68520852008A602021E3
:103C60009972FEF725FF002070BD0000F8B50446EC
:103C70002369A268E5691A43636910202B43002178
:103C800025681A432B680E463E4F3B4013432B607A
:103C900023685A6803252D03AA43E5682A435A601E
:103CA000236AA26925681A43AB680B273F02BB430E
:103CB0001343AB60344A2568954210D1334A126BE6
:103CC0009207920F0ED0012A05D0022A05D0032AAE
:103CD00009D1022007E0042005E0082003E02C4A77
:103CE000954200D100200122E369D203934224D1FE
:103CF00000280CD002280DD0042813D0082817D093
:103D000001260A0912010807400F10432FE0FEF7B1
:103D100099F809E061681F4A48088018FCF7E6F93D
:103D200081B2EEE7FEF79EF8616840004A08F4E7CA
:103D30006168012248081204EFE7002808D0022831
:103D400009D004280BD0082814D001263046F8BD2D
:103D5000FEF778F805E061680F4A48080CE0FEF7C6
:103D600081F861684A088018FCF7C0F980B22168C0
:103D7000C860EBE7616848088018FCF7B7F980B2C3
:103D8000E860E3E7F369FFFF0038014000100240FC
:103D9000004400400024F40000127A006921095C0C
:103DA000212901D00220704702464032518A002961
:103DB00012D0012381681B03994202D101690029B5
:103DC00015D0C16C4B1CC364006809780185508A0A
:103DD000401E50820020704701680A6880239A4381
:103DE0000A6000680168402211430160F2E7C16C7B
:103DF00003680988C905C90D1985C16C891CC1648E
:103E0000E5E7FFB581B017460E4604460A9D1DE062
:103E1000681C1BD0002D05D0FDF788FC0499401AC2
:103E2000A84213D920680168FF22A13291430160A2
:103E300020688168490849008160202060346072F0
:103E4000A07200202072032005B0F0BD2068C16977
:103E50003046884304D00020B842D9D00020F3E790
:103E60000120F9E710B50248FEF7B4FC10BD0000D0
:103E7000280200207CB51546024600201C46002979
:103E80000BD0491E00920191044B6A4621462846F8
:103E900000F0F4F8009A002111707CBD2F48000852
:103EA0002021020C01D010211046020A01D0104638
:103EB0000839020901D01046091F820801D01046B6
:103EC000891E420801D0881E7047081A704730B416
:103ED0007446641E2578641CAB4200D21D46635DA7
:103EE0005B00E31830BC184702E008C8121F08C185
:103EF000002AFAD170477047002001E001C1121F6B
:103F0000002AFBD170470000F0B51FB486B00998B5
:103F1000089A030D0021024314D05148514A181841
:103F2000504305141198012810981AD0281A401CE3
:103F300000264D4F4D49009601910490002812DA59
:103F4000444211E01198012449A3012801D110989D
:103F5000C1430698119A84600360C26041600BB04F
:103F6000F0BD4042E4E70446210500203F4A001C22
:103F700051410391029012E0E00707D032463B46E0
:103F800001990098FCF7A2FA0191009032463B4655
:103F900010461946FCF79AFA06460F466410002CA4
:103FA000EAD10498039B0028029A0999089806DA36
:103FB000FCF78CFA019B009AFCF788FA05E0FCF705
:103FC000EDFA019B009AFCF7E9FA04460E4600223E
:103FD000284BFCF77BFB03D80020C043014607E0D9
:103FE0000022254B20463146FCF7BEF9FCF74EFB7C
:103FF000102409E0002C0ADB0A220023FCF743F915
:10400000079B30321A55641E02460A43F2D1112230
:10401000641C079B121B1C19119B012B03D001234D
:1040200008430ED10AE0084304D01120109000206C
:10403000119077E71098151A6D1E0BE010988242C8
:1040400002DD00236D1C03E0824201DA00236D1EB5
:10405000002BEED0069811998260C16030C07EE7D7
:1040600001FCFFFF104D0000000014400000F03F75
:10407000300000000000F0430000E03FFFB597B0C3
:104080000646002518E2252877D100242746FD4959
:10409000049400E00443761C32780120203A9040DA
:1040A0000842F7D130782A280ED002223078014613
:1040B0003039092916D804990A2359433039401850
:1040C0001443761C0490F1E7189802C804911890E4
:1040D000002904DA012040030443484204900220EE
:1040E0000443761C30782E2814D1042004437078C1
:1040F000761C2A2809D11898761C80C8189009E0E7
:104100000A214F43303FC719761C307801463039B9
:104110000929F5D930786C2810D006DC4C281AD043
:1041200068280ED06A2817D104E0742813D07A28A2
:1041300012D110E00120400504430CE001210905E3
:1041400001E0032109050C437178814203D101206C
:1041500000052418761C761C3078119066280BD048
:1041600013DC58287DD009DC00287BD04528F6D008
:104170004628F4D047281AD1A5E118E0632835D0A5
:10418000642870D0652812D19DE170286CD008DCBD
:104190006728F1D069287BD06E280DD06F2806D112
:1041A000BAE073282ED0752871D0782859D01A9A81
:1041B000199990476D1C7EE16002400F022809D0DA
:1041C00003280DD00428189801680DD00D60001D3B
:1041D000189070E11898EA1701680D604A60F6E7D8
:1041E000189801680D80F2E70D70F0E718986A469C
:1041F00001781172001D18900020507202A80090E2
:10420000012005E0189802C8189000200091C043D2
:1042100061070DD5002101E00199491C0191B942C6
:1042200012DA8142F8DB009A515C0029F4D10BE0EC
:10423000002101E00199491C01918142FADB019AB8
:104240000099895C0029F5D1019904981A9B471AB5
:1042500021463846199A00F097FA019940194518F5
:104260000BE04FE02CE113E04EE00098009900785D
:10427000491C00911A9A199990470198401E019083
:10428000401CF2D1214638461A9B199A10E137E0BA
:104290000A200021009001916002410F022907D0FD
:1042A000189A01CA1892C2179446032908D00AE046
:1042B0001898C01DC108C90005C91891944607E0A7
:1042C00000B2C2179446042902D140B2C1178C46ED
:1042D00000226146944506DA0A4600214042914197
:1042E0008C462D2102E0210504D52B216A4611734D
:1042F000012103E0E10701D02021F7E7029155E019
:104300000A200AE0102008E010200090002104207C
:1043100004430191082703E0082000210191009047
:104320006002410F022907D0189A01CA1892002290
:104330009446032908D008E01898C01DC108C90098
:1043400005C91891944603E080B2042900D1C0B297
:1043500000210291210729D51199702906D0009AD0
:104360001021019B4A401A4305D00EE040216A46C5
:104370001173012108E06146014306D030216A46ED
:1043800011731199517302210291009A0821019B26
:104390004A401A430AD16146014301D1610705D55C
:1043A00030216A46117301217F1E0291119958290B
:1043B00004D035A10E910DA90D910DE037A1F9E7BB
:1043C0006146019B009AFBF75EFF0E9B8C469B5C4F
:1043D0000D9A521E0D92137061460143F0D10D9853
:1043E00005A9081A20300190600703D501200004B8
:1043F000844300E001270198874201DD381A00E07C
:104400000020019900904118029809180498401A58
:104410000490E00306D421461A9B199A049800F0F0
:10442000B3F94519002706E003A81A9AC05D199947
:1044300090476D1C7F1C02988742F5DBE0030CD58A
:1044400021461A9B199A049800F09EF9451904E038
:104450001A9A3020199990476D1C0099481E0090B7
:104460000029F5DC08E00D980D990078491C0D91A4
:104470001A9A199990476D1C0199481E01900029BC
:10448000F1DC63E10928010030313233343536374D
:104490003839616263646566000000003031323390
:1044A0003435363738394142434445460000000030
:1044B00000F05AF94519761C3078002800D0E2E562
:1044C00028461BB0F0BD600700D406271898C01D11
:1044D000C108C90048680A680831C30FDB07189192
:1044E000190001D09CA108E0210501D59BA104E0A1
:1044F000E10701D09AA100E09AA1430011985B085E
:10450000109165280CD006DC452809D046281DD01E
:10451000472841D141E0662818D067283CD13CE0CB
:104520000021112F01DB112000E0781C0191009087
:1045300008A911A8FFF7E8FC139905910021119A29
:1045400015927F1C12980197009150E00120C0073E
:1045500003900120019008A9009711A8FFF7D4FC4F
:10456000139A149905920022119B009212981593A8
:10457000059A0192002901D0104602E0791C4018EA
:104580000190381A01D5019804E04042401E009085
:10459000781C0190C01B029043E0012F00DA012734
:1045A0000021112F01DD112000E03846019100901B
:1045B00008A911A8FFF7A8FC13990591119A0021E9
:1045C000129815920091019721070CD40599B942D0
:1045D00001DB019900E00191012904DD159A491ED2
:1045E000515C302906D0B84201DA011D05DA0121FB
:1045F000029115E00199491EEDE7002805DC0099BC
:10460000411800910199091A03E0019A411C914255
:1046100000DD01910099401A401C02900120C00762
:104620000390200706D402990198814202DB002002
:10463000C043029000206946C87707AF0121039864
:104640000337C907884224D0022011902B201290F2
:10465000039800280CDA404203902D20129007E0C6
:104660000A210398FBF742FD30317F1E0390397019
:104670001199481E11900029F2DC03980028EFD10F
:10468000791E129808703078202108404530BF1EEE
:10469000387006A8C01BC01D039010980078002831
:1046A00000D00120019941180298C01709180398F9
:1046B00009180498401A401E0490E00306D42146CD
:1046C0001A9B199A049800F05FF845191098007821
:1046D000002803D01A9A199990476D1CE00324D53D
:1046E00021461A9B199A049800F04EF845191CE0CF
:1046F0000098002807DB00990598884203DD15988B
:10470000405C199901E0199930201A9A9047009855
:104710006D1C401C00900298401E0290002804D19D
:104720001A9A2E20199990476D1C0199481E0190E4
:104730000029DDDC05E038781A9A7F1C199990472A
:104740006D1C0399481E03900029F4DC21461A9B36
:10475000199A0498ACE600002D0000002B00000020
:104760002000000000000000F8B5044600251E46A9
:104770001746880404D405E039462020B0476D1C54
:10478000641EF9D52846F8BDFFB50446002581B062
:104790001E46C80301D5302700E02027880404D531
:1047A00005E038460399B0476D1C641EF9D52846CC
:1047B00005B0F0BD70B5064600251120FEF702FFDA
:1047C00000B200281FDBC406E40E00F03BF840B244
:1047D000002818D1002E0ED01120FEF7F3FE40B2B3
:1047E000C106C90EA14206D000280CDB6D1CEDB23B
:1047F0000C46052DE9D3012231460B20FEF71AFFA6
:10480000002801D0012070BD0025002E0DD0112000
:10481000FEF7D8FE40B2C106C90EA14205D100285C
:10482000F1DB6D1CEDB2052DEFD3002070BD4A68A1
:10483000002A06D00A68531C0B6010704868401E9E
:104840004860704710B500241120FEF7BBFE00B28F
:104850000106490F012905D0002804DB641CE4B2DD
:10486000052CF1D3002010BD820710B5920F032153
:104870000F2000F087FE10BD012110B58902084B02
:10488000002806D0012806D01846FCF744FF002077
:1048900010BD002200E001221846FCF740FFF6E7B9
:1048A0000004004800B585B0002268460273332139
:1048B000417301218173C27301748A1E052103A80B
:1048C0000292019100900123882236210248FDF7CF
:1048D0008FF8002005B000BD98020020F0B585B02B
:1048E00000240746E443062503AE01235522362162
:1048F0001C48009601950294FCF71EFF68468189CA
:10490000C289008A002F26D00A310A3289B293B2B6
:104910000A3082B2FF20F530814200D9014683423D
:1049200000D90346824200D9024668460173090A4B
:1049300041738373190AC1730274110A417401230C
:10494000542236210748009601950294FDF750F84D
:10495000002005B0F0BD0A390A3A89B293B20A388C
:10496000D7E7000098020020F0B500268BB0F64390
:10497000012403AF02280DD301230622362151481A
:10498000009702960194FCF7D7FE6846017B20460B
:10499000884300E0C0B20590002802D001280BD166
:1049A00005E0052000022D252D01099003E0464871
:1049B000FF25E1350990079068460473012316220C
:1049C00036214048009702960194FDF711F8684699
:1049D000047301231A2236213A4800970296019463
:1049E000FDF706F8432168460173012307223621AB
:1049F0003448009702960194FCF7FAFF684609993B
:104A0000017309980123010A684641738573290AD5
:104A1000C173042001902E22362100970296294866
:104A2000FCF7E6FF00200390684607990174079899
:104A30000123010A684641748574290AC174082556
:104A4000102236211F48009702960195FCF7D0FFEF
:104A50000020039056216846017403214174E0212F
:104A60008174C474012312223621164800970296DD
:104A70000195FCF7BDFF68460599017301230522E6
:104A800036211048009702960194FCF7B1FF0021EF
:104A90006846017301231A2236210A4800970296BC
:104AA0000194FCF7A5FF002168460173012316223B
:104AB00036210448009702960194FCF799FF0020E4
:104AC0000BB0F0BD9802002056030000F1B586B08F
:104AD0000024E443052703AD01238922362126481B
:104AE000019700950294FCF727FE6846007B00269C
:104AF000C00700281DD1012168460173332242738B
:104B00008173C67301740B46882236211A480197B7
:104B100000950294FCF76CFF68460673467302200A
:104B200001900123BB223621009502941248FCF724
:104B30005FFF02270123BC2236210F480197009511
:104B40000294FCF7F9FD68460673417B069800283D
:104B500001D0012000E0204608186946487301236F
:104B6000BB2236210448019700950294FCF740FFD0
:104B7000002007B0F0BD0000980200207FB500269D
:104B80000125F64303AC2B46152236210D4802962B
:104B900001950094FCF7D0FD6946087B0622811C34
:104BA0001140F922104008186946087301231422A5
:104BB00036210448029601950094FCF719FF002065
:104BC00004B070BD98020020F0B589B0002069469D
:104BD0000877461E042505AC6F4670C70123D12215
:104BE00036213D48FCF7A8FD002809D16846C07D64
:104BF00000906846837D427D017D3848FCF748F986
:104C000001273B46D422362133480197029600946F
:104C1000FCF792FD002804D16846017D30A0FCF726
:104C200037F9019702AF70C707A800900123D5227A
:104C300036212948FCF72CFE002809D16846C07DA2
:104C400000906846837D427D017D2C48FCF720F969
:104C50006F4670C70123D22236211F48FCF76CFD36
:104C6000002809D16846C07D00906846837D427D5A
:104C7000017D23A0FCF70CF96F4670C70123D922F0
:104C800036211548FCF758FD002809D16846C07D3B
:104C900000906846837D427D017D2948FCF7F8F845
:104CA00006200190012355223621029600940A48DD
:104CB000FCF742FD00280CD16846427E017EC07D93
:104CC0006B4607C36846837D427D017D1DA0FCF7CE
:104CD000DFF8002009B0F0BD98020020FC58000861
:104CE000436F6E74726F6C6C657220446576696395
:104CF000652049442030782530325800B4580008E7
:104D00007377207061746368204C5342203078259B
:104D10003032582C204D5342203078253032583BC9
:104D2000207377204D696E6F7220307825303258AD
:104D30002C204D616A6F7220307825303258000087
:104D400044590008524544203078253032582C20F0
:104D50003078253032583B20477265656E203078B8
:104D6000253032582C203078253032583B20426C88
:104D70007565203078253032582C20307825303237
:104D800058000000F0B585B000270124FF4303ADB3
:104D90002346062236213348029700950194FCF7FA
:104DA000CBFC6846007B8007800F012857D1062086
:104DB000019001230C223621029700952948FCF727
:104DC000BBFC69460E7B09213007000F401CFBF736
:104DD0008DF9300900010818694602070873120F9F
:104DE0000020102670211300FFF771F809060A0A47
:104DF0001017101D252F300068464673022425E049
:104E00006A4651739073FF20D07304E06846417383
:104E10008473092105E0042418E0684641731F21CA
:104E20008173C173F7E76A4651739473D073147436
:104E3000507406240AE06A46517396730C21D073AD
:104E4000117450749074072400E0012401230B2294
:104E500036210448029700950194FCF7C9FD002013
:104E600005B0F0BD98020020F0B52027002489B0DD
:104E700025467D22D200082106A86E4607C60123DA
:104E80002A46A0211348FCF757FC060006D0E10093
:104E900011A0FBF7FDFF304609B0F0BD6846C37FA7
:104EA000827F417F007F059302AB07C36846C17EC6
:104EB000807E019100906846437E027EE1000E48AC
:104EC000FBF7E6FF641C0835E4B2EDB2BC42D0D378
:104ED000E1E7000098020020454449442052656102
:104EE00064206572726F7220696E20726F77203055
:104EF00078253032580000008C590008F0B587B092
:104F00002020049000207D26F60004460827039008
:104F10001D48012305192246A0211C48019702962D
:104F20000095FCF765FD002802D0214618A00DE091
:104F300005A8009001232246A0210197029613485C
:104F4000FCF7FAFB002806D021461BA0FBF7A0FFC8
:104F5000012007B0F0BD2946082205A8FBF718F983
:104F6000002802D021461DA0F0E703980834401C19
:104F7000C0B20499E4B203908842C9D321A0FBF7E0
:104F800087FF0020E5E7000048000020980200208D
:104F90004544494420577269746520777269746585
:104FA000206572726F7220696E20726F7720307880
:104FB00025303258000000004544494420577269AA
:104FC00074652072656164206572726F7220696E0B
:104FD00020726F772030782530325800454449449C
:104FE00020577269746520636865636B206572720F
:104FF0006F7220696E20726F7720307825303258BA
:1050000000000000454449442057726974652073CC
:1050100075636365737366756C21000010B5044C8D
:1050200001212170A060FCF781FB606010BD0000D1
:1050300048010020034900200870034964200968E2
:105040008863704748010020E8010020642800D9E7
:10505000642002490968886370470000E801002065
:105060001FB503AAFF210A2000F054FA6846017B0D
:1050700098A0FBF70DFF03AAFF210B2000F04AFACE
:105080006846017B99A0FBF703FF03AAFF2151208B
:1050900000F040FA6846017B9AA0FBF7F9FE03AAEC
:1050A000FF21712000F036FA6846017B9BA0FBF7D8
:1050B000EFFE012203210F2000F064FA03AAFF2172
:1050C000B02000F027FA002203210F2000F05AFA46
:1050D0006846017B97A0FBF7DBFE03AAFF215B205C
:1050E00000F018FA6846017B96A0FBF7D1FE03AAF0
:1050F000FF21102000F00EFA6846017B97A0FBF715
:10510000C7FE03AAFF21912000F004FA6846017B44
:1051100097A0FBF7BDFE0120FFF7A6FB7D22012132
:10512000D20003A86C4607C40B46D42290219748AE
:10513000FCF702FB0020FFF797FB6846017B94A079
:10514000FBF7A6FE03AAFF21992000F0E3F96846C9
:10515000017B92A0FBF79CFE03AAFF219A2000F09E
:10516000D9F96846017B90A0FBF792FE91A0FBF76E
:105170008FFE03AAFF21C02000F0CCF96846017B16
:105180008FA0FBF785FE03AAFF21C12000F0C2F922
:105190006846017B8FA0FBF77BFE03AAFF21C2209C
:1051A00000F0B8F96846017B8FA0FBF771FE03AAF7
:1051B000FF21C32000F0AEF96846017B8FA0FBF70A
:1051C00067FE03AAFF21C42000F0A4F96846017B12
:1051D0008FA0FBF75DFE03AAFF21C52000F09AF91E
:1051E0006846017B8FA0FBF753FE03AAFF21C62070
:1051F00000F090F96846017B8FA0FBF749FE03AAF7
:10520000FF21C72000F086F96846017B8FA0FBF7DD
:105210003FFE03AAFF21C82000F07CF96846017B0D
:105220008FA0FBF735FE03AAFF21C92000F072F919
:105230006846017B8FA0FBF72BFE03AAFF21D1203C
:1052400000F068F96846017B8FA0FBF721FE03AAF6
:10525000FF21AA2000F05EF96846017B8FA0FBF7D2
:1052600017FE03AAFF21AB2000F054F96846017B2A
:105270008DA0FBF70DFE03AAFF21AC2000F04AF938
:105280006846017B8BA0FBF703FE03AAFF21AD203C
:1052900000F040F96846017B89A0FBF7F9FD03AAFD
:1052A000FF21AE2000F036F96846017B87A0FBF7AE
:1052B000EFFD03AAFF21AF2000F02CF96846017B27
:1052C0008BA0FBF7E5FD03AAFF217B2000F022F96C
:1052D0001FBD0000496E707574207374617475731E
:1052E000283041293A20253032580000496E707527
:1052F0007420737461747573283042293A20253004
:1053000032580000496E70757420706F72742835C1
:1053100031293A20253032580000000053434454CC
:105320005F436867206D6F6465283731293A20250F
:105330003032580048504428314230293A20253034
:1053400032580000454E56425553204374726C2823
:105350003542293A2025303258000000454E564249
:105360005553283130293A202530325800000000AA
:1053700050305F544D4453434C4B53706565642823
:105380003931293A20253032580000009802002097
:10539000307844343A20253032580000307839399A
:1053A0003A20253032580000307839413A202530F3
:1053B000325800004544494420526567733A000062
:1053C0004544494420526567732043303A202530D4
:1053D00032580000454449442052656773204331E8
:1053E0003A20253032580000454449442052656730
:1053F000732043323A202530325800004544494456
:1054000020526567732043333A202530325800001C
:105410004544494420526567732043343A2025307F
:105420003258000045444944205265677320433593
:105430003A202530325800004544494420526567DF
:10544000732043363A202530325800004544494401
:1054500020526567732043373A20253032580000C8
:105460004544494420526567732043383A2025302B
:10547000325800004544494420526567732043393F
:105480003A2025303258000045444944205265678F
:10549000732044313A2025303258000030784141A1
:1054A0003A20253032580000307841423A202530E9
:1054B00032580000307841433A20253032580000FD
:1054C000307841443A202530325800003078414548
:1054D00020417564696F5F43485F537461747573ED
:1054E0005B33313A32345D3A2025303258000000C7
:1054F0003078414620417564696F5F43485F53745B
:10550000617475735B33393A33325D3A202530323A
:10551000580000003EB515000C460DD001227D213B
:10552000C900134601920291024600959021144849
:10553000FCF702F9002801D001203EBD600617D01B
:10554000A00613D0E0060FD020070BD0600707D0CD
:10555000A00703D0E007C017401C0AE0022008E0C3
:10556000032006E0042004E0052002E0062000E01D
:10557000072029782140C140297000203EBD00004D
:1055800098020020F7B584B07D2501260C46ED0079
:1055900003AF334600970196029590210D48049A77
:1055A000FCF7CAF8002812D16846007B0699A04390
:1055B0000C4001196846017301230097019602957A
:1055C00090210448049AFCF713FA002800D0012027
:1055D00007B0F0BD98020020F8B51425254C6428CA
:1055E0001AD821461138002249780300FEF76FFCD3
:1055F00005040B14141014001431C8B26070642830
:105600000AD9642010E0142905D91439617003E027
:105610006425002907D062706078A178164F88420F
:1056200015D800260BE028206070F5E7401EC0B2B8
:105630006070396888631920FBF7A8FF761CAE42BA
:1056400015DA6078002812D06428EFD30FE0002626
:1056500008E0401CC0B26070396888631920FBF70D
:1056600095FF761CAE4202DA60786428F1D3607848
:10567000A070F8BD48010020E801002010B50B48DB
:10568000FBF7EAFE0446FAF7E3FD0949FAF797FD4E
:105690000B21C943FAF7D0FDFAF7E1FD02460B46AC
:1056A000214604A0FBF7F4FB002010BD7801002088
:1056B0003333534054656D70657261747572653A29
:1056C0002025642C20256600F8B506461420FDF739
:1056D00079FF04461320FDF775FF000225181620F8
:1056E000FDF770FF04461520FDF76CFF000224183B
:1056F0001820FDF767FF07461720FDF763FF00023C
:105700003918358074800C48B180028AAA4201D3CE
:10571000002300E0AB1A828A8A4201D3002200E013
:105720008A1A408AA04201D3002100E0211A03A076
:10573000FBF7AEFBF8BD000088040020253564208F
:1057400020253564202025356400000010B5402850
:105750002FD015DC162838D00ADC07282FD00828CF
:105760003BD009282ED00C281FD1022103203CE079
:1057700018281BD019282BD01C2816D1002130E066
:10578000472812D007DC42282DD0432814D04428C3
:105790000BD100210EE04A282AD05A2820D05E28BA
:1057A00003D100210846FBF78DFA10BD022100202D
:1057B0001BE00121052018E00021042015E0002154
:1057C0000A2012E0002101200FE00021084601E03C
:1057D00000210120FBF73CFA10BDFFF74FFF10BD81
:1057E00001210C2001E000210B20FBF707FA10BD7E
:1057F000FCF702FA10BD70B515460E460446FDF7DB
:10580000DCFB6000401CC0B2FDF7B0FB002404E0EC
:105810000020FDF761FB3055641CAC42F8DBFDF75E
:10582000DEFB70BD70B515460E460446FDF7C5FBA0
:105830006006000EFDF79AFB002403E0305DFDF7E3
:1058400095FB641CAC42F9DBFDF7C9FB70BD7047EA
:10585000FCF780F9FDF702FFFDF70EFCFDF7BCFC3D
:10586000FDF7ECFBFDF762FCFBF71EFAFBF702FB12
:10587000FBF7BCFAFAF7FEFF05A0FBF709FBFBF705
:1058800063F9FBF72DFBFBF7C1FAFBF7B3FBF8E776
:105890007374617274696E672E2E2E000000000012
:1058A00000000000010203040607080900000000D0
:1058B00001020304444D4420646576696365204910
:1058C00044204279746531203078253032582C20BC
:1058D0004279746532203078253032582C20427954
:1058E000746533203078253032582C204279746525
:1058F000342030782530325800000000537973741A
:10590000656D20537461747573204279746531201C
:105910003078253032582C20427974653220307826
:10592000253032582C204279746533203078253068
:1059300032582C2042797465342030782530325822
:1059400000000000666C61736820706174636820F9
:105950004C5342203078253032582C204D53422071
:105960003078253032583B20666C617368204D6971
:105970006E6F72203078253032582C204D616A6F5E
:10598000722030782530325800000000726F772086
:105990003078253032583A2030782530325820304F
:1059A000782530325820307825303258203078250C
:1059B0003032582030782530325820307825303237
:1059C0005820307825303258203078253032580031
:1059D000F059000800000020780100001C080008B1
:1059E000B85A000878010020D8080000F83E0008E6
:1059F0000120320113D90C3308031AC508320413ED
:105A0000FD0B3308051AAD0832081A7118815A02C5
:105A1000015A04015A06015A08015A0A015A0B0197
:105A20005A0C015A0D015A0E015A0F0111321E1261
:105A3000FC180B49544536383031200A200129839F
:105A40001116307A1F410F3910180A202001440224
:105A5000031B4183AD1465030C1210201D48840202
:105A6000031112132A3023090707160D606A30E06C
:105A70005F100428FF0760E031380F1E440C5636D3
:105A800030E06010EA280FC356121E47098030200C
:105A9000242008E428FFCF80E021143E9E20200926
:105AA0009051201F30488036232053021C1AC269AF
:085AB000192D011E13127A00EA
:04000005080000BD32
:00000001FF
