:020000040800F2
:1000000000040020D500000825020008B301000804
:1000100000000000000000000000000000000000E0
:10002000000000000000000000000000490200087D
:10003000000000000000000027020008CD020008B8
:10004000E7000008E7000008E7000008E7000008F4
:10005000E7000008E7000008E7000008E7000008E4
:10006000E7000008E7000008E7000008E7000008D4
:10007000E7000008E7000008E7000008E7000008C4
:10008000E7000008E700000800000000E7000008A3
:10009000E7000008E7000008E7000008E7000008A4
:1000A000E7000008E7000008E7000008E700000894
:1000B000E700000800000000E70000080000000062
:1000C0000348854600F014F8004800476D03000817
:1000D000000400200448804704480047FEE7FEE78C
:1000E000FEE7FEE7FEE7FEE7D1020008C1000008D8
:1000F000064C0125064E05E02046E36807C82B4361
:1001000098471034B442F7D3FFF7DEFFEC03000842
:10011000FC03000800E0401E0028FCD17047F0B549
:100120000A4600210023002400BF3DE001258D4048
:100130002B4615681D402C469C4234D11579012D63
:1001400002D01579022D16D185684F000326BE40D6
:10015000B543856055794E00B54086683543856066
:10016000858801268E40B5438580858896798E40A6
:10017000B6B23543858005684F000326BE40B543BF
:10018000056015794E00B540066835430560C568C1
:100190004F000326BE40B543C560D5794E00B5403B
:1001A000C6683543C560491C1029BFD3F0BD8182A4
:1001B000704700BFFEE700001CB501212F2040045E
:1001C00000F032F8114800900121684601710021C9
:1001D00081710121C1710321417169460C48FFF70A
:1001E0009EFF69460B48FFF79AFF69460A48FFF7EA
:1001F00096FF69460948FFF792FF09480090694653
:100200000920C006FFF78BFF1CBD0000FFFF0000A8
:100210000004004800080048000C00480014004892
:10022000FF99000070477047002905D0054A5269C0
:100230000243044B5A6104E0024A52698243014B73
:100240005A617047001002407047000000200021F2
:1002500011221C4B1A601C4A52681B4B5A601A46EA
:1002600052685A601A4652683F231B049A43164B41
:100270005A601A4652680523DB041A43124B5A602F
:100280001A46126801231B061A430F4B1A6000BF5F
:100290000D4A126801235B061A42F9D00A4A5268D5
:1002A00092089200084B5A601A46526802231A4379
:1002B000054B5A6000BF044A52680C231A40082AB2
:1002C000F9D1704700200240001002407047000042
:1002D00010B51B4800680121084319490860084609
:1002E00040681849084016494860084600681649A1
:1002F00008401349086008460068012189048843C2
:100300000F490860084640683F21090488430C49AA
:1003100048600846C06A00090001C8620846006BD0
:10032000FF2154318843064908630846406B400862
:100330004000486300208860FFF788FF10BD000080
:10034000001002400CB8FFF8FFFFF6FE02E008C8FC
:10035000121F08C1002AFAD170477047002001E03F
:1003600001C1121F002AFBD170470000FFF724FFD4
:1003700031E019490920C006FFF719FF164917484F
:10038000FFF715FF14491648FFF711FF12491548EA
:10039000FFF70DFF10491448FFF709FF0120400542
:1003A000FFF7B8FE00210920C006FFF700FF00217B
:1003B0000A48FFF7FCFE00210948FFF7F8FE00217C
:1003C0000848FFF7F4FE00210748FFF7F0FE012080
:1003D0004005FFF79FFECCE7FFFF00000004004848
:1003E00000080048000C004800140048FC03000806
:0C03F00000000020000400005C03000876
:04000005080000C12E
:00000001FF
