:020000040800F2
:10000000400400209D010008710500083B03000822
:100010006D050008E5010008590A0008000000000D
:10002000000000000000000000000000B50600080D
:10003000E90100080000000089050008A507000884
:10004000B7010008B7010008B7010008B7010008B0
:10005000B7010008B7010008B7010008B7010008A0
:10006000B7010008B7010008B7010008B701000890
:10007000B7010008B7010008B7010008B701000880
:10008000B7010008B7010008B7010008B701000870
:10009000B7010008B7010008B7010008B701000860
:1000A000B7010008B7010008B7010008B701000850
:1000B000B7010008B7010008B7010008B701000840
:1000C000B7010008B7010008B7010008B701000830
:1000D000B7010008B7010008B7010008B701000820
:1000E000B7010008B7010008B7010008B701000810
:1000F000B7010008B7010008B7010008B701000800
:10010000B7010008B7010008B7010008B7010008EF
:10011000B7010008B7010008B7010008B7010008DF
:10012000B7010008B7010008B7010008B7010008CF
:10013000B7010008B7010008B7010008B7010008BF
:10014000B7010008B7010008B7010008B7010008AF
:10015000B7010008B7010008B7010008B70100089F
:10016000B7010008B7010008B7010008B70100088F
:10017000B7010008B7010008B7010008B70100087F
:10018000B7010008B7010008DFF80CD000F018F83C
:1001900000480047B10B0008400400200648804793
:1001A00006480047FEE7FEE7FEE7FEE7FEE7FEE75C
:1001B000FEE7FEE7FEE7FEE7710800088901000898
:1001C000064C074D06E0E06840F0010394E80700A4
:1001D00098471034AC42F6D3FFF7DAFFA40D0008BD
:1001E000C40D000800BFFEE77047000030B513489B
:1001F0000068134AB0FBF2F1481EB0F1807F00D3D3
:100200001BE0481E4FF0E022506150170F220028DB
:1002100007DA13071D0E0B4B00F00F04241F1D55AA
:1002200003E013071C0E084B1C5400BF00204FF0C6
:10023000E02290610720106100BF30BD1400002053
:1002400040420F0018ED00E000E400E003490860C0
:1002500000BF024909680029FBD170470000002057
:10026000F0B50A4600210023002400BF3DE001252F
:1002700005FA01F3156805EA03049C4234D10568C8
:100280004F000326BE40B543056015794E00B540CA
:100290000668354305601579012D02D01579022DC8
:1002A00016D185684F000326BE40B5438560557959
:1002B0004E00B540866835438560456801268E400E
:1002C000B5434560456896798E40B6B23543456082
:1002D000C5684F000326BE40B543C560D5794E00C2
:1002E000B540C6683543C560491C1029BFD3F0BD71
:1002F000F0B5002300244D07ED0E02FA05F3CE10F1
:1003000000F1200555F826504E07F70E0F26BE4087
:10031000B543CF1000F1200646F82750CE1000F16B
:10032000200555F8265045EA0304CE1000F12005BB
:1003300045F82640F0BD4183704700BFFEE700004E
:100340001CB50121102000F021F900208DF80400D7
:1003500001208DF8070000208DF805001020009086
:1003600069460248FFF77CFF1CBD000000100240F8
:100370001CB50121102000F009F901208DF80400BE
:1003800000208DF806008DF807008DF8050040F27A
:10039000AE30009069460448FFF762FF40F2AE318C
:1003A0000148FFF7C8FF1CBD0010024010B5012036
:1003B000FFF74CFF1A490878C11700EB5171C910BB
:1003C000A0EBC10111B90820164908830220154984
:1003D00008830120FFF73AFF042012490883012017
:1003E000FFF734FF0E490878C11700EB5171C910AF
:1003F000A0EBC10111B908200A494883022009492C
:1004000048830420488306480078401C044908704B
:100410000320FFF71BFF00200349086010BD000008
:100420000F00002000100240040000202DE9F041E0
:100430000120054683E000247CE043480078A84280
:1004400076D142480078A04272D10120FFF7FEFE2B
:1004500000263BE0002735E04FF4004040FA07F863
:1004600026B90F2F02D180203949088339480088E6
:1004700000EA0800A0B1072C12DD0F2C0BD0082CCD
:1004800009D0012D07D0082D05D0601B072802D008
:100490006019102804D14FF480702D49088303E0BF
:1004A0004FF480702A4948830120FFF7CFFE2020B7
:1004B000274908830120FFF7C9FE202024494883EB
:1004C000781C87B2102FC7DB701C86B2012EC1DBEF
:1004D00080201F494883400048830120FFF7B6FE73
:1004E0001A4800780F280BD117480078082807D140
:1004F000002016490870012013490870BDE8F081FA
:10050000124800780F2808D10020104908700E48C2
:100510000078401C0C49087004E00C480078401C2E
:100520000A4908706420FFF791FE0020E6E7FFE724
:10053000601C84B2102C80DB681C80B20546082D3C
:100540007FF779AF00BFD9E710000020110000202D
:10055000001002400C00002010B500F05BFB00F022
:100560007BFB00F057FB00F0B7FB10BD00BFFEE7C0
:100570007047000002490143024A116070470000C1
:100580000000FA050CED00E07047000029B1064AB2
:1005900012680243044B1A6004E0034A1268824363
:1005A000014B1A60704700003038024029B1064AFA
:1005B00012680243044B1A6004E0034A1268824343
:1005C000014B1A607047000044380240F0B500212A
:1005D00000220024022500260223324F3F6807F044
:1005E0000C0121B1042905D0082937D105E02E4F8F
:1005F000076036E02D4F076033E02A4F3F1F3F680A
:10060000C7F38056274F3F1F3F6807F03F036EB187
:10061000264FB7FBF3F7DFF88CC0ACF1040CDCF825
:1006200000C0CCF3881C07FB0CF40CE01E4FB7FB9A
:10063000F3F7DFF870C0ACF1040CDCF800C0CCF3C9
:10064000881C07FB0CF4174F3F1F3F68C7F3014797
:100650007F1C7D00B4FBF5F7076002E0124F0760D6
:1006600000BF00BF0F4F3F6807F0F0010909104FAE
:100670007A5C0768D74047600A4F3F6807F4E0514B
:10068000890A0B4F7A5C4768D7408760054F3F68FF
:1006900007F46041490B064F7A5C4768D740C76052
:1006A000F0BD0000083802400024F40000127A0077
:1006B00028000020704700000CB500200190009039
:1006C0003448006840F480303249086000BF314847
:1006D000006800F4003000900198401C01900098E0
:1006E00018B90198B0F5A04FF1D12A48006800F47C
:1006F000003010B10120009001E00020009000982F
:10070000012846D123484030006840F080502149FC
:10071000403108602048006840F440401E490860AD
:100720001C48083000681B4908310860084600680A
:1007300040F4004008600846006840F4A05008609B
:100740001648091F0860081F006840F08070091FE4
:10075000086000BF0F48006800F000700028F9D062
:1007600040F205700E4908600A480830006820F021
:1007700003000849083108600846006840F002009C
:10078000086000BF03480830006800F00C0008282B
:10079000F8D10CBD003802400070004008544007FA
:1007A000003C024010B500F097F800F0D7F910BDFA
:1007B00070B500200022022300240221274D2D685D
:1007C00005F00C0020B1042806D0082834D107E039
:1007D000234D244E356033E0234D224E35602FE00B
:1007E0001E4D2D1F2D68C5F380541C4D2D1F2D68E7
:1007F00005F03F0154B11C4DB5FBF1F5174E361F06
:100800003668C6F3881605FB06F209E0144DB5FB01
:10081000F1F5124E361F3668C6F3881605FB06F250
:100820000E4D2D1F2D68C5F301456D1C6B00B2FBED
:10083000F3F50C4E356003E0094D0A4E356000BFFC
:1008400000BF064D2D68C5F30315084E705D054DBC
:100850002D68C540034E356070BD00000838024069
:100860000024F4001400002000127A001800002078
:1008700010B51548006840F470001349086013482B
:10088000006840F001001149086000200F4908315C
:1008900008600E4800680E4908400C4908600D4881
:1008A000091D0860081F006820F48020091F0860E7
:1008B000002006490C310860FFF7FEFE4FF0006093
:1008C00001498039086010BD88ED00E00038024021
:1008D000FFFFF6FE103000240448006820B10348F2
:1008E0000068401E014908607047000000000020B9
:1008F00021B1828942F40052828104E082894DF65E
:10090000FF731A40828170471CB501210846FFF72A
:100910003DFE02208DF8040000208DF80600012025
:100920008DF8070000208DF805004FF4007000904E
:1009300069460A48FFF794FC4FF4806000906946CE
:100940000648FFF78DFC072209210448FFF7D0FC79
:1009500007220A210148FFF7CBFC1CBD0000024022
:1009600002460020B1F5007F00D100BF13880B4084
:100970000BB1012000E00020704700002DE9FF4787
:1009800005460E460024A14600BFA046B08900B12E
:1009900000BF2C8A24F44054F08804432C82AC8994
:1009A00041F20C608443B08831890843718908435F
:1009B0000443AC81AC8A24F44074B0890443AC8213
:1009C0006846FFF703FE2048854202D01F48854253
:1009D00002D1DDF80C9001E0DDF80890A88900F460
:1009E000004040B109EBC90000EB09103168490033
:1009F000B0FBF1F707E009EBC90000EB0910316823
:100A00008900B0FBF1F76420B7FBF0F00401200986
:100A1000642101FB1078A88900F4004040B1322025
:100A200000EBC800B0FBF1F000F00700044308E061
:100A3000322000EB08106421B0FBF1F000F00F0051
:100A400004432C81BDE8FF870010014000140140E1
:100A5000C1F308028280704700BFFEE71FB5012185
:100A60001020FFF7A3FDFFF74FFF4FF4E130009098
:100A70000020ADF80400ADF80600ADF808000C2029
:100A8000ADF80A000020ADF80C0069460348FFF7F6
:100A900075FF01210148FFF72BFF1FBD001001402A
:100AA000014A024900F013B8390B00083800002051
:100AB00002E008C8121F08C1002AFAD17047704727
:100AC000002001E001C1121F002AFBD170472DE96F
:100AD000F04116460F460446002503E03946B0476C
:100AE000641C6D1C20780028F8D12846BDE8F081F0
:100AF00010B51048007808B100F02EF9FFF756FC49
:100B00000C48007880B1FFF727FD002406E0FFF7CE
:100B10004DFC8720FFF79AFB601C84B2072CF6DBA4
:100B200000200449087003E0FFF780FC01490870C9
:100B300010BD00001200002070B504460D46E1B261
:100B40000548FFF785FF00BF80210348FFF708FF36
:100B50000028F9D0204670BD0010014011480068FF
:100B600081281DD210480078002819D04FF4007059
:100B70000E49088308830883088308830883088351
:100B8000088308830883088308830883088305484B
:100B90000068401C034908604FF400700349488313
:100BA00070470000040000200B00002000100240ED
:100BB00000BFFFF75DFEFFF719FBFFF7C1FBFFF773
:100BC0004DFFFFF7D5FB09A0FFF76AFFFFF7F0FD28
:100BD0004FF4A060FFF7CEFC08A0FFF761FF0020F4
:100BE0000B49087001E0FFF783FFFCE7737973742A
:100BF000656D2073746172742E0D0A0061667465F0
:100C000072206D626920696E69740D0A000000002F
:100C10000B00002010B580200E4908830120FFF74B
:100C200015FB0E240CE020200A4908830120FFF761
:100C30000DFB2020074948830120FFF707FB641EB6
:100C4000002CF0D18020034948830220FFF7FEFAF0
:100C500010BD0000001002402DE9F04140F2EB779A
:100C600000252BE0002425E04FF4004040FA04F674
:100C70003DB90C2C05D18020164908830120FFF7CF
:100C8000E5FA07EA060020B14FF4807011490883A5
:100C900003E04FF480700F4948830120FFF7D6FA34
:100CA00020200C4908830120FFF7D0FA20200949B1
:100CB0004883641C102CD7D3681C85B2012DD1DB6E
:100CC000802004494883400048830220FFF7BEFA91
:100CD000BDE8F081001002402DE9F0414FF480673B
:100CE00000252BE0002425E04FF4004040FA04F6F4
:100CF0003DB9082C05D18020164908830120FFF753
:100D0000A5FA07EA060020B14FF480701149088364
:100D100003E04FF480700F4948830120FFF796FAF3
:100D200020200C4908830120FFF790FA2020094970
:100D30004883641C102CD7D3681C85B2012DD1DBED
:100D4000802004494883400048830220FFF77EFA50
:100D5000BDE8F0810010024010B56420FFF776FA7C
:100D600080200E49088300240CE00120FFF76EFA72
:100D700020200A4908830120FFF768FA202007494C
:100D80004883641C022CF0D380200449488301204E
:100D9000FFF75CFA01200249087010BD0010024004
:100DA0000B000020C40D0008000000203C000000E3
:100DB000B00A0008000E00083C00002004040000F7
:100DC000C00A000800000000FF0000000000010150
:100DD000FF03000001000100007A030A0000000088
:100DE00000000000010203040607080900000000DB
:100DF00001020304010203040607080900000000C1
:040000050800018965
:00000001FF
