:020000040800F2
:10000000E80400209D0100082D060008DB0300081D
:100010002906000885020008310B000800000000D6
:100020000000000000000000000000007107000850
:100030008902000800000000450600087908000851
:10004000B7010008B7010008B7010008B7010008B0
:10005000B7010008B7010008B7010008B7010008A0
:10006000B7010008B7010008B7010008B701000890
:10007000B7010008B7010008B7010008B701000880
:10008000B7010008B7010008B7010008B701000870
:10009000B7010008B7010008B7010008B701000860
:1000A000B7010008B7010008B7010008B701000850
:1000B000B7010008B7010008B7010008B701000840
:1000C000B7010008B7010008B7010008B701000830
:1000D000B7010008B7010008B7010008B701000820
:1000E000B7010008B7010008B7010008B701000810
:1000F000B7010008B7010008B7010008B701000800
:10010000B7010008B7010008B7010008B7010008EF
:10011000B7010008B7010008B7010008B7010008DF
:10012000B7010008B7010008B7010008B7010008CF
:10013000B7010008B7010008B7010008B7010008BF
:10014000B7010008B7010008B7010008B7010008AF
:10015000B7010008B7010008B7010008B70100089F
:10016000B7010008B7010008B7010008B70100088F
:10017000B7010008B7010008B7010008B70100087F
:10018000B7010008B7010008DFF80CD000F068F8EC
:1001900000480047790D0008E80400200648804721
:1001A00006480047FEE7FEE7FEE7FEE7FEE7FEE75C
:1001B000FEE7FEE7FEE7FEE74909000889010008BF
:1001C0002DE9F05F0546002092469B46884606468C
:1001D000814640241BE0284641464746224600F01F
:1001E0002FF853465A46C01A914110D3114618466B
:1001F000224600F016F82D1A67EB01084F462246FA
:100200000120002100F00DF817EB00094E41201EDF
:10021000A4F10104DFDC484631462A464346BDE8E6
:10022000F09F202A04DB203A00FA02F100207047F8
:100230009140C2F1200320FA03F319439040704724
:10024000202A04DB203A21FA02F00021704721FA2B
:1002500002F3D040C2F12002914008431946704792
:10026000064C074D06E0E06840F0010394E8070003
:1002700098471034AC42F6D3FFF78AFF900F00087E
:10028000B00F000800BFFEE77047000030B513480C
:100290000068134AB0FBF2F1481EB0F1807F00D332
:1002A0001BE0481E4FF0E022506150170F2200283B
:1002B00007DA13071D0E0B4B00F00F04241F1D550A
:1002C00003E013071C0E084B1C5400BF00204FF026
:1002D000E02290610720106100BF30BD4000002087
:1002E00040420F0018ED00E000E400E00349086020
:1002F00000BF024909680029FBD17047280000208F
:10030000F0B50A4600210023002400BF3DE001258E
:1003100005FA01F3156805EA03049C4234D1056827
:100320004F000326BE40B543056015794E00B54029
:100330000668354305601579012D02D01579022D27
:1003400016D185684F000326BE40B54385605579B8
:100350004E00B540866835438560456801268E406D
:10036000B5434560456896798E40B6B235434560E1
:10037000C5684F000326BE40B543C560D5794E0021
:10038000B540C6683543C560491C1029BFD3F0BDD0
:10039000F0B5002300244D07ED0E02FA05F3CE1050
:1003A00000F1200555F826504E07F70E0F26BE40E7
:1003B000B543CF1000F1200646F82750CE1000F1CB
:1003C000200555F8265045EA0304CE1000F120051B
:1003D00045F82640F0BD4183704700BFFEE70000AE
:1003E0001CB50121102000F02FF900208DF8040029
:1003F00001208DF8070000208DF8050010200090E6
:1004000069460248FFF77CFF1CBD00000010024057
:100410001CB50121102000F017F901208DF804000F
:1004200000208DF806008DF807008DF8050040F2D9
:10043000AE30009069460448FFF762FF40F2AE31EB
:100440000148FFF7C8FF1CBD0010024010B5012095
:10045000FFF74CFF1A490878C11700EB1171091119
:10046000A0EB011111B90820164908830220154993
:1004700008830120FFF73AFF042012490883012076
:10048000FFF734FF0E490878C11700EB117109110D
:10049000A0EB011111B908200A494883022009493B
:1004A00048830420488306480078401C04490870AB
:1004B0000320FFF71BFF00200349086010BD000068
:1004C00037000020001002402C0000202DE9F047EA
:1004D000012005468EE0002486E049480078A842C5
:1004E00075D148480078A0427CD10120FFF7FEFE7C
:1004F000002745E04FF000083DE04FF4004040FA8F
:1005000008F92FB9B8F10F0F02D180203E490883B6
:1005100000261EE03D48008800EA0900B8B13C48CA
:1005200000EBC400805D401EA8420CD0384800EBB0
:10053000C400805D801EA84205D0354800EBC40091
:10054000805DA84203D14FF480702F490883701C4E
:1005500086B2082EDEDB0120FFF7C8FE20202A49E4
:1005600008830120FFF7C2FE20202749488308F1B5
:1005700001001FFA80F8B8F1100FBEDB781C87B2BB
:10058000012FB7DB802020494883400048830120A9
:10059000FFF7ACFE1B4800780F280BD118480078F5
:1005A000082807D100201749087001201449087055
:1005B000BDE8F087134800780F2809D100201149C1
:1005C00008700F480078401C0D49087005E009E0EC
:1005D0000C480078401C0B4908706420FFF786FE29
:1005E0000020E5E7601C84B2102CFFF676AF681C93
:1005F00080B20546102D7FF76EAF00BFD8E7000030
:100600003A0000203B00002000100240340000208F
:100610006800002010B500F0F3FB00F013FC00F0C0
:10062000EFFB00F04FFC10BD00BFFEE7704700007D
:1006300002490143024A1160704700000000FA05B8
:100640000CED00E07047000029B1064A1268024331
:10065000044B1A6004E0034A12688243014B1A609B
:10066000704700003038024029B1064A1268024340
:10067000044B1A6004E0034A12688243014B1A607B
:100680007047000044380240F0B5002100220024E9
:10069000022500260223324F3F6807F00C0121B1EA
:1006A000042905D0082937D105E02E4F076036E030
:1006B0002D4F076033E02A4F3F1F3F68C7F3805636
:1006C000274F3F1F3F6807F03F036EB1264FB7FB30
:1006D000F3F7DFF88CC0ACF1040CDCF800C0CCF30D
:1006E000881C07FB0CF40CE01E4FB7FBF3F7DFF898
:1006F00070C0ACF1040CDCF800C0CCF3881C07FB24
:100700000CF4174F3F1F3F68C7F301477F1C7D0064
:10071000B4FBF5F7076002E0124F076000BF00BFAF
:100720000F4F3F6807F0F0010909104F7A5C076826
:10073000D74047600A4F3F6807F4E051890A0B4FE2
:100740007A5C4768D7408760054F3F6807F460418F
:10075000490B064F7A5C4768D740C760F0BD000080
:10076000083802400024F40000127A0054000020EF
:10077000704700000CB500200190009034480068DC
:1007800040F480303249086000BF3148006800F40E
:10079000003000900198401C0190009818B9019811
:1007A000B0F5A04FF1D12A48006800F4003010B134
:1007B0000120009001E0002000900098012846D11F
:1007C00023484030006840F08050214940310860A3
:1007D0002048006840F440401E4908601C4808302A
:1007E00000681B49083108600846006840F4004072
:1007F00008600846006840F4A05008601648091FC9
:100800000860081F006840F08070091F086000BF82
:100810000F48006800F000700028F9D040F2057021
:100820000E4908600A480830006820F003000849B3
:10083000083108600846006840F00200086000BF08
:1008400003480830006800F00C000828F8D10CBDFF
:10085000003802400070004008544007003C02404D
:100860000448D0E900305A1C40F100000149C1E9B8
:10087000002070472000002010B500F099F800F02B
:1008800051FAFFF7EDFF10BD70B5002000220223E2
:1008900000240221274D2D6805F00C0020B104280A
:1008A00006D0082834D107E0234D244E356033E0CC
:1008B000234D224E35602FE01E4D2D1F2D68C5F3B0
:1008C00080541C4D2D1F2D6805F03F0154B11C4D67
:1008D000B5FBF1F5174E361F3668C6F3881605FBD3
:1008E00006F209E0144DB5FBF1F5124E361F3668DD
:1008F000C6F3881605FB06F20E4D2D1F2D68C5F3B5
:1009000001456D1C6B00B2FBF3F50C4E356003E046
:10091000094D0A4E356000BF00BF064D2D68C5F376
:100920000315084E705D054D2D68C540034E3560BA
:1009300070BD0000083802400024F4004000002090
:1009400000127A004400002010B51548006840F4F9
:100950007000134908601348006840F00100114915
:10096000086000200F49083108600E4800680E49F1
:1009700008400C4908600D48091D0860081F006800
:1009800020F48020091F0860002006490C3108600F
:10099000FFF7F0FE4FF0006001498039086010BD9C
:1009A00088ED00E000380240FFFFF6FE1030002422
:1009B0000448006820B103480068401E01490860EF
:1009C000704700002800002021B1828942F40052C3
:1009D000828104E082894DF6FF731A40828170475C
:1009E0001CB501210846FFF72FFE02208DF80400F8
:1009F00000208DF8060001208DF8070000208DF8FA
:100A000005004FF40070009069460A48FFF778FC33
:100A10004FF48060009069460648FFF771FC07229A
:100A200009210448FFF7B4FC07220A210148FFF717
:100A3000AFFC1CBD0000024002460020B1F5007F63
:100A400000D100BF13880B400BB1012000E0002053
:100A5000704700002DE9FF4705460E460024A146D9
:100A600000BFA046B08900B100BF2C8A24F44054D6
:100A7000F08804432C82AC8941F20C608443B08836
:100A800031890843718908430443AC81AC8A24F45A
:100A90004074B0890443AC826846FFF7F5FD2048F6
:100AA000854202D01F48854202D1DDF80C9001E05A
:100AB000DDF80890A88900F4004040B109EBC900B6
:100AC00000EB091031684900B0FBF1F707E009EBD2
:100AD000C90000EB091031688900B0FBF1F7642010
:100AE000B7FBF0F004012009642101FB1078A8890C
:100AF00000F4004040B1322000EBC800B0FBF1F040
:100B000000F00700044308E0322000EB08106421E5
:100B1000B0FBF1F000F00F0004432C81BDE8FF872B
:100B20000010014000140140C1F3080282807047A8
:100B300000BFFEE71FB501211020FFF795FDFFF76D
:100B40004FFF4FF4E13000900020ADF80400ADF805
:100B50000600ADF808000C20ADF80A000020ADF842
:100B60000C0069460348FFF775FF01210148FFF7B4
:100B70002BFF1FBD00100140014A024900F013B8CD
:100B8000010D00086400002002E008C8121F08C11F
:100B9000002AFAD170477047002001E001C1121FFE
:100BA000002AFBD170472DE9F04116460F46044656
:100BB000002503E03946B047641C6D1C20780028EE
:100BC000F8D12846BDE8F08110B51048007808B18A
:100BD00000F0B8F9FFF73AFC0C48007880B1FFF755
:100BE00019FD002406E0FFF731FC8720FFF77EFBAC
:100BF000601C84B2072CF6DB00200449087003E077
:100C0000FFF764FC0149087010BD00003D000020A2
:100C100070B53648D0E900203549D1E90031D21A03
:100C200060EB0100334B00219A1A814124D22F48F6
:100C3000D0E900302E4A06CA5D1A60EB020110228C
:100C400000232846FFF7BCFA14462848D0E90010D4
:100C5000274AC2E9001000200BE0274901EBC4013C
:100C6000095C29B90121244A02EBC402115402E0B3
:100C7000401C0828F1DB00BFFFF7A6FF1B48D0E9A6
:100C800000101E4A28CACA1A60EB05004CF2503305
:100C900000219A1A814128D2002020E000211BE087
:100CA000154A02EBC002525C002A0FDD124A02EB29
:100CB000C002525C132A09DA0F4A02EBC002525CEE
:100CC000521C0D4B03EBC0035A5404E000220A4BA4
:100CD00003EBC0035A54491C0829E1DB401C1028CF
:100CE000DCDB024903C9054A03C270BD20000020B5
:100CF00008000020A08601006800002010000020ED
:100D000070B504460D46E1B20548FFF70DFF00BF80
:100D100080210348FFF790FE0028F9D0204670BDDF
:100D2000001001401148006881281DD21048007849
:100D3000002819D04FF400700E49088308830883F7
:100D4000088308830883088308830883088308834B
:100D500008830883088305480068401C034908602D
:100D60004FF4007003494883704700002C000020B6
:100D7000330000200010024000BFFFF7E5FDFFF741
:100D800085FAFFF72DFBFFF7D5FEFFF741FB0FA01C
:100D9000FFF7F2FEFFF778FD4FF4A060FFF748FC85
:100DA0000EA0FFF7E9FE0020114908701148D0E9B4
:100DB0000010114AC2E900100E48D0E900100F4A95
:100DC000C2E9001001E0FFF723FFFCE773797374B9
:100DD000656D2073746172742E0D0A00616674650E
:100DE00072206D626920696E69740D0A000000004E
:100DF0003300002020000020080000201000002008
:100E000010B580200E4908830120FFF76FFA0E24E9
:100E10000CE020200A4908830120FFF767FA202010
:100E2000074948830120FFF761FA641E002CF0D1C6
:100E30008020034948830220FFF758FA10BD0000C4
:100E4000001002402DE9F04140F2EB7700252BE045
:100E5000002425E04FF4004040FA04F63DB90C2C84
:100E600005D18020164908830120FFF73FFA07EAE1
:100E7000060020B14FF480701149088303E04FF45D
:100E800080700F4948830120FFF730FA20200C4979
:100E900008830120FFF72AFA202009494883641CAF
:100EA000102CD7D3681C85B2012DD1DB80200449DA
:100EB0004883400048830220FFF718FABDE8F0811C
:100EC000001002402DE9F0414FF4806700252BE02F
:100ED000002425E04FF4004040FA04F63DB9082C08
:100EE00005D18020164908830120FFF7FFF907EAA2
:100EF000060020B14FF480701149088303E04FF4DD
:100F000080700F4948830120FFF7F0F920200C4939
:100F100008830120FFF7EAF9202009494883641C6F
:100F2000102CD7D3681C85B2012DD1DB8020044959
:100F30004883400048830220FFF7D8F9BDE8F081DC
:100F40000010024010B56420FFF7D0F980200E4950
:100F5000088300240CE00120FFF7C8F920200A498B
:100F600008830120FFF7C2F9202007494883641C49
:100F7000022CF0D38020044948830120FFF7B6F902
:100F800001200249087010BD00100240330000200B
:100F9000B00F00080000002068000000880B000867
:100FA000181000086800002080040000980B00085A
:100FB0000000000000000000000000000000000031
:100FC0000000000000000000000000000000000021
:100FD000000000000000000000000000FF00000012
:100FE00000000101FFFF00000100010001010000FD
:100FF000007A030A00000000000000000102030460
:1010000006070809000000000102030401020304AE
:081010000607080900000000BA
:040000050800018965
:00000001FF
