:020000040800F2
:10000000300400209D01000801040008510300088D
:10001000FD030008E50100080D08000800000000CD
:100020000000000000000000000000002D05000896
:10003000E901000800000000030400081D06000894
:10004000B7010008B7010008B7010008B7010008B0
:10005000B7010008B7010008B7010008B7010008A0
:10006000B7010008B7010008B7010008B701000890
:10007000B7010008B7010008B7010008B701000880
:10008000B7010008B7010008B7010008B701000870
:10009000B7010008B7010008B7010008B701000860
:1000A000B7010008B7010008B7010008B701000850
:1000B000B7010008B7010008B7010008B701000840
:1000C000B7010008B7010008B7010008B701000830
:1000D000B7010008B7010008B7010008B701000820
:1000E000B7010008B7010008B7010008B701000810
:1000F000B7010008B7010008B7010008B701000800
:10010000B7010008B7010008B7010008B7010008EF
:10011000B7010008B7010008B7010008B7010008DF
:10012000B7010008B7010008B7010008B7010008CF
:10013000B7010008B7010008B7010008B7010008BF
:10014000B7010008B7010008B7010008B7010008AF
:10015000B7010008B7010008B7010008B70100089F
:10016000B7010008B7010008B7010008B70100088F
:10017000B7010008B7010008B7010008B70100087F
:10018000B7010008B7010008DFF80CD000F018F83C
:1001900000480047C908000830040020064880478E
:1001A00006480047FEE7FEE7FEE7FEE7FEE7FEE75C
:1001B000FEE7FEE7FEE7FEE72506000889010008E6
:1001C000064C074D06E0E06840F0010394E80700A4
:1001D00098471034AC42F6D3FFF7DAFF2009000845
:1001E0004009000800BFFEE77047000030B5144822
:1001F00000684FF47A72B0FBF2F1481EB0F1807FD4
:1002000000D31BE0481E4FF0E022506150170F2230
:10021000002807DA13071D0E0A4B00F00F04241FF5
:100220001D5503E013071C0E074B1C5400BF002094
:100230004FF0E02290610720106100BF30BD000048
:100240000400002018ED00E000E400E0034908602D
:1002500000BF024909680029FBD170470000002057
:10026000F0B50A4600210023002400BF3DE001252F
:1002700005FA01F3156805EA03049C4234D10568C8
:100280004F000326BE40B543056015794E00B540CA
:100290000668354305601579012D02D01579022DC8
:1002A00016D185684F000326BE40B5438560557959
:1002B0004E00B540866835438560456801268E400E
:1002C000B5434560456896798E40B6B23543456082
:1002D000C5684F000326BE40B543C560D5794E00C2
:1002E000B540C6683543C560491C1029BFD3F0BD71
:1002F000F0B5002300244D07ED0E02FA05F3CE10F1
:1003000000F1200555F826504E07F70E0F26BE4087
:10031000B543CF1000F1200646F82750CE1000F16B
:10032000200555F8265045EA0304CE1000F12005BB
:1003300045F82640F0BD0246002013690B400BB182
:10034000012000E00020704741837047018370471F
:1003500000BFFEE71CB50121102000F053F800207B
:100360008DF8040001208DF8070000208DF80500AD
:100370000420009069460248FFF772FF1CBD000090
:100380000010024010B504210B48FFF7D4FF80B9DC
:100390000A20FFF75BFF04210748FFF7CCFF40B9B5
:1003A00000BF04210448FFF7C6FF0028F9D0012050
:1003B00010BD0020FCE70000001002401CB5012128
:1003C000202000F01FF801208DF8040000208DF897
:1003D000060001208DF8070000208DF805004FF47D
:1003E0000070009069460448FFF73AFF4FF400712F
:1003F0000148FFF7A9FF1CBD0014024000BFFEE743
:100400007047704729B1064A12680243044B1A60CC
:1004100004E0034A12688243014B1A6070470000EF
:100420003038024029B1064A12680243044B1A6070
:1004300004E0034A12688243014B1A6070470000CF
:1004400044380240F0B50021002200240225002695
:100450000223324F3F6807F00C0121B1042905D077
:10046000082937D105E02E4F076036E02D4F076091
:1004700033E02A4F3F1F3F68C7F38056274F3F1F87
:100480003F6807F03F036EB1264FB7FBF3F7DFF885
:100490008CC0ACF1040CDCF800C0CCF3881C07FB6A
:1004A0000CF40CE01E4FB7FBF3F7DFF870C0ACF1B3
:1004B000040CDCF800C0CCF3881C07FB0CF4174FCD
:1004C0003F1F3F68C7F301477F1C7D00B4FBF5F772
:1004D000076002E0124F076000BF00BF0F4F3F6888
:1004E00007F0F0010909104F7A5C0768D7404760B0
:1004F0000A4F3F6807F4E051890A0B4F7A5C47685E
:10050000D7408760054F3F6807F46041490B064FAD
:100510007A5C4768D740C760F0BD000008380240E9
:100520000024F40000127A00180000207047000038
:100530000CB50020019000903448006840F48030F1
:100540003249086000BF3148006800F40030009074
:100550000198401C0190009818B90198B0F5A04F7F
:10056000F1D12A48006800F4003010B10120009059
:1005700001E0002000900098012846D12348403037
:10058000006840F0805021494031086020480068F0
:1005900040F440401E4908601C48083000681B4970
:1005A000083108600846006840F4004008600846CA
:1005B000006840F4A05008601648091F0860081F32
:1005C000006840F08070091F086000BF0F48006895
:1005D00000F000700028F9D040F205700E49086064
:1005E0000A480830006820F0030008490831086014
:1005F0000846006840F00200086000BF0348083069
:10060000006800F00C000828F8D10CBD003802404A
:100610000070004008544007003C024010B500F054
:1006200035F810BD10B51548006840F47000134946
:1006300008601348006840F001001149086000207C
:100640000F49083108600E4800680E4908400C49FF
:1006500008600D48091D0860081F006820F480200C
:10066000091F0860002006490C310860FFF760FF91
:100670004FF0006001498039086010BD88ED00E04E
:1006800000380240FFFFF6FE1030002404480068E6
:1006900020B103480068401E01490860704700000F
:1006A0000000002021B1828942F40052828104E0DE
:1006B00082894DF6FF731A40828170471CB5012173
:1006C0000846FFF79FFE02208DF8040000208DF8F9
:1006D000060001208DF8070000208DF805004FF47A
:1006E0000070009069460A48FFF7BAFD4FF4806039
:1006F000009069460648FFF7B3FD07220921044828
:10070000FFF7F6FD07220A210148FFF7F1FD1CBDA6
:100710000000024002460020B1F5007F00D100BF7A
:1007200013880B400BB1012000E00020704700004F
:100730002DE9FF4705460E460024A14600BFA0460E
:10074000B08900B100BF2C8A24F44054F0880443DF
:100750002C82AC8941F20C608443B0883189084313
:10076000718908430443AC81AC8A24F44074B08995
:100770000443AC826846FFF765FE2048854202D0FC
:100780001F48854202D1DDF80C9001E0DDF80890A9
:10079000A88900F4004040B109EBC90000EB091042
:1007A00031684900B0FBF1F707E009EBC90000EB45
:1007B000091031688900B0FBF1F76420B7FBF0F055
:1007C00004012009642101FB1078A88900F400408D
:1007D00040B1322000EBC800B0FBF1F000F00700A0
:1007E000044308E0322000EB08106421B0FBF1F074
:1007F00000F00F0004432C81BDE8FF87001001408A
:1008000000140140C1F308028280704700BFFEE778
:100810001FB501211020FFF705FEFFF74FFF4FF432
:10082000E13000900020ADF80400ADF80600ADF80E
:1008300008000C20ADF80A000020ADF80C00694655
:100840000348FFF775FF01210148FFF72BFF1FBD8C
:1008500000100140014A024900F013B8A508000841
:100860002800002002E008C8121F08C1002AFAD19F
:1008700070477047002001E001C1121F002AFBD120
:1008800070472DE9F04116460F460446002503E067
:100890003946B047641C6D1C20780028F8D12846E2
:1008A000BDE8F08170B504460D46E1B20548FFF79A
:1008B000A9FF00BF80210348FFF72CFF0028F9D0D3
:1008C000204670BD001001400024FFF78FFCFFF7A9
:1008D00075FDFFF73FFDFFF79BFF0BA0FFF7BAFF8A
:1008E00011E0FFF74FFD012801D1E043C4B22CB95C
:1008F0004FF400710948FFF727FD04E04FF4007141
:100900000648FFF723FDECE7464B3430374D32BA4B
:10091000CBD0C4B0E5B2E2CAD40D0A000014024044
:1009200040090008000000202C00000064080008B6
:100930006C0900082C000020040400007408000862
:1009400000000000007A030A000000000000000020
:100950000102030406070809000000000102030465
:0C09600001020304060708090000000063
:040000050800018965
:00000001FF
