:020000040800F2
:10000000380400209D010008310500083B0300086A
:100010002D050008E5010008190A0008000000008D
:10002000000000000000000000000000750600084D
:10003000E901000800000000490500086507000804
:10004000B7010008B7010008B7010008B7010008B0
:10005000B7010008B7010008B7010008B7010008A0
:10006000B7010008B7010008B7010008B701000890
:10007000B7010008B7010008B7010008B701000880
:10008000B7010008B7010008B7010008B701000870
:10009000B7010008B7010008B7010008B701000860
:1000A000B7010008B7010008B7010008B701000850
:1000B000B7010008B7010008B7010008B701000840
:1000C000B7010008B7010008B7010008B701000830
:1000D000B7010008B7010008B7010008B701000820
:1000E000B7010008B7010008B7010008B701000810
:1000F000B7010008B7010008B7010008B701000800
:10010000B7010008B7010008B7010008B7010008EF
:10011000B7010008B7010008B7010008B7010008DF
:10012000B7010008B7010008B7010008B7010008CF
:10013000B7010008B7010008B7010008B7010008BF
:10014000B7010008B7010008B7010008B7010008AF
:10015000B7010008B7010008B7010008B70100089F
:10016000B7010008B7010008B7010008B70100088F
:10017000B7010008B7010008B7010008B70100087F
:10018000B7010008B7010008DFF80CD000F018F83C
:1001900000480047310B000838040020064880471B
:1001A00006480047FEE7FEE7FEE7FEE7FEE7FEE75C
:1001B000FEE7FEE7FEE7FEE73108000889010008D8
:1001C000064C074D06E0E06840F0010394E80700A4
:1001D00098471034AC42F6D3FFF7DAFF280D000839
:1001E000480D000800BFFEE77047000030B5134817
:1001F0000068134AB0FBF2F1481EB0F1807F00D3D3
:100200001BE0481E4FF0E022506150170F220028DB
:1002100007DA13071D0E0B4B00F00F04241F1D55AA
:1002200003E013071C0E084B1C5400BF00204FF0C6
:10023000E02290610720106100BF30BD1000002057
:1002400040420F0018ED00E000E400E003490860C0
:1002500000BF024909680029FBD170470000002057
:10026000F0B50A4600210023002400BF3DE001252F
:1002700005FA01F3156805EA03049C4234D10568C8
:100280004F000326BE40B543056015794E00B540CA
:100290000668354305601579012D02D01579022DC8
:1002A00016D185684F000326BE40B5438560557959
:1002B0004E00B540866835438560456801268E400E
:1002C000B5434560456896798E40B6B23543456082
:1002D000C5684F000326BE40B543C560D5794E00C2
:1002E000B540C6683543C560491C1029BFD3F0BD71
:1002F000F0B5002300244D07ED0E02FA05F3CE10F1
:1003000000F1200555F826504E07F70E0F26BE4087
:10031000B543CF1000F1200646F82750CE1000F16B
:10032000200555F8265045EA0304CE1000F12005BB
:1003300045F82640F0BD4183704700BFFEE700004E
:100340001CB50121102000F001F900208DF80400F7
:1003500001208DF8070000208DF805001020009086
:1003600069460248FFF77CFF1CBD000000100240F8
:100370002DE9F04101265FE0002459E0E11704EB8C
:1003800091718910A4EB810139B900F097F804202C
:10039000FFF75CFF00202D4908600120FFF756FFA2
:1003A000002739E0002533E04FF4004040FA05F81B
:1003B00027B90F2D02D180202549088325480088C0
:1003C00000EA080090B1072C10DB0E2C09D0072C96
:1003D00007D00A2C01D1022E03D00C2C06D1052EF9
:1003E00004D14FF480701A49088303E04FF4807001
:1003F000174948830120FFF729FF2020144908836B
:100400000120FFF723FF202011494883681C85B293
:10041000102DC9DB781C87B2012FC3DB80200C496B
:100420004883400048830120FFF710FF601C84B21E
:10043000102CA3DB701C86B2082E9DDD002006491F
:10044000087000F04BFCBDE8F081000004000020C3
:10045000001002400C0000200A0000201CB5012101
:10046000102000F073F801208DF8040000208DF8B2
:1004700006008DF807008DF8050040F2AE300090C0
:1004800069460448FFF7ECFE40F2AE310148FFF741
:1004900052FF1CBD0010024010B500F07DFB00F0C3
:1004A0009DFB00F079FB00F0D9FB002002490870A9
:1004B00000F014FC10BD00000A00002010B501205F
:1004C000FFF7C4FE17490878C11700EB5171C91036
:1004D000A0EBC10111B90820134908830220124979
:1004E00008830120FFF7B2FE04200F490883012092
:1004F000FFF7ACFE0B490878C11700EB5171C9102A
:10050000A0EBC10111B90820074948830220064920
:1005100048830420488303480078401C0149087040
:1005200010BD00000E0000200010024000BFFEE7DA
:100530007047000002490143024A11607047000001
:100540000000FA050CED00E07047000029B1064AF2
:1005500012680243044B1A6004E0034A12688243A3
:10056000014B1A60704700003038024029B1064A3A
:1005700012680243044B1A6004E0034A1268824383
:10058000014B1A607047000044380240F0B500216A
:1005900000220024022500260223324F3F6807F084
:1005A0000C0121B1042905D0082937D105E02E4FCF
:1005B000076036E02D4F076033E02A4F3F1F3F684A
:1005C000C7F38056274F3F1F3F6807F03F036EB1C8
:1005D000264FB7FBF3F7DFF88CC0ACF1040CDCF866
:1005E00000C0CCF3881C07FB0CF40CE01E4FB7FBDB
:1005F000F3F7DFF870C0ACF1040CDCF800C0CCF30A
:10060000881C07FB0CF4174F3F1F3F68C7F30147D7
:100610007F1C7D00B4FBF5F7076002E0124F076016
:1006200000BF00BF0F4F3F6807F0F0010909104FEE
:100630007A5C0768D74047600A4F3F6807F4E0518B
:10064000890A0B4F7A5C4768D7408760054F3F683F
:1006500007F46041490B064F7A5C4768D740C76092
:10066000F0BD0000083802400024F40000127A00B7
:1006700024000020704700000CB50020019000907D
:100680003448006840F480303249086000BF314887
:10069000006800F4003000900198401C0190009820
:1006A00018B90198B0F5A04FF1D12A48006800F4BC
:1006B000003010B10120009001E00020009000986F
:1006C000012846D123484030006840F0805021493D
:1006D000403108602048006840F440401E490860EE
:1006E0001C48083000681B4908310860084600684B
:1006F00040F4004008600846006840F4A0500860DC
:100700001648091F0860081F006840F08070091F24
:10071000086000BF0F48006800F000700028F9D0A2
:1007200040F205700E4908600A480830006820F061
:1007300003000849083108600846006840F00200DC
:10074000086000BF03480830006800F00C0008286B
:10075000F8D10CBD0038024000700040085440073A
:10076000003C024010B500F097F800F0B3F910BD5E
:1007700070B500200022022300240221274D2D689D
:1007800005F00C0020B1042806D0082834D107E079
:10079000234D244E356033E0234D224E35602FE04B
:1007A0001E4D2D1F2D68C5F380541C4D2D1F2D6827
:1007B00005F03F0154B11C4DB5FBF1F5174E361F46
:1007C0003668C6F3881605FB06F209E0144DB5FB42
:1007D000F1F5124E361F3668C6F3881605FB06F291
:1007E0000E4D2D1F2D68C5F301456D1C6B00B2FB2E
:1007F000F3F50C4E356003E0094D0A4E356000BF3D
:1008000000BF064D2D68C5F30315084E705D054DFC
:100810002D68C540034E356070BD000008380240A9
:100820000024F4001000002000127A0014000020C0
:1008300010B51548006840F470001349086013486B
:10084000006840F001001149086000200F4908319C
:1008500008600E4800680E4908400C4908600D48C1
:10086000091D0860081F006820F48020091F086027
:10087000002006490C310860FFF7FEFE4FF00060D3
:1008800001498039086010BD88ED00E00038024061
:10089000FFFFF6FE103000240448006820B1034832
:1008A0000068401E014908607047000000000020F9
:1008B00021B1828942F40052828104E082894DF69E
:1008C000FF731A40828170471CB501210846FFF76B
:1008D0003DFE02208DF8040000208DF80600012066
:1008E0008DF8070000208DF805004FF4007000908F
:1008F00069460A48FFF7B4FC4FF4806000906946EF
:100900000648FFF7ADFC072209210448FFF7F0FC79
:1009100007220A210148FFF7EBFC1CBD0000024042
:1009200002460020B1F5007F00D100BF13880B40C4
:100930000BB1012000E00020704700002DE9FF47C7
:1009400005460E460024A14600BFA046B08900B16E
:1009500000BF2C8A24F44054F08804432C82AC89D4
:1009600041F20C608443B08831890843718908439F
:100970000443AC81AC8A24F44074B0890443AC8253
:100980006846FFF703FE2048854202D01F48854293
:1009900002D1DDF80C9001E0DDF80890A88900F4A0
:1009A000004040B109EBC90000EB09103168490073
:1009B000B0FBF1F707E009EBC90000EB0910316863
:1009C0008900B0FBF1F76420B7FBF0F004012009C7
:1009D000642101FB1078A88900F4004040B1322066
:1009E00000EBC800B0FBF1F000F00700044308E0A2
:1009F000322000EB08106421B0FBF1F000F00F0092
:100A000004432C81BDE8FF87001001400014014021
:100A1000C1F308028280704700BFFEE71FB50121C5
:100A20001020FFF7A3FDFFF74FFF4FF4E1300090D8
:100A30000020ADF80400ADF80600ADF808000C2069
:100A4000ADF80A000020ADF80C0069460348FFF736
:100A500075FF01210148FFF72BFF1FBD001001406A
:100A6000014A024900F013B8B10A0008340000201E
:100A700002E008C8121F08C1002AFAD17047704767
:100A8000002001E001C1121F002AFBD170472DE9AF
:100A9000F04116460F460446002503E03946B047AC
:100AA000641C6D1C20780028F8D12846BDE8F08130
:100AB00070B504460D46E1B20548FFF7A9FF00BF37
:100AC00080210348FFF72CFF0028F9D0204670BD95
:100AD000001001401248007838B912480068812897
:100AE0001DD211480078002819D04FF400700F492A
:100AF000088308830883088308830883088308839E
:100B000008830883088308830883088305480068EE
:100B1000401C044908604FF4007004494883704742
:100B20000A000020040000200B00002000100240FA
:100B300000BFFFF77DFEFFF759FBFFF701FCFFF752
:100B40006DFFFFF78BFC0AA0FFF78AFFFFF710FE8F
:100B50004FF4A060FFF7EEFCFFF79EFC08A0FFF744
:100B60007FFF00200B49087001E0FFF701FCFCE764
:100B700073797374656D2073746172742E0D0A003D
:100B80006166746572206D626920696E69740D0A10
:100B9000000000000B00002010B580200E490883E3
:100BA0000120FFF753FB0E240CE020200A490883A4
:100BB0000120FFF74BFB2020074948830120FFF766
:100BC00045FB641E002CF0D180200349488302209D
:100BD000FFF73CFB10BD0000001002402DE9F04182
:100BE00040F2EB7700252BE0002425E04FF4004095
:100BF00040FA04F63DB90C2C05D180201649088333
:100C00000120FFF723FB07EA060020B14FF48070B4
:100C10001149088303E04FF480700F494883012095
:100C2000FFF714FB20200C4908830120FFF70EFB7F
:100C3000202009494883641C102CD7D3681C85B236
:100C4000012DD1DB802004494883400048830220E5
:100C5000FFF7FCFABDE8F081001002402DE9F041F9
:100C60004FF4806700252BE0002425E04FF400407E
:100C700040FA04F63DB9082C05D1802016490883B6
:100C80000120FFF7E3FA07EA060020B14FF4807075
:100C90001149088303E04FF480700F494883012015
:100CA000FFF7D4FA20200C4908830120FFF7CEFA81
:100CB000202009494883641C102CD7D3681C85B2B6
:100CC000012DD1DB80200449488340004883022065
:100CD000FFF7BCFABDE8F0810010024010B5142007
:100CE000FFF7B4FA80200E49088300240CE00120AD
:100CF000FFF7ACFA20200A4908830120FFF7A6FA83
:100D0000202007494883641C022CF0D3802004492A
:100D100048830120FFF79AFA01200249087010BDAC
:100D2000001002400B000020480D000800000020C9
:100D300038000000700A0008800D0008380000200C
:100D400000040000800A000800000000000000000D
:100D500000000101FF030000007A030A0000000008
:100D6000000000000102030406070809000000005B
:100D70000102030401020304060708090000000041
:040000050800018965
:00000001FF
