:020000040800F2
:10000000A00500209D0100083D0600085F030008D0
:100010003906000809020008410B00080000000032
:100020000000000000000000000000008107000840
:100030000D020008000000005506000889080008AD
:10004000B7010008B7010008B7010008B7010008B0
:10005000B7010008B7010008B7010008B7010008A0
:10006000B7010008B7010008B7010008B701000890
:10007000B7010008B7010008B7010008B701000880
:10008000B7010008B7010008B7010008B701000870
:10009000B7010008B7010008B7010008B701000860
:1000A000B7010008B7010008B7010008B701000850
:1000B000B7010008B7010008B7010008B701000840
:1000C000B7010008B7010008B7010008B701000830
:1000D000B7010008B7010008B7010008B701000820
:1000E000B7010008B7010008B7010008B701000810
:1000F000B7010008B7010008B7010008B701000800
:10010000B7010008B7010008B7010008B7010008EF
:10011000B7010008B7010008B7010008B7010008DF
:10012000B7010008B7010008B7010008B7010008CF
:10013000B7010008B7010008B7010008B7010008BF
:10014000B7010008B7010008B7010008B7010008AF
:10015000B7010008B7010008B7010008B70100089F
:10016000B7010008B7010008B7010008B70100088F
:10017000B7010008B7010008B7010008B70100087F
:10018000B7010008B7010008DFF80CD000F02AF82A
:10019000004800478D0C0008A00500200648804755
:1001A00006480047FEE7FEE7FEE7FEE7FEE7FEE75C
:1001B000FEE7FEE7FEE7FEE75909000889010008AF
:1001C000D2B201E000F8012B491EFBD27047002299
:1001D000F6E710B513460A4604461946FFF7F0FF46
:1001E000204610BD064C074D06E0E06840F00103D4
:1001F00094E8070098471034AC42F6D3FFF7C8FFE5
:10020000940E0008B40E000800BFFEE7704700001F
:1002100030B513480068134AB0FBF2F1481EB0F144
:10022000807F00D31BE0481E4FF0E0225061501742
:100230000F22002807DA13071D0E0B4B00F00F04E6
:10024000241F1D5503E013071C0E084B1C5400BF50
:1002500000204FF0E02290610720106100BF30BD08
:100260003400002040420F0018ED00E000E400E000
:100270000349086000BF024909680029FBD17047A3
:1002800020000020F0B50A4600210023002400BF12
:100290003DE0012505FA01F3156805EA03049C42D7
:1002A00034D105684F000326BE40B543056015797B
:1002B0004E00B5400668354305601579012D02D022
:1002C0001579022D16D185684F000326BE40B5432F
:1002D000856055794E00B540866835438560456830
:1002E00001268E40B5434560456896798E40B6B28A
:1002F00035434560C5684F000326BE40B543C56021
:10030000D5794E00B540C6683543C560491C1029F3
:10031000BFD3F0BDF0B5002300244D07ED0E02FA67
:1003200005F3CE1000F1200555F826504E07F70EC4
:100330000F26BE40B543CF1000F1200646F82750E7
:10034000CE1000F1200555F8265045EA0304CE10E2
:1003500000F1200545F82640F0BD4183704700BFFD
:10036000FEE700001CB50121102000F075F9002007
:100370008DF8040001208DF8070000208DF805009D
:100380001020009069460248FFF77CFF1CBD00006A
:100390000010024010B52948D0E90010284B0CCBC2
:1003A0008A1A60EB0300274B00219A1A81413FD241
:1003B0002248D0E90010224AC2E900102248007801
:1003C000224909780843224908701F480078401CD8
:1003D0001D4908700878C11700EB11710911A0EBD5
:1003E0000111194A117011460878C11700EB1171FB
:1003F0000911A0EB011169B914480078401C134998
:1004000008700878C11700EB11710911A0EB0111F8
:100410000E4A11704FF480710E48FFF7D8FE01208C
:100420000C490A4A127801EB0211074A12788854E3
:100430000748007800F0D0FB10BD00001800002035
:100440000800002020A1070031000020300000201B
:10045000320000209C0000201CB50121102000F07B
:10046000FBF801208DF8040000208DF806008DF8BF
:1004700007008DF8050040F2AE3000906946044850
:10048000FFF700FF40F2AE310148FFF766FF1CBDE9
:100490000010024010B50120FFF7EAFE1A49087863
:1004A000C11700EB11710911A0EB011111B908205E
:1004B000164908830220154908830120FFF7D8FE5A
:1004C0000420124908830120FFF7D2FE0E49087864
:1004D000C11700EB11710911A0EB011111B908202E
:1004E0000A49488302200949488304204883064872
:1004F0000078401C044908700120FFF7B9FE002075
:100500000349086010BD00002D00002000100240CB
:10051000240000202DE9F0413D480078074673E0B3
:1005200000246CE03A480078B84266D13948007837
:10053000A04262D10120FFF79BFE00252CE000269F
:1005400026E04FF4004040FA06F825B90F2E02D1FC
:100550008020314908833148008800EA080048B10A
:10056000781E2F4901EB0010005D18B14FF4807028
:10057000294908830120FFF77BFE202026490883B4
:100580000120FFF775FE202023494883701C86B2A6
:10059000102ED6DB681C85B2012DD0DB80201E49D1
:1005A0004883400048830120FFF762FE1948007825
:1005B0000F280BD116480078102807D100201549C4
:1005C0000870012012490870BDE8F08111480078D8
:1005D0000F2808D100200F4908700D480078401CF2
:1005E0000B49087004E00B480078401C094908706A
:1005F0006420FFF73DFE0020E6E7601C84B2102C6B
:1006000090DB781C80B20746102F89DD00BFDBE746
:100610002A0000202B0000200010024028000020AB
:100620009C00002010B500F071FB00F091FB00F081
:100630006DFB00F0CDFB10BD00BFFEE77047000072
:1006400002490143024A1160704700000000FA05A8
:100650000CED00E07047000029B1064A1268024321
:10066000044B1A6004E0034A12688243014B1A608B
:10067000704700003038024029B1064A1268024330
:10068000044B1A6004E0034A12688243014B1A606B
:100690007047000044380240F0B5002100220024D9
:1006A000022500260223324F3F6807F00C0121B1DA
:1006B000042905D0082937D105E02E4F076036E020
:1006C0002D4F076033E02A4F3F1F3F68C7F3805626
:1006D000274F3F1F3F6807F03F036EB1264FB7FB20
:1006E000F3F7DFF88CC0ACF1040CDCF800C0CCF3FD
:1006F000881C07FB0CF40CE01E4FB7FBF3F7DFF888
:1007000070C0ACF1040CDCF800C0CCF3881C07FB13
:100710000CF4174F3F1F3F68C7F301477F1C7D0054
:10072000B4FBF5F7076002E0124F076000BF00BF9F
:100730000F4F3F6807F0F0010909104F7A5C076816
:10074000D74047600A4F3F6807F4E051890A0B4FD2
:100750007A5C4768D7408760054F3F6807F460417F
:10076000490B064F7A5C4768D740C760F0BD000070
:10077000083802400024F40000127A0048000020EB
:10078000704700000CB500200190009034480068CC
:1007900040F480303249086000BF3148006800F4FE
:1007A000003000900198401C0190009818B9019801
:1007B000B0F5A04FF1D12A48006800F4003010B124
:1007C0000120009001E0002000900098012846D10F
:1007D00023484030006840F0805021494031086093
:1007E0002048006840F440401E4908601C4808301A
:1007F00000681B49083108600846006840F4004062
:1008000008600846006840F4A05008601648091FB8
:100810000860081F006840F08070091F086000BF72
:100820000F48006800F000700028F9D040F2057011
:100830000E4908600A480830006820F003000849A3
:10084000083108600846006840F00200086000BFF8
:1008500003480830006800F00C000828F8D10CBDEF
:10086000003802400070004008544007003C02403D
:100870000448D0E900305A1C40F100000149C1E9A8
:10088000002070471800002010B500F099F800F023
:10089000D9F9FFF7EDFF10BD70B50020002202234B
:1008A00000240221274D2D6805F00C0020B10428FA
:1008B00006D0082834D107E0234D244E356033E0BC
:1008C000234D224E35602FE01E4D2D1F2D68C5F3A0
:1008D00080541C4D2D1F2D6805F03F0154B11C4D57
:1008E000B5FBF1F5174E361F3668C6F3881605FBC3
:1008F00006F209E0144DB5FBF1F5124E361F3668CD
:10090000C6F3881605FB06F20E4D2D1F2D68C5F3A4
:1009100001456D1C6B00B2FBF3F50C4E356003E036
:10092000094D0A4E356000BF00BF064D2D68C5F366
:100930000315084E705D054D2D68C540034E3560AA
:1009400070BD0000083802400024F400340000208C
:1009500000127A003800002010B51548006840F4F5
:100960007000134908601348006840F00100114905
:10097000086000200F49083108600E4800680E49E1
:1009800008400C4908600D48091D0860081F0068F0
:1009900020F48020091F0860002006490C310860FF
:1009A000FFF7F0FE4FF0006001498039086010BD8C
:1009B00088ED00E000380240FFFFF6FE1030002412
:1009C0000448006820B103480068401E01490860DF
:1009D000704700002000002021B1828942F40052BB
:1009E000828104E082894DF6FF731A40828170474C
:1009F0001CB501210846FFF72FFE02208DF80400E8
:100A000000208DF8060001208DF8070000208DF8E9
:100A100005004FF40070009069460A48FFF732FC69
:100A20004FF48060009069460648FFF72BFC0722D0
:100A300009210448FFF76EFC07220A210148FFF74D
:100A400069FC1CBD0000024002460020B1F5007F99
:100A500000D100BF13880B400BB1012000E0002043
:100A6000704700002DE9FF4705460E460024A146C9
:100A700000BFA046B08900B100BF2C8A24F44054C6
:100A8000F08804432C82AC8941F20C608443B08826
:100A900031890843718908430443AC81AC8A24F44A
:100AA0004074B0890443AC826846FFF7F5FD2048E6
:100AB000854202D01F48854202D1DDF80C9001E04A
:100AC000DDF80890A88900F4004040B109EBC900A6
:100AD00000EB091031684900B0FBF1F707E009EBC2
:100AE000C90000EB091031688900B0FBF1F7642000
:100AF000B7FBF0F004012009642101FB1078A889FC
:100B000000F4004040B1322000EBC800B0FBF1F02F
:100B100000F00700044308E0322000EB08106421D5
:100B2000B0FBF1F000F00F0004432C81BDE8FF871B
:100B30000010014000140140C1F308028280704798
:100B400000BFFEE71FB501211020FFF795FDFFF75D
:100B50004FFF4FF4E13000900020ADF80400ADF8F5
:100B60000600ADF808000C20ADF80A000020ADF832
:100B70000C0069460348FFF775FF01210148FFF7A4
:100B80002BFF1FBD00100140014A024900F013B8BD
:100B9000210C00085800002002E008C8121F08C1FC
:100BA000002AFAD170477047002001E001C1121FEE
:100BB000002AFBD170472DE9F04116460F46044646
:100BC000002503E03946B047641C6D1C20780028DE
:100BD000F8D12846BDE8F08170B505460F48007889
:100BE00008B100F035F9FFF755FC0C48007880B1EA
:100BF000FFF718FD002406E0FFF74CFC8720FFF705
:100C000037FB601C84B20F2CF6DB00200349087010
:100C100003E0FFF77FFC0149087070BD2E00002043
:100C200070B504460D46E1B20548FFF785FF00BFE9
:100C300080210348FFF708FF0028F9D0204670BD47
:100C4000001001400F480068812819D24FF400704D
:100C50000D49088308830883088308830883088371
:100C6000088308830883088308830883088305486A
:100C70000068401C034908604FF400700249488333
:100C800070470000240000200010024000BFFFF762
:100C900063FEFFF7BDFAFFF765FBFFF753FFFFF7B2
:100CA000DBFB0EA0FFF770FFFFF7F6FD4FF4A0602F
:100CB000FFF7C6FC0DA0FFF767FF1148D0E9001051
:100CC000104AC2E900100E48D0E900100E4AC2E9ED
:100CD000001001E0FFF75EFBFCE70000737973741E
:100CE000656D2073746172742E0D0A0061667465FF
:100CF00072206D626920696E69740D0A000000003F
:100D000018000020080000201000002010B58020EE
:100D10000E4908830120FFF7ABFA0E240CE02020D7
:100D20000A4908830120FFF7A3FA202007494883D6
:100D30000120FFF79DFA641E002CF0D180200349AA
:100D400048830220FFF794FA10BD00000010024013
:100D50002DE9F04140F6EB7700252BE0002425E05B
:100D60004FF4004040FA04F63DB90C2C05D1802028
:100D7000164908830120FFF77BFA07EA060020B135
:100D80004FF480701149088303E04FF480700F49DD
:100D900048830120FFF76CFA20200C4908830120CA
:100DA000FFF766FA202009494883641C102CD7D32A
:100DB000681C85B2012DD1DB8020044948834000A6
:100DC00048830220FFF754FABDE8F081001002408A
:100DD0002DE9F0414FF4806700252BE0002425E049
:100DE0004FF4004040FA04F63DB9082C05D18020AC
:100DF000164908830120FFF73BFA07EA060020B1F5
:100E00004FF480701149088303E04FF480700F495C
:100E100048830120FFF72CFA20200C490883012089
:100E2000FFF726FA202009494883641C102CD7D3E9
:100E3000681C85B2012DD1DB802004494883400025
:100E400048830220FFF714FABDE8F0810010024049
:100E500010B56420FFF70CFA80200D4908830024A8
:100E60000CE00120FFF704FA202009490883012043
:100E7000FFF7FEF9202006494883641C022CF0D3BA
:100E80008020034948830120FFF7F2F910BD0000DC
:100E900000100240B40E0008000000205C000000BA
:100EA000980B0008100F00085C00002044050000AB
:100EB000A80B000800000000000000000000000077
:100EC0000000000000000000000000000000000022
:100ED0000000000000000000FF000000FFFF010014
:100EE0000000010100000000007A030A0000000079
:100EF00000000000010203040607080900000000CA
:100F000001020304010203040607080900000000AF
:040000050800018965
:00000001FF
