:020000040800F2
:10000000380400209D010008F1040008670300087F
:10001000ED04000811020008DD0B000800000000DC
:10002000000000000000000000000000350600088D
:100030001502000800000000090500082507000857
:10004000B7010008B7010008B7010008B7010008B0
:10005000B7010008B7010008B7010008B7010008A0
:10006000B7010008B7010008B7010008B701000890
:10007000B7010008B7010008B7010008B701000880
:10008000B7010008B7010008B7010008B701000870
:10009000B7010008B7010008B7010008B701000860
:1000A000B7010008B7010008B7010008B701000850
:1000B000B7010008B7010008B7010008B701000840
:1000C000B7010008B7010008B7010008B701000830
:1000D000B7010008B7010008B7010008B701000820
:1000E000B7010008B7010008B7010008B701000810
:1000F000B7010008B7010008B7010008B701000800
:10010000B7010008B7010008B7010008B7010008EF
:10011000B7010008B7010008B7010008B7010008DF
:10012000B7010008B7010008B7010008B7010008CF
:10013000B7010008B7010008B7010008B7010008BF
:10014000B7010008B7010008B7010008B7010008AF
:10015000B7010008B7010008B7010008B70100089F
:10016000B7010008B7010008B7010008B70100088F
:10017000B7010008B7010008B7010008B70100087F
:10018000B7010008B7010008DFF80CD000F02EF826
:1001900000480047DD0D000838040020064880476D
:1001A00006480047FEE7FEE7FEE7FEE7FEE7FEE75C
:1001B000FEE7FEE7FEE7FEE7ED070008890100081D
:1001C00030B50B46014600202022012409E021FA27
:1001D00002F59D4205D303FA02F5491B04FA02F524
:1001E0002844151EA2F10102F1DC30BD064C074D7A
:1001F00006E0E06840F0010394E8070098471034F7
:10020000AC42F6D3FFF7C4FF3C1000085C100008B6
:1002100000BFFEE77047000030B513480068134A7E
:10022000B0FBF2F1481EB0F1807F00D31BE0481E06
:100230004FF0E022506150170F22002807DA130711
:100240001D0E0B4B00F00F04241F1D5503E0130778
:100250001C0E084B1C5400BF00204FF0E0229061A0
:100260000720106100BF30BD0C000020A0860100F7
:1002700018ED00E000E400E00349086000BF024917
:1002800009680029FBD1704704000020F0B50A4638
:1002900000210023002400BF3DE0012505FA01F301
:1002A000156805EA03049C4234D105684F00032613
:1002B000BE40B543056015794E00B540066835432C
:1002C00005601579012D02D01579022D16D18568AA
:1002D0004F000326BE40B543856055794E00B540BA
:1002E000866835438560456801268E40B543456084
:1002F000456896798E40B6B235434560C5684F0073
:100300000326BE40B543C560D5794E00B540C668EA
:100310003543C560491C1029BFD3F0BDF0B500239B
:1003200000244D07ED0E02FA05F3CE1000F1200572
:1003300055F826504E07F70E0F26BE40B543CF1096
:1003400000F1200646F82750CE1000F1200555F8A0
:10035000265045EA0304CE1000F1200545F826405A
:10036000F0BD4183704700BFFEE700001CB50121CE
:10037000102000F0CBF800208DF8040001208DF84B
:10038000070000208DF80500102000906946024803
:10039000FFF77CFF1CBD0000001002401CB50121CE
:1003A000202000F0B3F801208DF8040000208DF823
:1003B000060001208DF8070000208DF805004FF49D
:1003C000C060009069460448FFF760FF4FF4C061C9
:1003D0000148FFF7C6FF1CBD001402402DE9F041A3
:1003E00000274CE0002546E00A20FFF745FF0026E5
:1003F00035E000242FE04FF4004040FA04F826B91D
:100400000F2C02D18020214908832149098801EA63
:10041000080171B11F490878C11700EB117109116A
:10042000A0EB0111A94204D14FF480701749088351
:1004300003E04FF48070154948830120FFF71CFF4B
:100440002020124908830120FFF716FF20200F49C2
:100450004883601C84B2102CCDDB701C86B2012E48
:10046000C7DB802009494883400048830120FFF70B
:1004700003FF681C85B2102DB6DB781C87B2012FF4
:10048000B0DB00F0ABFDBDE8F081000000100240E1
:1004900008000020000000201CB50121102000F001
:1004A00035F801208DF8040000208DF806008DF845
:1004B00007008DF805004FF4D0700090694604489D
:1004C000FFF7E4FE4FF4D0710148FFF74AFF1CBD6F
:1004D0000010024010B500F0DFFC00F0FFFC00F05F
:1004E000DBFC00F03BFD00F079FD10BD00BFFEE736
:1004F0007047000002490143024A11607047000042
:100500000000FA050CED00E07047000029B1064A32
:1005100012680243044B1A6004E0034A12688243E3
:10052000014B1A60704700003038024029B1064A7A
:1005300012680243044B1A6004E0034A12688243C3
:10054000014B1A607047000044380240F0B50021AA
:1005500000220024022500260223324F3F6807F0C4
:100560000C0121B1042905D0082937D105E02E4F0F
:10057000076036E02D4F076033E02A4F3F1F3F688A
:10058000C7F38056274F3F1F3F6807F03F036EB108
:10059000264FB7FBF3F7DFF88CC0ACF1040CDCF8A6
:1005A00000C0CCF3881C07FB0CF40CE01E4FB7FB1B
:1005B000F3F7DFF870C0ACF1040CDCF800C0CCF34A
:1005C000881C07FB0CF4174F3F1F3F68C7F3014718
:1005D0007F1C7D00B4FBF5F7076002E0124F076057
:1005E00000BF00BF0F4F3F6807F0F0010909104F2F
:1005F0007A5C0768D74047600A4F3F6807F4E051CC
:10060000890A0B4F7A5C4768D7408760054F3F687F
:1006100007F46041490B064F7A5C4768D740C760D2
:10062000F0BD0000083802400024F40000127A00F7
:1006300020000020704700000CB5002001900090C1
:100640003448006840F480303249086000BF3148C7
:10065000006800F4003000900198401C0190009860
:1006600018B90198B0F5A04FF1D12A48006800F4FC
:10067000003010B10120009001E0002000900098AF
:10068000012846D123484030006840F0805021497D
:10069000403108602048006840F440401E4908602E
:1006A0001C48083000681B4908310860084600688B
:1006B00040F4004008600846006840F4A05008601C
:1006C0001648091F0860081F006840F08070091F65
:1006D000086000BF0F48006800F000700028F9D0E3
:1006E00040F205700E4908600A480830006820F0A2
:1006F00003000849083108600846006840F002001D
:10070000086000BF03480830006800F00C000828AB
:10071000F8D10CBD0038024000700040085440077A
:10072000003C024010B500F099F910BD70B50020F2
:100730000022022300240221274D2D6805F00C0021
:1007400020B1042806D0082834D107E0234D244ED8
:10075000356033E0234D224E35602FE01E4D2D1FB6
:100760002D68C5F380541C4D2D1F2D6805F03F01E9
:1007700054B11C4DB5FBF1F5174E361F3668C6F364
:10078000881605FB06F209E0144DB5FBF1F5124E93
:10079000361F3668C6F3881605FB06F20E4D2D1F70
:1007A0002D68C5F301456D1C6B00B2FBF3F50C4ED3
:1007B000356003E0094D0A4E356000BF00BF064DAD
:1007C0002D68C5F30315084E705D054D2D68C540B5
:1007D000034E356070BD0000083802400024F4006C
:1007E0000C00002000127A001000002010B51548FF
:1007F000006840F47000134908601348006840F036
:1008000001001149086000200F49083108600E48B6
:1008100000680E4908400C4908600D48091D086031
:10082000081F006820F48020091F08600020064986
:100830000C310860FFF700FF4FF00060014980397C
:10084000086010BD88ED00E000380240FFFFF6FEB2
:100850001030002430B58BB004460D460121084607
:10086000FFF764FE01211020FFF750FE012209214D
:100870001E48FFF753FD4FF40070099002208DF8D9
:10088000280003208DF8290000208DF82A0002207E
:100890008DF82B0009A91548FFF7F8FCA8B2ADF8B0
:1008A00018000020ADF81A000794ADF8200006A942
:1008B0000F4800F091F86020ADF804000120ADF879
:1008C00006000220ADF8100001A9094800F03AF82E
:1008D0000821074800F074F80121054800F00AF8E3
:1008E0000121034800F012F80BB030BD00100240A7
:1008F0000000014021B1028842F08002028004E041
:1009000002884FF67F731A400280704721B1028837
:1009100042F00102028004E002884FF6FE731A40A2
:100920000280704731B1B0F8442042F40042A0F890
:10093000442005E0B0F84420C2F30E02A0F84420A1
:100940007047000070B5002400220023058C4FF68C
:10095000FE7635400584028C8388048B4FF68F75B4
:100960002C40B51E2C400D882C43751E2A408D89C5
:100970002A434D882A43104DA84202D00F4DA84269
:1009800013D14FF6F7752A40CD892A434FF6FB75F0
:100990002A408D882A434FF6FF652B404FF6FF55BE
:1009A0002B400D8A2B434D8A2B43838004838D6813
:1009B0004563028470BD0000000001400004014056
:1009C0000A460021018B4FF6F7731940114301834A
:1009D000704741637047000000220288184B98421C
:1009E0000ED0184B98420BD0B0F1804F08D0164B68
:1009F000984205D0154B984202D0154B984204D12D
:100A00004FF68F731A404B881A43124B984207D007
:100A1000114B984204D04FF6FF431A400B891A43FA
:100A200002804B68C3620B880385054B984202D055
:100A3000044B984201D18B7A03860123838270474D
:100A40000000014000040140000400400008004094
:100A5000000C0040001000400014004004480068F2
:100A600020B103480068401E01490860704700003B
:100A70000400002021B1828942F40052828104E006
:100A800082894DF6FF731A40828170471CB501219F
:100A90000846FFF73BFD02208DF8040000208DF88A
:100AA000060001208DF8070000208DF805004FF4A6
:100AB0000070009069460A48FFF7E8FB4FF4806039
:100AC000009069460648FFF7E1FB07220921044828
:100AD000FFF724FC07220A210148FFF71FFC1CBD79
:100AE0000000024002460020B1F5007F00D100BFA7
:100AF00013880B400BB1012000E00020704700007C
:100B00002DE9FF4705460E460024A14600BFA0463A
:100B1000B08900B100BF2C8A24F44054F08804430B
:100B20002C82AC8941F20C608443B088318908433F
:100B3000718908430443AC81AC8A24F44074B089C1
:100B40000443AC826846FFF701FD2048854202D08D
:100B50001F48854202D1DDF80C9001E0DDF80890D5
:100B6000A88900F4004040B109EBC90000EB09106E
:100B700031684900B0FBF1F707E009EBC90000EB71
:100B8000091031688900B0FBF1F76420B7FBF0F081
:100B900004012009642101FB1078A88900F40040B9
:100BA00040B1322000EBC800B0FBF1F000F00700CC
:100BB000044308E0322000EB08106421B0FBF1F0A0
:100BC00000F00F0004432C81BDE8FF8700100140B6
:100BD00000140140C1F308028280704700BFFEE7A5
:100BE0001FB501211020FFF7A1FCFFF74FFF4FF4C5
:100BF000E13000900020ADF80400ADF80600ADF83B
:100C000008000C20ADF80A000020ADF80C00694681
:100C10000348FFF775FF01210148FFF72BFF1FBDB8
:100C2000001001400FB4054B10B503A9044A029807
:100C300000F018F810BC5DF814FB0000B90D0008B6
:100C40003000002002E008C8121F08C1002AFAD1B3
:100C500070477047002001E001C1121F002AFBD13C
:100C6000704700002DE9FF4F89B09B4604460025E0
:100C700006E025280BD05A460B999047641C6D1C42
:100C800020780028F5D10DB02846BDE8F08F002768
:100C9000B8460122474900E0074314F8013F203BD2
:100CA00002FA03F00842F7D120782E2819D114F85F
:100CB000010F47F004072A280ED06FF02F0220788A
:100CC000A0F1300109290CD808EB880102EB4101A1
:100CD00000EB0108641CF2E70A98641C50F8048BCE
:100CE0000A9020780028CED0642808D0692806D041
:100CF00075281ED05A460B9990476D1C58E00A99EA
:100D00004FF00A0901C90A91002802DA40422D2158
:100D100002E0390504D52B218DF82010012103E0D4
:100D2000F90704D02021F7E78A4608AE0DE000213C
:100D3000FAE70A994FF00A0901C90A91F7E749460B
:100D4000FFF73EFA303106F8011D0028F7D1ADEB70
:100D5000060000F12009780701D44FF00108C845CA
:100D600002DDA8EB090000E000208046002706E035
:100D700008A85A46C05D0B9990476D1C7F1C5745CB
:100D8000F6DB04E030205A460B9990476D1CB8F111
:100D90000001A8F10108F5DC05E016F8010B5A4640
:100DA0000B9990476D1CB9F10001A9F10109F4DC20
:100DB000641C65E70928010070B504460D46E1B2E0
:100DC0000548FFF707FF00BF80210348FFF78AFEB1
:100DD0000028F9D0204670BD0010014000BFFFF789
:100DE00005FDFFF719FAFFF7D9FAFFF7BFFAFFF78A
:100DF000F7FEFFF751FB19A0FFF714FFFFF796FC72
:100E00004FF4A060FFF776FB05216320FFF722FD7A
:100E100032211648FFF7DDFD01211448FFF782FD5E
:100E2000FFF758FB12A0FFF7FDFE15E0FFF7D6FA1B
:100E300014480478E01704EB10700011A4EB0011C3
:100E400011A0FFF7EFFE0F480078401C0D49087015
:100E50004CF25030FFF710FAE8E700007379737432
:100E6000656D2073746172742E0D0A0000000140DC
:100E70006166746572206D626920696E69740D0A1D
:100E80000000000000000020636972637569743A15
:100E900025640D0A0000000010B580200E4908836B
:100EA0000120FFF7E9F90E240CE020200A4908830D
:100EB0000120FFF7E1F92020074948830120FFF7CF
:100EC000DBF9641E002CF0D1802003494883022006
:100ED000FFF7D2F910BD0000001002402DE9F041EB
:100EE0006B2700252BE0002425E04FF4004040FA5A
:100EF00004F63DB90C2C05D1802017490883012048
:100F0000FFF7BAF907EA060020B14FF480701249E2
:100F1000088303E04FF480700F4948830120FFF7F6
:100F2000ABF920200C4908830120FFF7A5F9202008
:100F300009494883641C102CD7D3681C85B2012D45
:100F4000D1DB802004494883400048830220FFF71A
:100F500093F9BDE8F0810000001002402DE9F04156
:100F60004FF4806700252BE0002425E04FF400407B
:100F700040FA04F63DB9082C05D1802016490883B3
:100F80000120FFF779F907EA060020B14FF48070DD
:100F90001149088303E04FF480700F494883012012
:100FA000FFF76AF920200C4908830120FFF764F954
:100FB000202009494883641C102CD7D3681C85B2B3
:100FC000012DD1DB80200449488340004883022062
:100FD000FFF752F9BDE8F0810010024010B5154846
:100FE000008820F00100134908800A20FFF744F927
:100FF00080201149088300240CE00120FFF73CF910
:1010000020200D4908830120FFF736F920200A49E6
:101010004883641C022CF0D38020074948830A20AF
:10102000FFF72AF90348008840F0010001490880D1
:1010300010BD000000000140001002405C100008DC
:101040000000002034000000440C0008901000084C
:101050003400002004040000540C000800000000CC
:1010600000000000FF050000007A030A00000000F5
:101070000000000001020304060708090000000048
:10108000010203040102030406070809000000002E
:040000050800018965
:00000001FF
