:020000040800F2
:10000000A8B60020E5010008250200082702000824
:100010008B020008EF0200085303000800000000F4
:10002000000000000000000000000000B70300080E
:10003000B903000800000000BB030008BD0300086E
:10004000FF010008FF010008FF010008FF01000890
:10005000FF010008FF010008FF010008FF01000880
:10006000FF010008FF010008FF010008FF01000870
:10007000FF010008FF010008FF010008FF01000860
:10008000FF010008FF010008FF010008FF01000850
:10009000FF010008FF010008FF010008FF01000840
:1000A000FF010008FF010008FF010008FF01000830
:1000B000FF010008FF010008FF010008FF01000820
:1000C000FF010008FF010008FF010008FF01000810
:1000D000FF0100081B1D0008FF010008FF010008C8
:1000E000FF010008FF010008FF010008FF010008F0
:1000F000FF010008FF010008FF010008FF010008E0
:10010000FF010008E13D0008FF010008FF010008B1
:10011000FF010008FF010008FF010008FF010008BF
:10012000FF010008FF010008FF010008FF010008AF
:1001300000F002F800F047F80AA090E8000C8244B2
:100140008344AAF10107DA4501D100F03CF8AFF28F
:10015000090EBAE80F0013F0010F18BFFB1A43F0A5
:1001600001031847A49E0000C49E0000103A24BF5B
:1001700078C878C1FAD8520724BF30C830C144BF0C
:1001800004680C607047000000230024002500264E
:10019000103A28BF78C1FBD8520728BF30C148BFEA
:1001A0000B607047642908F05F81782908F094811A
:1001B000732908F0AA83002070471FB5AFF30080B1
:1001C0001FBD10B510BD08F0DEFB1146FFF7F5FFAF
:1001D00001F07AFE08F0FCFBFFF7F3FF01F038FDB9
:1001E00030BF00000948804709480047FEE7FEE7A6
:1001F000FEE7FEE7FEE7FEE7FEE7FEE7FEE7FEE7D7
:1002000004480549054A064B70470000B10500083F
:1002100031010008A8B00020A8B60020A8B2002034
:10022000A8B2002070471CB54FF6FF7004F02BF801
:1002300063A008F0A5F827E04FF6FF734FF478426B
:10024000CDE90023102365A240F22F11002004F015
:100250005DFDC82001F049FB4FF6FF734FF4784273
:10026000CDE90023102363A240F22F11002004F0F7
:100270004DFDC82001F039FB6448006808B9012031
:1002800000E0002061490860D6E71CB54FF6FF701A
:1002900003F0F9FF5EA008F073F827E04FF6FF7354
:1002A0004FF47842CDE90023102360A240F22F11D1
:1002B000002004F02BFDC82001F017FB4FF6FF7360
:1002C0004FF47842CDE9002310234AA240F22F11C7
:1002D000002004F01BFDC82001F007FB4B4800681C
:1002E00008B9012000E0002048490860D6E71CB5A5
:1002F0004FF6FF7003F0C7FF52A008F041F827E067
:100300004FF6FF734FF47842CDE90023102354A237
:1003100040F22F11002004F0F9FCC82001F0E5FAAA
:100320004FF6FF734FF47842CDE90023102352A219
:1003300040F22F11002004F0E9FCC82001F0D5FAAA
:100340003248006808B9012000E000202F49086009
:10035000D6E71CB54FF6FF7003F095FF4CA008F0F0
:100360000FF827E04FF6FF734FF47842CDE90023F2
:1003700010234FA240F22F11002004F0C7FCC82028
:1003800001F0B3FA4FF6FF734FF47842CDE9002342
:1003900010234EA240F22F11002004F0B7FCC82019
:1003A00001F0A3FA1948006808B9012000E0002014
:1003B00016490860D6E770477047704770470000DD
:1003C0000D0A486172644661756C745F48616E64C1
:1003D0006C6572204552524F520D0A00486172649A
:1003E0004661756C745F48616E646C65722045523D
:1003F000524F52002020202020202020202020208A
:100400002020202020202020202020009401234292
:100410000D0A4D656D4D616E6167655F48616E6483
:100420006C6572204552524F520D0A004D656D4D5C
:10043000616E6167655F48616E646C6572204552EC
:10044000524F52000D0A4275734661756C745F48D5
:10045000616E646C6572204552524F520D0A000065
:100460004275734661756C745F48616E646C657249
:10047000204552524F5200002020202020202020D2
:1004800020202020202020202020202020200000AC
:100490000D0A55736167654661756C745F48616EDE
:1004A000646C6572204552524F520D0A00000000E4
:1004B00055736167654661756C745F48616E646C05
:1004C0006572204552524F5200000000202020202B
:1004D000202020202020202020202020202020201C
:1004E000202020200000000000200021674A126820
:1004F00042F48032654B1A6000BF644A126802F40D
:100500000031401C11B9B0F5A06FF6D15F4A1268F6
:1005100012F4003F01D0012100E00021012942D165
:100520005B4A126842F01002594B1A601A46126870
:1005300022F003021A601A46126842F002021A60A0
:10054000524A5268514B5A601A4652685A601A46CB
:10055000526842F480625A601A46526822F47C1251
:100560005A601A46526842F4E8125A601A461268F3
:1005700042F080721A6000BF444A126812F0007F95
:10058000FAD0424A526822F00302404B5A601A469F
:10059000526842F002025A6000BF3C4A526802F0C0
:1005A0000C02082AF9D1704710B5FFF79DFF10BD66
:1005B00010B53648006840F001003449086008462C
:1005C000406834490840314948600846006832496B
:1005D00008402E4908600846006820F48020086022
:1005E0000846406820F4FE0048604FF41F00886011
:1005F000FFF7DAFF4FF000602849086010BD10B522
:10060000002000210022214B5B6803F00C0020B188
:10061000042806D0082828D107E0214B214C23606C
:1006200027E01F4B1F4C236023E0184B5B6803F44B
:100630007011164B5B6803F48032022303EB914187
:1006400022B9194B4B43174C23600DE00F4B5B68ED
:1006500013F4003F04D0144B4B43124C236003E0CF
:100660000F4B4B430F4C236003E00D4B0D4C2360AD
:1006700000BF00BF054B5B68C3F303130B4CE05C8A
:10068000084B1B68C340074C236010BD001002409C
:10069000002002400000FFF8FFFFF6FE08ED00E03A
:1006A00000127A000000002000093D000400002034
:1006B00032490143324A1160704770B5002100236E
:1006C0000F22C4780CB32E4C246804F4E064C4F503
:1006D000E064210AC1F10403CA40447804FA03F13A
:1006E0008478144021430901264C0678A1550478EA
:1006F00004F01F050124AC4005786D114FF0E02691
:1007000006EB8505C5F8004109E0047804F01F04F4
:100710000125A5401C4C0678761144F8265070BD82
:100720001A4A0A400243164B1B1F1A60704741B118
:10073000134A121D126802434FF0E023C3F8102D34
:1007400007E00F4A121D126882434FF0E023C3F8FE
:10075000102D7047042808D14FF0E021096941F0BD
:1007600004014FF0E022116107E04FF0E021096938
:1007700021F004014FF0E022116170470000FA05FA
:100780000CED00E000E400E080E100E080FFFF1FEE
:1007900030B943F2DB014FF0204242F8201005E06F
:1007A00043F2D2014FF0204242F820106FF0704225
:1007B000411C4FF0204343F8212011461A4602EB1A
:1007C0008002C2F80411704710280AD118214FF096
:1007D00020421166402151664FF0FC319166D1668E
:1007E00010E01821FA4A116040214FF02042C2F86F
:1007F00084104FF0FC31F64A083211604FF020426D
:10080000C2F88C1070471820F14920310860002090
:100810000906C1F8A4004FF0FC30ED49283108600A
:10082000091D0860091D08607047D0E901121143D5
:10083000C26811430269114342691143826911433D
:10084000C2691143026A1143426A1143826A114329
:10085000C26A1143026B11434FF02043026843F810
:1008600022108168082908D11A46016852F821101F
:1008700041F04001026843F82210416B0968426B65
:10088000526841EA0211426B926841EA0221426BCE
:10089000D26841EA0241426B126941EA0251426B5D
:1008A000526941EA0261426B926911430268521C2B
:1008B0004FF0204343F82210C16AB1F5804F1AD19E
:1008C000816B0968826B526841EA0211826B9268FF
:1008D00041EA0221826B126941EA0251826B52693C
:1008E00041EA0261826B92691143026803EB820262
:1008F000C2F8041108E06FF070414FF02043026825
:1009000003EB8202C2F80411704730B500210022C7
:100910000023446844F0080485682C43C5682C43D0
:1009200005692C43456944EA4524856944EA453113
:10093000C4692468C5696D6844EA0524C569AD6861
:1009400044EA0544C569ED6844EA0562046A24681E
:10095000056A6D6844EA0524056AAD6844EA054401
:10096000056AED6844EA05630468102C05D14FF070
:1009700020442166A266E36608E0954C21604FF0B2
:100980002044C4F88820924C0C34236030BD0168A8
:1009900041F01001426841EA4221826841EA423155
:1009A0008B4A20321160C1680968C268526841EA06
:1009B0000221C268926841EA0241C268D26841EAF3
:1009C0000261834A2832116001690968026952682C
:1009D00041EA02210269926841EA02410269D26851
:1009E00041EA02617A4A2C32116041690968426920
:1009F000526841EA02214269926841EA0241426931
:100A0000D26841EA02614FF02042C2F8B01070474C
:100A1000002101600221416000218160C16001610B
:100A200041618161C16101624FF4805141624900BD
:100A300081620021C16201630F21426B1160426B30
:100A40005160FF21426B91600F21426BD160426B7C
:100A50001161426B51610021426B91610F21826BE8
:100A60001160826B5160FF21826B91600F21826B5C
:100A7000D160826B1161826B51610021826B916147
:100A8000704710210160002141608160C1600161F7
:100A900041618161FC21C2691160C2695160C26912
:100AA0009160C269D160026A1160026A5160026A93
:100AB0009160026AD16070470021016041608160ED
:100AC000FC21C2681160C2685160C2689160C2684E
:100AD000D160026911600269516002699160026926
:100AE000D160426911604269516042699160426916
:100AF000D160704751B14FF0204252F8202042F0AF
:100B000001024FF0204343F8202009E04FF020423B
:100B100052F820202F4B1A404FF0204343F820205A
:100B2000704799B1102808D14FF02042126E42F060
:100B300004024FF020431A661DE0254A126842F075
:100B400004024FF02043C3F8802014E0102809D19C
:100B50004FF02042126E1F4BDB1E1A404FF0204315
:100B60001A6608E01A4A12681A4BDB1E1A404FF048
:100B70002043C3F88020704748B1154920310968E7
:100B800041F004014FF02042C2F8A01009E01049E2
:100B9000203109680F4AD21E11404FF02042C2F89E
:100BA000A0107047C1B1102808D14FF02042126E3A
:100BB00042F040024FF020431A6620E0044A1268D7
:100BC00042F040024FF02043C3F8802017E00000BD
:100BD000800000A0FEFF0F00102808D14FF0204237
:100BE000126E6B4B1A404FF020431A6607E0694AB9
:100BF0001268674B1A404FF02043C3F880207047BB
:100C000001460020102903D14FF02042506F02E02E
:100C1000604A14321068704710B5F2B1102807D13D
:100C20004FF020435B6E0B434FF02044636632E08D
:100C3000B0F5807F08D1574B1B1D1B680B434FF04D
:100C40002044C4F8843026E0524B24331B680B4305
:100C50004FF02044C4F8A4301DE0102807D14FF015
:100C600020435B6E8B434FF02044636613E0B0F586
:100C7000807F08D1474B1B1D1B688B434FF02044DE
:100C8000C4F8843007E0434B24331B688B434FF098
:100C90002044C4F8A43010BD10B503460020002243
:100CA000102B03D14FF02044626E09E0B3F5807F32
:100CB00003D1384C241D226802E0364C24342268CB
:100CC0000A4201D0012000E0002010BD102807D109
:100CD0004FF02042526E8A434FF020435A6613E091
:100CE000B0F5807F08D12B4A121D12688A434FF05D
:100CF0002043C3F8842007E0264A243212688A433E
:100D00004FF02043C3F8A420704770B5024600207E
:100D1000002300240025102A03D14FF02046736ED3
:100D200009E0B2F5807F03D11A4E361D336802E028
:100D3000184E2436336803EA010403EAD10514B1DE
:100D40000DB1012000E0002070BD102808D14FF047
:100D50002042526E22EAD1024FF020435A6615E03B
:100D6000B0F5807F09D10B4A121D126822EAD10228
:100D70004FF02043C3F8842008E0064A243212686A
:100D800022EAD1024FF02043C3F8A42070470000AC
:100D9000BFFF0F00800000A010B50446C748844282
:100DA00008D10121042000F01BFB0021042000F0E9
:100DB00017FB46E0C248844208D10121082000F018
:100DC0000FFB0021082000F00BFB3AE0BD488442F5
:100DD00008D10121102000F003FB0021102000F0B9
:100DE000FFFA2EE0B848844208D10121202000F00B
:100DF000F7FA0021202000F0F3FA22E0B348844201
:100E000008D10121402000F0EBFA0021402000F041
:100E1000E7FA16E0AE48844208D10121802000F0B4
:100E2000DFFA0021802000F0DBFA0AE0A9488442C2
:100E300007D10121801500F0D3FA0021A01500F0A0
:100E4000CFFA10BD10B50121084600F0C9FA002103
:100E5000012000F0C5FA10BDF0B5002200230024E7
:100E600000250026002791F803C00CF00F0291F82E
:100E700003C01CF0100F03D091F802C04CEA02022C
:100E8000B1F800C01CF0FF0F31D0066800242BE041
:100E90004FF0010C0CFA04F5B1F800C00CEA0503A0
:100EA000AB4220D1A5004FF00F0C0CFA05F7BE4362
:100EB00002FA05FC4CEA060691F803C0BCF1280FC3
:100EC00006D14FF0010C0CFA04FCC0F814C00AE083
:100ED00091F803C0BCF1480F05D14FF0010C0CFA9A
:100EE00004FCC0F810C0641C082CD1D30660B1F813
:100EF00000C0BCF1FF0F34DD466800242EE004F191
:100F0000080C4FF0010E0EFA0CF5B1F800C00CEA17
:100F10000503AB4221D1A5004FF00F0C0CFA05F7E9
:100F2000BE4302FA05FC4CEA060691F803C0BCF188
:100F3000280F05D104F1080C0EFA0CFEC0F814E0DD
:100F400091F803C0BCF1480F07D104F1080C4FF031
:100F5000010E0EFA0CFEC0F810E0641C082CCED373
:100F60004660F0BD4FF6FF710180022181700421BF
:100F7000C17070470246002093680B4201D00120E7
:100F800000E0002070470146886880B27047024642
:100F90000020D3680B4201D0012000E00020704700
:100FA0000146C86880B2704701617047416170476F
:100FB0000AB1016100E041617047C16070474FF4C0
:100FC00080320A43826181618261826982697047ED
:100FD0000022414B1A684FF680731A4042EA001211
:100FE0000A433D4B1A6070473C49C8617047F0B5F1
:100FF000002200230024002500F00046B6F1004F37
:1010000002D1354EF46901E0334E7468C0F30345F4
:1010100082B200F44016B6F5401F08D124F0706487
:101020002D4E766826F070662B4F7E6012E000F43D
:101030008016B6F5801F06D1032606FA05F39C43F9
:1010400044F0706406E0460D360102FA06F6B44339
:1010500044F0706421B1460D360102FA06F63443BD
:1010600000F00046B6F1004F02D11B4EF46101E0E2
:10107000194E7460F0BD30B500228B071C0F0F2392
:1010800003FA04F2144B08338C1053F824409443B1
:101090008D1043F825408C1053F824308C07240F12
:1010A00000FA04F423430C4C08348D1044F8253026
:1010B00030BD0A49DC31086070470000000801407B
:1010C000000C0140001001400014014000180140D4
:1010D000001C0140002001400000014000002042AF
:1010E000DB48006840F00100D949086008464068C4
:1010F000D8490840D649486008460068D6490840A3
:10110000D34908600846006820F48020086008463B
:10111000406820F4FE0048604FF41F00886070476C
:10112000CB49096821F48031C94A11601146096828
:1011300021F480211160B0F5803F03D0B0F5802FFD
:101140000ED106E0C249096841F48031C04A1160FD
:1011500007E0BF49096841F4A021BD4A116000E0E1
:1011600000BF00BF704710B50146002200230020D9
:101170004A11012A02D1B64C236806E0022A02D1A4
:10118000B34C236A01E0B24C636A01F01F020124F0
:1011900094401C4201D0012000E0002010BD70B539
:1011A00000240025002600BF3120FFF7DCFF0646A3
:1011B000641CB4F5A06F01D0002EF5D03120FFF7EC
:1011C000D2FF08B1012500E00025284670BD0021AE
:1011D0009F4A116821F0F80141EAC001116070478F
:1011E0009E49086070470022994B5A6822F47C128D
:1011F00040EA01031A43964B5A60704797490866C4
:1012000070470021924A516821F003010143516067
:1012100070478F48406800F00C00704700218C4AEE
:10122000516821F0F0010143516070470021884A64
:10123000516821F4E0610143516070470021844A04
:10124000516821F4605141EAC0015160704729B1F1
:101250007F4A527A02437E4B5A7206E07C4A527AA7
:10126000C343DBB21A407A4B5A7270477B49D8317C
:10127000086070470021764A516821F440410143DB
:10128000516070470021724A20321170704A82F812
:101290002010012802D004280AD104E001216C4A60
:1012A0002032117005E00521694A2032117000E0FA
:1012B00000BF00BF70476A49086070476449096A07
:1012C0000143634A116270476549443908607047B9
:1012D00030B500210022002300245D4D6D6805F02B
:1012E0000C0121B1042905D0082923D105E05D4D69
:1012F000056022E05B4D05601FE0554D6D6805F40B
:101300007012534D6D6805F48033022505EB92424F
:101310001BB9554D554305600BE04D4D6D6815F4F7
:10132000003F03D0504D5543056002E04D4D5543FD
:10133000056002E04B4D056000BF00BF444D6D6885
:1013400005F0F0010909494D6C5C0568E540456010
:101350003F4D6D6805F4E061090A444D6C5C4568D9
:10136000E54085603A4D6D6805F46051C90A3F4D0E
:101370006C5C4568E540C560354D6D6805F44041DD
:10138000890B3A4D10356C5CC568B5FBF4F5056109
:1013900030BD29B12E4A526902432D4B5A6104E0F7
:1013A0002B4A526982432A4B5A61704729B1284A15
:1013B00092690243264B9A6104E0254A926982436E
:1013C000234B9A61704729B1214AD2690243204BCD
:1013D000DA6104E01E4AD26982431D4BDA6170472C
:1013E00029B11B4AD2680243194BDA6004E0184A5B
:1013F000D2688243164BDA60704729B1144A1269E9
:101400000243134B1A6104E0114A12698243104BE4
:101410001A61704712494039086070470F49C86423
:1014200070470B49C87170470948406A40F08070A6
:1014300007494862704701460020054A92680A42FF
:1014400001D0012000E000207047014988727047F8
:10145000001002400000FFF8FFFFF6FE00004242CD
:101460008004424200127A0000093D00140000206E
:1014700010B50446FB48844209D101218803FFF7D7
:10148000AFFF00214FF48040FFF7AAFF32E0F6489B
:10149000844209D101214804FFF7AFFF00214FF436
:1014A0000030FFF7AAFF25E0F048844209D101216E
:1014B0008804FFF7A2FF00214FF48020FFF79DFF73
:1014C00018E0EB48844209D10121C804FFF795FFD9
:1014D00000214FF40020FFF790FF0BE0E548844225
:1014E00008D101210805FFF788FF00214FF4801083
:1014F000FFF783FF10BD2DE9F04786B004460D4687
:101500000026002700BFB146B246A88900B100BF3F
:10151000A246268A4CF6FF700640E88806432682DB
:10152000A6894EF6F3100640A888298908436989E0
:1015300008430643A681A68A4FF6FF400640A889C5
:101540000643A68201A8FFF7C3FE5446C54882455C
:1015500001D1049F00E0039FA08910F4004F08D040
:1015600007EBC70000EB071029684900B0FBF1F852
:1015700007E007EBC70000EB071029688900B0FB04
:10158000F1F86420B8FBF0F006013009642101FB9A
:101590001089A08910F4004F09D0322101EBC90055
:1015A0006421B0FBF1F000F00700064308E03221AF
:1015B00001EB09106421B0FBF1F000F00F000643CD
:1015C000268106B0BDE8F0874FF416510160002176
:1015D0008180C18001810C2141810021818170477E
:1015E00010B50022028A4FF2FF031A400B884C8884
:1015F00023438C882343CC8823431A43028210BDA3
:101600000021018041808180C180704721B18289A1
:1016100042F40052828104E082894DF6FF731A4041
:1016200082817047F0B50024002500260023A1F533
:1016300010676A3F00D100BF0346C1F3421401F0B6
:101640001F05012707FA05F6012C01D10C3304E030
:10165000022C01D1103300E014331AB11F68374354
:101660001F6002E01F68B7431F60F0BD10B51AB1DC
:10167000838A0B43838204E0838ACC43A4B2234051
:10168000838210BD028A4FF6F0731A400282028AEA
:101690000A430282704782894FF2FF731A408281A7
:1016A00082890A438281704721B1828942F0020215
:1016B000828104E082894FF6FD731A40828170476F
:1016C000028A4FF6DF731A400282028A0A430282BC
:1016D000704721B1028A42F48042028204E0028A09
:1016E0004BF6FF731A4002827047C1F308028280F2
:1016F000704701468888C0F308007047818941F02F
:10170000010181817047028BD2B20283028B42EACF
:10171000012202837047028B02F47F420283028B14
:101720000A430283704721B1828A42F020028282FA
:1017300004E0828A4FF6DF731A408282704721B13B
:10174000828A42F01002828204E0828A4FF6EF73AE
:101750001A408282704721B1828A42F00802828256
:1017600004E0828A4FF6F7731A408282704721B1F3
:10177000828942F40042828103E08289C2F30E0230
:101780008281704721B1828A42F40062828204E041
:10179000828A4FF2FF731A4082827047828A4FF624
:1017A000FB731A408282828A0A438282704721B187
:1017B000828A42F00202828204E0828A4FF6FD733E
:1017C0001A408282704702460020B1F5007F00D1A6
:1017D00000BF13880B4201D0012000E000207047B9
:1017E00001F40072B2F5007F00D100BFCA4302804D
:1017F000704770B502460023002400250020A1F5A3
:1018000010666A3E00D100BFC1F3421501F01F040B
:10181000012606FA04F4012D02D19689344006E02F
:10182000022D02D1168A344001E0968A34400B1210
:10183000012606FA03F31688334014B10BB10120D8
:1018400000E0002070BD10B500220023A1F5106457
:101850006A3C00D100BF0A1201249440A3B2DC43C9
:10186000048010BD003801400044004000480040A2
:10187000004C0040005000404FF0E021096921F089
:1018800004014FF0E02211610146C21700EB5272D1
:10189000D210274B1A70194609784FF47A725143C7
:1018A0009A1C11807047224A127842434FF0E0237D
:1018B0005A6100229A611A46126942F001021A61C5
:1018C00000BF4FF0E022116911F0010F02D011F4B6
:1018D000803FF6D04FF0E022126922F001024FF073
:1018E000E0231A6100229A617047114A921C128803
:1018F00042434FF0E0235A6100229A611A4612696E
:1019000042F001021A6100BF4FF0E022116911F0AC
:10191000010F02D011F4803FF6D04FF0E02212699F
:1019200022F001024FF0E0231A6100229A61704711
:1019300028000020B94A11880A131203C1F30323B7
:1019400002EB0322C1F3031302EB031201F00F03B6
:101950001A4491B24D220270432242705522827085
:101960004322C27061220271702242713A22827156
:101970004FF47A7291FBF2F232B14FF47A7291FB2A
:10198000F2F23032C27101E02022C2714FF47A7259
:1019900091FBF2F302FB1312642392FBF3F2303259
:1019A0000272642291FBF2F302FB13120A2392FBF0
:1019B000F3F2303242720A2291FBF2F302FB13126D
:1019C000303282724B22C27262220273704770B54B
:1019D0000446934805682A4692A1204606F0E0FC9A
:1019E00070BD934A0A4002438D4B08331A6070471A
:1019F00010B504462046FEF75BFE10BDF8B5044660
:101A00000D4616461F463846FFF7F2FF8DF8006078
:101A10008DF801408DF8025001208DF803006846D2
:101A2000FEF74BFEF8BD00B5002082490861C86092
:101A30001420486100208861C8610846006840F0B1
:101A400001000860084640687B49084079494860C1
:101A500008460068794908407649086008460068E9
:101A600020F4802008600846406820F4FE004860AA
:101A70000020886000214FF00060FFF7B2FF00BD3A
:101A800010B567481030006840F004004FF0E021C6
:101A9000C1F8100D6748C06940F080506549C861C1
:101AA0006748406840F480706549486008460068AF
:101AB00040F0040008600846006840F0020008603A
:101AC000FEF78EFB10BD5F4855490C31086070472A
:101AD0005849896941F00101564A91615A4949685A
:101AE00021F0E061584A51601146496841EA0061BD
:101AF0005160704730B504460025FFF794FF4D480C
:101B0000006840F480304B49086000BF49480068D5
:101B1000400CFBD04FF4806046494860A01EC4B220
:101B20000846406840EA844048600846406840F4FF
:101B3000803048604548006840F032004349086002
:101B40003C48006840F080703A49086000BF39485E
:101B50000068400EFBD03748406840F0020035492D
:101B6000486005E033484068C0F3870505F0030589
:101B7000022DF7D130BD01460A2091FBF0F200FBA7
:101B800012100A2291FBF2F240EA0210C0B2704732
:101B9000014601F00F000A1102EB820200EB420045
:101BA000C0B2704701464FF47A7091FBF0F0000329
:101BB0004FF47A7291FBF2F302FB1312642392FB4F
:101BC000F3F240EA02201A4691FBF3F302FB1312F0
:101BD0000A2392FBF3F240EA02101A4691FBF3F358
:101BE00002FB1312104380B27047014608134FF4F2
:101BF0007A725043C1F3032202EBC20303EB0212D9
:101C000000EB8200C1F3031202EB820200EB420000
:101C100001F00F02104480B270470000E0F7FF1F90
:101C200000ED00E04350552049443A253038580033
:101C300080FFFF1F001002400000FFF8FFFFF6FECC
:101C4000007000400400FA0500000140002002403E
:101C5000014600BF704700BF5C4A128812F0400F77
:101C6000FAD0C2B2594B1B1D1A80704710B586B00E
:101C7000044656480C30008840F480705449A1F85E
:101C80000C080846B0F80C0840F02000A1F80C0839
:101C90004FF4A063252203210846FFF7AFFE012180
:101CA00044F20400FFF782FB4848FFF7E1FB4FF4E2
:101CB0000070ADF8140003208DF8160018208DF880
:101CC000170005A94348FFF7C7F84FF48060ADF847
:101CD000140004208DF8170005A93E48FFF7BCF852
:101CE00001940020ADF80800ADF80A00ADF80C0032
:101CF000ADF810000C20ADF80E0001A93348FFF735
:101D0000FAFB012240F225513048FFF78BFC0121FC
:101D10002E48FFF77BFC06B010BD10B540F22551F0
:101D20002A48FFF766FD00284FD02848FFF7E1FC5E
:101D3000C4B22948008810F4004F46D126480088D4
:101D400010F4804F27D00A2C1ED00D20224909887C
:101D5000C1F30D01214A50541F480088401C1E4900
:101D6000088008460088C0F30D0011460C541A483C
:101D70000088401C18490880084600884BF6FF710F
:101D800008401549088020E01348008840F40040CE
:101D90001149088019E00D2C06D10F48008840F445
:101DA00080400D49088010E00B480088C0F30D000A
:101DB0000A490C5408480088401C07490880084616
:101DC00000883E2801DD0020088010BD0038014059
:101DD00000300140000801402C000020C400002019
:101DE00010B54FF40D71002003F07EFAFF49086032
:101DF0004FF40D71002003F077FAFC4948604FF46E
:101E00000A71002003F070FAF94908604FF40A7172
:101E1000002003F069FAF74908602421002003F04C
:101E200063FAF54908604FF40071002003F05CFA92
:101E3000F2490860ED48006880B1EC48406868B13C
:101E4000EB48006850B1EB48006838B1EA480068D8
:101E500020B10846006808B1002010BD0120FCE751
:101E600010B5E74890F8560050B101280CD0022870
:101E700002D0032810D10BE0E2A006F081FA0BE0BB
:101E8000E6A006F07DFA07E0EAA006F079FA03E0A2
:101E9000EEA006F075FA00BF00BFD94890F82C10EC
:101EA000F0A006F06DFAD648B0F85410F4A006F091
:101EB00067FAD348816CF6A006F062FAD048016D4B
:101EC000F9A006F05DFA10BD7CB54FF4A060FFF7F5
:101ED0008FFD4820FFF7D0FC4FF41650FFF7C6FEE9
:101EE00000F034FB02F0E5F9002003F038F9FFF7C9
:101EF00077FF4FF6FF734FF61F02CDE90023102343
:101F0000EFA200211E2002F001FF4FF6FF734FF6F3
:101F10001F02CDE900231023EFA219461E2002F074
:101F2000F5FE4FF6FF734FF61F02CDE90023102395
:101F3000ECA21946962002F0E9FE4FF6FF7340F23C
:101F4000BF52CDE900231023E9A220211E2002F078
:101F5000DDFE4FF6FF7340F2BF52CDE900231023A0
:101F6000E7A230211E2002F0D1FE4FF6FF7340F2AF
:101F7000BF52CDE900231023E7A240211E2002F02A
:101F8000C5FE4FF6FF7340F2BF52CDE90023102388
:101F9000E6A250211E2002F0B9FEE8488288E8A19E
:101FA000EA4806F0FDF94FF6FF734FF47842CDE9A9
:101FB00000231023E54A6021482002F0A7FEC9A2B1
:101FC000C5A1E3A006F0DCF901F002F998B101F037
:101FD000FFF805464FF6FF734FF47842CDE9002332
:101FE0001023E4A270211E2002F090FE2946E5A0F5
:101FF00006F0C6F938E04FF6FF7340F2CF12CDE994
:1020000000231023E4A270211E2002F07FFEFFF7C0
:1020100027FF7B4890F82C20E3A1CC4806F0C0F9BC
:102020004FF6FF734FF47842CDE900231023C74ADF
:1020300080211E2002F06AFE4FF6FF7340F2CF129D
:10204000CDE900231023DBA290211E2002F05EFECA
:102050000020DD4908800023694800930423902173
:10206000826C7E2002F088FE60480168002004F047
:102070006AFED649087008460178D5A006F080F9B6
:102080000322D8A15A48006804F077FECF490870AF
:1020900008460178D6A006F073F9CC4800780028ED
:1020A00041D1D84B1E22554801685148006804F0C0
:1020B00031FFC649087008460178D3A006F060F9E0
:1020C0004B48006805F07EF9C04908700846017861
:1020D000D2A006F055F949480168D5A006F050F99C
:1020E0004FF6FF730093C023EF22A0211E2002F0C1
:1020F000C9FB4FF6FF734FF47842CDE9002310235C
:10210000D0A2A0211E2002F001FE4FF6FF7340F284
:10211000CF12CDE9002310233848B02102681E20D9
:1021200002F0F4FD14E04FF6FF730093C023EF229A
:10213000A0211E2002F0A6FB4FF6FF7340F2CF1243
:10214000CDE900231023C4A2B0211E2002F0DEFD41
:102150000B22C6A12748006804F00FFE9B490870B7
:1021600008460178C4A006F00BF9C84B1622C849EE
:102170002048006804F0C0FF9449087008460178C0
:10218000C4A006F0FDF81B48006805F01BF98F4954
:10219000087008460178A1A006F0F2F80322B3A166
:1021A0001348006804F0E9FD884908700846017882
:1021B0008FA006F0E5F8934B1E22104801680C48EA
:1021C000006804F0A7FE81490870084601788EA0D7
:1021D00006F0D6F80648006805F0F4F87B49087068
:1021E000084601788DA006F0CBF85DE14C00002098
:1021F00050000020540000206C00002064000020EB
:10220000680300204361726420547970653A20535A
:102210004448432056322E300D0A00004361726458
:1022200020547970653A20534453432056312E315F
:102230000D0A00004361726420547970653A20539E
:102240004453432056322E300D0A0000436172641D
:1022500020547970653A204D4D4320436172640DDE
:102260000A00000043617264204D616E756661630F
:10227000747572657249443A2025640D0A000000A5
:1022800043617264205243413A2025640D0A0000E4
:10229000436172642043617061636974793A2025F7
:1022A00064204D420D0A00004361726420426C6F4D
:1022B000636B53697A653A2025640D0A0D0A0000A4
:1022C000536F66747761726520436F6D70696C65DA
:1022D000642054696D653A004665622032362032CA
:1022E0003031340032303A34313A313100000000BC
:1022F000576172536869702053544D33322E000079
:102300005344494F205344436172642646617446E6
:102310007320546573742E00323031342F30322FD5
:102320003236207765656B330000000042794053F8
:10233000616D204368616E2E0000000024040020BF
:102340004C43442049443A253034580004010020CD
:10235000536F66747761726520436F6D70696C6549
:10236000642054696D653A2025732C2025732E0D49
:102370000A000000534420496E6974204661696C6C
:1023800064210000546865204661696C64206973AB
:102390003A25640D0A000000534420496E697420F8
:1023A0004F4B2121212100004D49442069733A20DF
:1023B0002564000053442053697A652069733A20EC
:1023C000202020204D4200009800002060000020C6
:1023D000665F6D6F756E7420726573203A25640DAB
:1023E0000A000000303A2F64656D6F2E7478740017
:1023F000665F6F70656E20726573203A25640D0A02
:102400000000000058000020665F72656164207261
:102410006573203A25640D0A00000000665F636C56
:102420006F736520726573203A25640D0A00000001
:102430007265616420737472696E672069733A20F3
:1024400025730000526561642064656D6F2E747899
:102450007420646174613A004E6F2064656D6F2E64
:102460007478742046696C652E000000303A2F7431
:102470006573742E747874000D0A665F6F70656EF4
:1024800020726573203A25640D0A00005C0000206C
:1024900034000020665F777269746520726573206E
:1024A0003A25640D0A0000001C480168AFF2800064
:1024B00005F066FF4FF6FF734FF47842CDE9002335
:1024C000102317A2C0211E2002F020FC4FF6FF733C
:1024D00040F2CF12CDE9002310231048D02102682A
:1024E0001E2002F013FC00201449086014E0601C58
:1024F000C4B20520FFF7F9F93C2C0DD11048006853
:10250000C0431049C1F894010F48D0F89401C0436A
:102510000D49C1F894010024E9E70000640000209F
:1025200057726974652F5265616420746573742EE7
:1025300074787420646174613A000000940123424D
:1025400094812142008021420000234208B50121EC
:102550004820FEF72BFF2020ADF8000003208DF867
:10256000020010208DF8030069460948FEF774FC4C
:1025700020210748FEF718FD2020ADF8000069462D
:102580000448FEF769FC20210248FEF70DFD08BD56
:10259000000C014000180140F848006810F4005F8A
:1025A00001D0012070470020FCE710B5F34B1B1D44
:1025B0001B6843F47043F24CC4F804342346D3F848
:1025C00044340023C4F844342346D3F8443400236D
:1025D000C4F844342346D3F84434C4F8443423467E
:1025E000D3F8443443F40053C4F844342346D3F8B6
:1025F000443443F40063C4F844342346D3F84434E9
:1026000043F40073C4F844342346D3F8443443F00D
:102610008003C4F844342346D3F84434C4F8443423
:102620002346D3F84434C4F84434D44B44331B68B1
:1026300002F0010443EA0413D04C443423608B08B5
:10264000CF4CC4F84834CF4BC4F84C342346C3F8BD
:102650005004D3F8443443F00103C84C443423609D
:1026600010BD10B5C74B803B9960DB686FF30A0360
:10267000C44C803CE3602346DB6800F03F04234306
:10268000C04C803CE3602346DB6802F0030443EA6D
:102690008413BC4C803CE3602346DB68E360234644
:1026A000DB68E3602346DB6843F48063E36010BDCE
:1026B00030B5B44C803C606221F07E44B14D803D29
:1026C000AC622C46E46A24F0F704EC622C46E46A1F
:1026D000150744EA1564AB4D803DEC622C46E46A74
:1026E000EC622C46E46A03F0010544EA4504A54D7A
:1026F000803DEC622C46E46A44F00104EC6230BD9B
:10270000A0498039496821F0FF019E4A803A516012
:10271000114649680143516070479B48806940F009
:102720002000994988610846806940F0100088615E
:102730000846406940F4806048610846406940F0BE
:1027400002004861914840686FF313008F49486068
:10275000084640688E4908438C4948608D480068A7
:1027600020F47060C1F800040846D0F8000440F47A
:102770003060C1F800047047014600BF81488038CE
:10278000406B10F0450FF9D040F2FF507D4A803A7F
:1027900090631046406908221040C0B270472DE98E
:1027A000FC4107460C4600260025684600221346D9
:1027B0000CC0012208211020FFF753FF1020FFF763
:1027C000DBFF064616B13046BDE8FC817248006862
:1027D000010401223720FFF744FF3720FFF7CCFF29
:1027E00006460EB13046EFE7012303220821101FF1
:1027F000FFF75EFF002500E06D1C142DFCD30025C3
:10280000012200213320FFF72CFF3320FFF7B4FF14
:1028100006460EB13046D7E70DE05A488038406B87
:1028200010F4001F07D0574800684DF825006D1CB4
:10283000022D00D106E053488038406B40F22A61F7
:102840000842EAD000BF4F488038406B10F0080FB4
:1028500006D008204B498039886304263046B3E708
:1028600048488038406B10F0020F06D002204549DE
:102870008039886302263046A6E742488038406B9C
:1028800010F0200F06D020203E49803988630626AC
:10289000304699E73B488038406B10F4007F07D002
:1028A0004FF40070374980398863072630468BE73C
:1028B00040F2FF5033498039886300980006009940
:1028C00001F47F4140EA0120009901F47F0140EAD0
:1028D0001120009940EA116060600198000601999A
:1028E00001F47F4140EA0120019901F47F0140EAAF
:1028F0001120019940EA11602060304664E77CB500
:1029000004460025684600210A4606C01D48803856
:10291000406910F0007F02D00E2528467CBD694634
:102920001D48006880B2FFF73AFF05460DB1284602
:10293000F4E7012C32D1019810F4802F1BD01648F7
:102940000068010401223720FFF78BFE3720FFF7D4
:1029500013FF05460DB12846E0E7012202210620BB
:10296000FFF77FFE0620FFF707FF05460DB128465B
:10297000D4E72846D2E725252846CFE700040240C1
:102980000000024080800140001002400010014021
:10299000BBBB0B000014014074000020019810F430
:1029A000803F1BD0FF480068010401223720FFF759
:1029B00058FE3720FFF7E0FE05460DB12846ADE78B
:1029C000012200210620FFF74CFE0620FFF7D4FE6F
:1029D00005460DB12846A1E728469FE7252528464C
:1029E0009CE770B504460025EE48001F00680328E8
:1029F00002D12725284670BDEA48001F006848B16B
:102A0000E848001F0068012804D0E648001F00685D
:102A1000022839D1B4F5805F02D127252846EAE79C
:102A2000B4F5006F19D10120FFF769FF05465DBBC2
:102A3000DD48406841F6FF018843DB4948600846AD
:102A4000406840F4006048600846406840F002007A
:102A5000486008464068486016E00020FFF74FFFD6
:102A600005468DB9D048406841F6FF018843CE49FC
:102A700048600846406848600846406840F00200E8
:102A800048600846406848602846B4E770B5044688
:102A90000025012221460720FFF7E3FD0720FFF76D
:102AA0006BFE0546284670BD2DE9FC41014600201D
:102AB0000022BC4B1B1F1B6881F85630B94B1B68AA
:102AC000A1F85430B94B1B681A0E93090B70C2F36E
:102AD00083034B7002F003038B70B44B1B68C3F38A
:102AE0000742CA70B14B1B68C3F307220A71AF4B90
:102AF0001B68DAB24A71AD4B5B681A0E1301CB80CA
:102B0000AA4B5B68C3F30742CB8843EA1213CB801E
:102B100002F00F030B72A54B5B68C3F30722D309C6
:102B20004B72C2F380138B72C2F34013CB72C2F3A9
:102B300000130B7300234B739A4B1B1F1B684BB185
:102B4000984B1B1F1B68012B04D0964B1B1F1B6847
:102B5000032B5BD193071B0D0B61944B5B68DAB2BF
:102B60000B6943EA82030B61904B9B681A0E0B6959
:102B700043EA92130B61C2F3C2030B7502F0070321
:102B80004B758A4B9B68C3F3074253098B75C2F39D
:102B90008203CB7593075B0F0B76844B9B68C3F363
:102BA00007220B7E43EAD2130B760C69631C0024C8
:102BB000CDE90034019DC1E912350C7EA41C01232E
:102BC000A340DC17CDE900341C46019DD1E9126C0D
:102BD000A3FB063705FB067504FB0C54C1E9123450
:102BE0000C7A0123A3400B65D1E912460B6DA3FBC0
:102BF000044503FB0653C1E91243D1E912341B0D0E
:102C000043EA04332415C1E9123437E0654B1B1F36
:102C10001B68022B32D1654B5B68DAB293069B0AC4
:102C20000B61624B9B681A0E0B6943EA02230B612E
:102C30005E4B9B68C3F307420B6913430B615B4B0D
:102C40009B68C3F307224FF480640B695B1C65101B
:102C5000A3FB05352E46CDE90035A4FB033504FB67
:102C60000654C1E912344FF400730B65D1E91234F4
:102C70001B0D43EA04332415C1E91234C2F3801357
:102C800001F8193F93065B0E4B70484B9B68DAB214
:102C90004B7843EAD2134B7002F07F038B70434BA7
:102CA000DB681A0ED309CB70C2F341130B71C2F368
:102CB00082034B7102F003038B713C4BDB68C3F35F
:102CC00007428B7943EA92138B71C2F34013CB71A5
:102CD00000230B7202F001034B72344BDB68C3F329
:102CE0000722D3098B72C2F38013CB72C2F3401355
:102CF0000B73C2F300134B73C2F381038B7302F0A7
:102D00000303CB73294BDB68DAB253080B7401233E
:102D10004B74264B10331B681A0ECA741939234B97
:102D200010331B68C3F307421402CC851F4B1033CA
:102D30001B68C3F30722CC8D1443CC851B4B103387
:102D40001B68DAB214060C63184B10335B681A0E5A
:102D50000B6B43EA02440C63144B10335B68C3F300
:102D600007420B6B43EA02240C63104B10335B6881
:102D7000C3F307220C6B14430C630C4B10335B68DA
:102D8000DAB234235A54094B10339B681A0E352398
:102D90005A54064B10339B68C3F3074214068C63E6
:102DA000024B05E074000020008001403803002041
:102DB00010339B68C3F307228B6B43EA02448C6396
:102DC000FD4B9B68DAB28B6B43EA02248C63FA4BAF
:102DD000DB681A0E8C6B14438C63F74BDB68C3F310
:102DE000074214093C235C5413071C0DCC87F24B9B
:102DF000DB68C3F30722CC8F1443CC87EE4BDB6830
:102E0000DAB2540840235C54012441235C54BDE8E9
:102E1000FC810020E94A516B01E0E84A516B11F056
:102E2000450FFAD011F0040F04D003200422E34B25
:102E30009A63704711F0010F04D001200122DF4B8B
:102E40009A63F6E740F2FF52DC4B9A63F1E770B504
:102E500002460024D948456B01E0D848456B15F07F
:102E6000450FFAD015F0040F05D003240420D34EEB
:102E7000B063204670BD15F0010F05D0012401207C
:102E8000CE4EB0632046F5E7CC480069C0B2904210
:102E900002D010242046EDE740F2FF50C74EB06349
:102EA0003046436913F4604F03D1180C0880204664
:102EB000E0E713F4005F01D01320DBE713F4804F49
:102EC00001D01020D6E713F4004F01D00F20D1E736
:102ED0002046CFE738B5002401200090B7480068AD
:102EE00010F0030F02D12524204638BDB4480068F5
:102EF000042817D0032200210220FFF7B2FBFFF7BE
:102F000088FF04460CB12046EFE7AC484069AA4967
:102F10000860AA4880694860A848C0698860A748D6
:102F2000006AC860A648006858B1A5480068012832
:102F300007D0A3480068062803D0A14800680228EB
:102F40000CD1012200210320FFF78BFB69460320EF
:102F5000FFF77DFF04460CB12046C6E7984800689D
:102F600004281FD0BDF800009549091D0860BDF870
:102F70000000010403220920FFF773FBFFF749FF5C
:102F800004460CB12046B0E78C4840698A491039A4
:102F900008608A48806948608848C06988608748B6
:102FA000006AC860002420469FE70020834A516BD6
:102FB00001E0824A516B11F0450FFAD011F0040F75
:102FC00004D0032004227D4B9A63704740F2FF52E5
:102FD0007A4B9A63F9E710B500204FF48031774BB4
:102FE0005A6B02E0491E754B5A6B12F0450F01D126
:102FF0000029F7D111B112F0040F04D003200423EB
:103000006E4CA36310BD12F0400F04D0002040238B
:103010006A4CA363F6E7F5E700204FF4803105E042
:10302000664A526B12F0800F00D003E00A00A1F153
:103030000101F5D100BF09B90320704740F2FF52EA
:103040005E4B9A63F9E72DE9F04100240025002644
:10305000A04600270020594948600846406848605B
:10306000084640684860084640684860084640682E
:1030700048600846406848600846406840F0B20032
:103080004860032008600846406840F4807048604B
:1030900000BF0CE0002211461046FFF7E2FAFFF7EE
:1030A000BBFF044614B12046BDE8F08101E04A2E82
:1030B000F0D300BF002601224FF4D5710820FFF79E
:1030C000D0FAFFF788FF044624B901203C49086084
:1030D000870708E0012200213720FFF7C2FA3720D6
:1030E000FFF74AFB0446012200213720FFF7B9FA17
:1030F0003720FFF741FB0446002C37D120E00122A6
:1031000000213720FFF7ADFA3720FFF735FB0446E3
:103110000CB12046C8E72B4847EA000101222920CC
:10312000FFF79FFAFFF741FF04460CB12046BBE7CB
:1031300022484569012080EAD57080F00108761C9C
:10314000B8F1000F03D14FF6FF708642D7D34FF688
:10315000FF70864202D31B242046A5E705F080407D
:10316000050033D00220164908602FE003201449DF
:10317000086012E0012214491046FFF772FAFFF7C7
:1031800014FF04460CB120468EE70C484569012027
:1031900080EAD57080F00108761CB8F1000F03D1E9
:1031A0004FF6FF708642E5D34FF6FF7086420DD38F
:1031B0001B24204678E700004803002000800140DF
:1031C00070000020000010800080FF8020466BE728
:1031D00010B50024FFF7A1FA4FF4A06331220021BB
:1031E0000846FEF70BFC0020FB4908604860886039
:1031F000C86048628862C862F84888630020C86373
:10320000FFF721FF04460CB1204610BDFFF762FE18
:1032100004460CB12046F8E70220FFF771FA1CB90A
:10322000EF48FFF741FC044634B9ED49B1F85410BA
:103230000804FFF72BFC044624B94FF40060FFF7A5
:10324000D0FB04462046E0E770B504460025E5487B
:103250000068010401220D20FFF703FA0D20FFF79B
:103260008BFA05460DB1284670BDDB4840692060E9
:103270002846F9E708B5002000906846FFF7E4FF0C
:1032800008B1FF2008BD0098C0F34320FAE710B54D
:103290000424FFF7EFFF0446042C01D1002010BDE9
:1032A000FF2C01D10220FAE70120F8E70020CA49EB
:1032B000096821F00301C84A1160704770B50446DF
:1032C00000250026C448406910F0007F02D00E257A
:1032D000284670BD012240211020FFF7C2F91020BE
:1032E000FFF74AFA05460DB12846F2E7BD480068E7
:1032F000010401223720FFF7B4F93720FFF73CFA29
:1033000005460DB12846E4E7012306224021D01FDF
:10331000FFF7CEF9012200210D20FFF7A2F90D20C1
:10332000FFF72AFA05460DB12846D2E70FE0AA4872
:10333000406B10F4004F0AD0002605E0A64880300C
:10334000006844F82600761C082EF7D32034A248E3
:10335000406B40F22A610842E9D09F48406B10F070
:10336000080F05D008209C49886304252846B0E74B
:103370009948406B10F0020F05D0022096498863EF
:1033800002252846A5E79448406B10F0200F05D091
:10339000202091498863062528469AE78E48406B8D
:1033A00010F4007F06D04FF400708B498863072526
:1033B00028468EE704E08848D0F880002060241D6D
:1033C0008548406B10F4001FF5D140F2FF50824950
:1033D000886328467DE770B50446002500268248AC
:1033E000FFF76CFF05460DB1284670BD7E4800789A
:1033F000860926707C480078C0F3401666707A48CB
:103400008678300260807848C67860883043608073
:10341000754806793006606073484679606840EA0E
:103420000640606070488679606840EA0620606007
:103430006D48C6796068304360606B48067A2672D2
:10344000467A6672807A0609A6726748C67A3002A2
:10345000A0816548067BA0893043A0816248407BFB
:103460008608A6736048407B00F00306E673284692
:10347000BBE700B5002100BFFFF78EF830B95B480D
:10348000006818B95A4800780028F5D058480078E4
:1034900010B15748007800BD0846FCE701460020FF
:1034A00002E04910421CD0B20129FAD170472DE93F
:1034B000F04104460D4616460027B84600204C4908
:1034C00008704A4908604B4908604349C86245484A
:1034D000001F0068022801D106026D0A00231A4667
:1034E0001946581EFFF7E4F83B48406910F0007F8A
:1034F00002D00E20BDE8F081002E15DDB6F5006F7C
:1035000012DC701E30420FD13046FFF7C7FF8046F5
:10351000012231461020FFF7A4F81020FFF72CF904
:1035200007461FB13846E5E72620E3E70123424678
:103530003146981EFFF7BCF8012229461120FFF7FB
:1035400090F81120FFF718F907460FB13846D1E778
:103550002148C06B40F495701F49C8630846C06A93
:1035600040F00800C862002231462046FFF71DF8EF
:10357000FFF77FFF00BFFFF78AFE0028FBD1384628
:10358000B8E72DE9F04704460D4616461F464FF0B2
:103590000008C146C246002015490870134908605A
:1035A00001201449086000200B49C8620D48001F23
:1035B0000068022801D106026D0A00231A46194646
:1035C000581EFFF775F80448406910F0007F13D0CB
:1035D0000E20BDE8F087000000800140FF07C0001A
:1035E00068030020740000205803002080000020A1
:1035F000780000207C000020002E17DDB6F5006F5B
:1036000014DC701E304211D13046FFF747FF82466E
:10361000012231461020FFF724F81020FFF7ACF804
:103620008046B8F1000F03D04046D2E72620D0E70D
:1036300007FB06F0B0F1007F03D34FF026084046A9
:10364000C7E707FB06F101235246981EFFF730F843
:10365000012229461220FFF704F81220FFF78CF808
:103660008046B8F1000F01D04046B2E7FA48C06B7F
:1036700040F22A310843F849C8630846C06A40F05E
:103680000800C86207FB06F100222046FEF78DFF06
:10369000DFF8C89301E0A9F10109F148006810F4CE
:1036A000005F02D1B9F1000FF5D1B9F1000F01D1DE
:1036B00004208EE700BFEB48006818B9EA4800789C
:1036C0000028F8D0E848007810B1E74890F800806A
:1036D00040467EE72DE9F0410446002600250027FC
:1036E000E2480068010401220D20FEF7BAFFDA4823
:1036F000476B01E0D848476B17F0450FFAD017F039
:10370000040F06D003260420D34988633046BDE861
:10371000F08117F0010F05D001260120CE49886302
:103720003046F4E7CC4807690D2F02D0102630460A
:10373000EDE740F2FF50C849886308464569C5F384
:1037400043202070CA48054201D13046DFE715F01A
:10375000004F01D01C20DAE715F0804F01D009207E
:10376000D5E715F0005F01D00A20D0E715F0805FA3
:1037700001D00B20CBE715F0006F01D00C20C6E77D
:1037800015F0806F01D00D20C1E715F0807F01D0CA
:103790000E20BCE715F4000F01D00F20B7E715F499
:1037A000800F01D01020B2E715F4001F01D01120C6
:1037B000ADE715F4801F01D01220A8E715F4002F03
:1037C00001D01320A3E715F4802F01D014209EE729
:1037D00015F4003F01D0152099E715F4803F01D082
:1037E000162094E715F4004F01D017208FE715F449
:1037F000804F01D018208AE715F4005F01D019200E
:1038000085E715F0080F01D01A2080E730467EE7E3
:1038100000B5002100BFFEF7BFFE30B99148006837
:1038200018B9914800780028F5D08F48007810B179
:103830008D48007800BD40F2FF50874A90630846EB
:10384000F8E72DE9F84F04460D4616460027B8461E
:10385000B94600200090824683490870814908607B
:103860008449086014B92620BDE8F88F00207A4901
:10387000C86200231A461946401EFEF719FF764813
:10388000406910F0007F01D00E20EDE77748001F5F
:103890000068022801D106026D0A002E15DDB6F57A
:1038A000006F12DC701E30420FD13046FFF7F6FD7C
:1038B0008246012231461020FEF7D3FE1020FEF78B
:1038C0005BFF07461FB13846CEE72620CCE76748A6
:1038D0000068010401220D20FEF7C3FE0D20FEF753
:1038E0004BFF07460FB13846BEE75B48D0F814904F
:1038F0004FF0FF3812E0A8F101085C4800680104AD
:1039000001220D20FEF7ADFE0D20FEF735FF074624
:103910000FB13846A8E75048D0F8149019F4807FCA
:1039200002D1B8F1000FE6D1B8F1000F01D1292082
:103930009AE7012229461820FEF793FE1820FEF789
:103940001BFF07460FB138468EE700204949086043
:10395000002352463146401EFEF7AAFE002042498F
:10396000087040490860434908603B48C06B40F21A
:103970001A3108433849C863012231462046FEF710
:1039800014FE3548C06A40F008003349C862FFF7AA
:103990003FFF00BFFFF77BFC0028FBD140F2FF5048
:1039A0002D4988636846FFF795FE074603E06846A1
:1039B000FFF790FE07463FB99DF800000728F6D0B4
:1039C0009DF800000628F2D038464DE72DE9F84F63
:1039D00004460D4616461F464FF00008C146C24633
:1039E000002000908346204908701E49086001208D
:1039F0002049086000201849C86200231A46194669
:103A0000401EFEF755FE1448406910F0007F02D0BA
:103A10000E20BDE8F88F1548001F0068022801D16C
:103A200006026D0A002E27DDB6F5006F24DC701E3D
:103A3000304221D13046FFF731FD83460122314625
:103A40001020FEF70EFE1020FEF796FE8046B8F11D
:103A5000000F13D04046DCE700800140FFFF01006B
:103A60000004024080000020780000207400002044
:103A700008E0FFFD7C0000202620CAE707FB06F0D7
:103A8000B0F1007F03D34FF026084046C1E7FB4862
:103A90000068010401223720FEF7E3FD3720FEF71E
:103AA0006BFE8046B8F1000F01D04046B1E701221D
:103AB00039461720FEF7D5FD1720FEF75DFE80463C
:103AC000B8F1000F01D04046A3E701222946192092
:103AD000FEF7C7FD1920FEF74FFE8046B8F1000F34
:103AE00001D0404695E707FB06F100235A46581ED1
:103AF000FEF7DEFD0020E2490870E249086001207F
:103B0000E1490860E148C06B40F21A310843DF49DF
:103B1000C8630846C06A40F00800C86207FB06F1A7
:103B200001222046FEF741FDDFF864A301E0AAF17F
:103B3000010AD848006810F4005F02D1BAF1000F02
:103B4000F5D1BAF1000F03D1FFF742FB042060E783
:103B5000DFF83CA301E0AAF1010ACA48006828B9CD
:103B6000C748007810B9BAF1000FF4D1BAF1000FCC
:103B700001D104204DE7C248007810B1C048007858
:103B800047E740F2FF50C14988636846FFF7A2FD4E
:103B9000804603E06846FFF79DFD8046B8F1000FC0
:103BA00007D19DF800000728F4D09DF800000628F2
:103BB000F0D040462DE7B548406B10F4405F01D08F
:103BC000012070470020FCE710B5002401220021ED
:103BD0000C20FEF746FD0C20FEF7CEFD04462046E5
:103BE00010BD2DE9F84304460D4600260027B046D7
:103BF00000200090A8484068202111EA105F03D1FE
:103C000025263046BDE8F883A0484068C0B2801C35
:103C1000A249B1FBF0F89D48406910F0007F02D046
:103C20000E263046EEE79548001F0068022801D1B5
:103C3000640A6D0A9148001F006848B18F48001F50
:103C40000068012804D08D48001F0068022817D1A1
:103C5000012221462020FEF704FD2020FEF78CFDE6
:103C600006460EB13046CDE7012229462120FEF757
:103C7000F8FC2120FEF780FD06460EB13046C1E774
:103C8000012200212620FEF7ECFC2620FEF774FD21
:103C900006460EB13046B5E7002700E07F1C4745D9
:103CA000FCD36846FFF716FD064603E06846FFF7BB
:103CB00011FD06463EB99DF800000728F6D09DF894
:103CC00000000628F2D030469CE710B56F48406BE4
:103CD00010F4807F22D06C48006801280AD10122AC
:103CE00000210C20FEF7BDFC0C20FEF745FD6449C9
:103CF000087002E00020624908704FF48070634948
:103D000088630846C06B4CF23A3188435F49C86308
:103D100001205C4908605A48007810BD5B48406B40
:103D200010F0020F0DD00220584988630846C06B7E
:103D30004CF23A3188435549C86302205049087013
:103D4000EBE75248406B10F0080F0DD008204F49A8
:103D500088630846C06B4CF23A3188434B49C863CC
:103D6000042047490870D8E74848406B10F0200FFE
:103D70000DD02020454988630846C06B4CF23A318B
:103D800088434249C86306203D490870C5E73F485B
:103D9000406B10F0100F0DD010203C49886308468E
:103DA000C06B4CF23A3188433849C8630520344926
:103DB0000870B2E73548406B10F4007F0ED04FF426
:103DC0000070324988630846C06B4CF23A31884330
:103DD0002E49C86307202A4908709EE700209CE707
:103DE00010B5FFF772FF10BD2DE9F04104460D46F6
:103DF00016464FF000082148001F006800B16D0210
:103E000014F0030F15D0002710E04FF4007229467C
:103E10002348FFF74CFB80464FF4007220492046B0
:103E200004F02CFC04F50074781C87B2B742ECDB7C
:103E300010E0012E06D1720229462046FFF737FB1B
:103E4000804607E033464FF4007229462046FFF7CC
:103E500098FB80464046BDE8F0812DE9F0410446DC
:103E60000D4616464FF000080448001F006800B1D8
:103E70006D0214F0030F29D0002724E07400002005
:103E800078000020800000207C000020008001409D
:103E9000FFFF01000004024038030020C0D40100ED
:103EA000380100204FF400722146124804F0E6FB6E
:103EB0004FF4007229460F48FFF7C3FC804604F513
:103EC0000074781C87B2B742ECDB10E0012E06D1FB
:103ED000720229462046FFF7B4FC804607E03346CD
:103EE0004FF4007229462046FFF770FD8046404699
:103EF000BDE8F081380100202DE9F041ADF50C7DE1
:103F000004460D4690466078A1382178B039C1EB5F
:103F1000011202EB411100EB41004601012212485F
:103F2000016802A802F029FF074657B139460FA0E1
:103F300004F026FA02A803F045FA0DF50C7DBDE861
:103F4000F08106F5897102A803F04CFA074601AB2F
:103F50002022294602A802F0DDFF074602A803F04E
:103F600031FA0746E9E70000940000206F70656EA3
:103F700020534420464F4E207265733A25640D0A43
:103F80000000000000BF0100A0F10102D0B2FAD190
:103F9000704710B5FF488088A0F51341413903D11F
:103FA000292001F01BF804E040F27311072001F012
:103FB0001FF810BD10B5F7488088A0F513414139AE
:103FC00003D1282001F00AF803E00021072001F0C6
:103FD0000FF810BD10B5EF488088A0F513414139A6
:103FE00002D1102000F0FAFF10BD10B5E94880881A
:103FF000A0F51341413902D1112000F0EFFF10BDAF
:1040000010B5E449C87900F0E9FF10BD70B5044669
:104010000D46E0480088A04203DBDE484088A84205
:1040200000DA70BDDB488088A0F51341413914D116
:10403000D849087A00F0D2FF201200F0D3FFE0B296
:1040400000F0D0FFD349487A00F0C8FF281200F0F2
:10405000C9FFE8B200F0C6FF12E0CE48807901281F
:1040600004D1CC480088401E001B84B2C949087A9C
:10407000214600F0BDFFC749487A294600F0B8FF45
:10408000CFE72DE9F0410446002500260027C1486E
:104090008079012818D1082C15D2DFE804F0040635
:1040A000080A0C0E101206240DE007240BE004246D
:1040B00009E0052407E0012405E0002403E00324CF
:1040C00001E0022400BF00BFB2488088A0F5134180
:1040D000413974D1082C1CD2DFE804F00406090C25
:1040E0000F12151800BF14E046F0800611E046F0EC
:1040F00040060EE046F0C0060BE046F0200608E061
:1041000046F0600605E046F0A00602E046F0E00654
:1041100000BF00BF362546F008063146284600F0AD
:1041200067FF16F0200F0DD09A48008899494988FA
:10413000884214DA974807884088964908800846DC
:1041400047800CE09348008892494988884206DD00
:104150009048078840888F490880084647808D49E5
:10416000087A00F03BFF002000F03CFF002000F048
:1041700039FF88490988491EC1F30F2000F032FF3A
:1041800084490988491EC8B200F02CFF8149487A49
:1041900000F024FF002000F025FF002000F022FFA7
:1041A0007C494988491EC1F30F2000F01BFF794963
:1041B0004988491EC8B200F015FF20E0FFE7082C2F
:1041C00015D2DFE804F00406080A0C0E101230269F
:1041D0000DE010260BE0202609E0002607E0382637
:1041E00005E0282603E0182601E0082600BF00BFEE
:1041F000032546F480563146284600F0F9FEBDE816
:10420000F08110B50446ECB9002062498871F020B5
:1042100008804FF4A070488008468088A0F51341BC
:10422000413907D12C205B49C8712A2008722B2004
:10423000487224E022205749C871202008722120AA
:1042400048721CE00120534988714FF4A070088027
:10425000F020488008468088A0F51341413907D1F5
:104260002C204C49C8712A2008722B20487206E085
:1042700022204849C871202008722120487200205D
:10428000FFF7FFFE10BD70B5044642480088414963
:10429000498800FB01F600210846FFF7B7FEFFF74B
:1042A000AFFE002502E03C4804806D1CB542FAD305
:1042B00070BD10B500F01AFF00F0ABFE3220FDF724
:1042C00014FB0121002000F093FE3220FDF70DFBCE
:1042D000002000F093FE2F49888008468088FF2840
:1042E0000ADB08468088A0F57F41FF3904D02948C1
:1042F0008088B0F5134F16D1D32000F06FFE00F088
:1043000074FE00F072FE00F070FE224988800846BC
:1043100080880006000C888000F067FE1D498988AF
:1043200008431C4988801B4881881CA004F028F899
:1043300018488088A0F5134141397ED1CF2000F084
:104340004DFE002000F04EFEC12000F04BFE30205C
:1043500000F048FEED2000F041FE642000F042FE37
:10436000032000F03FFE122000F03CFE812000F010
:1043700039FEE82000F032FE852000F033FE1020E8
:1043800000F030FE7A2000F02DFECB2000F026FE5B
:1043900039200FE0240400200008006C0D0A4C4373
:1043A000442044726976652049442069733A202587
:1043B000780D0A0000F016FE2C2000F013FE0020FD
:1043C00000F010FE342000F00DFE022000F00AFE86
:1043D000F72000F003FE202000F004FEEA2000F0A9
:1043E000FDFD002000F0FEFD002000F0FBFDC020E0
:1043F00000F0F4FD1B2000F0F5FDC12000F0EEFD03
:10440000012000F0EFFDC52000F0E8FD302000F0B5
:10441000E9FD302000F0E6FDC72000F0DFFDB72009
:1044200000F0E0FD2A2000F0D9FD002000F0DAFDC8
:10443000002000F0D7FD002000E09FE000F0D2FD5A
:104440002B2000F0CBFD002000F0CCFD002000F080
:10445000C9FD012000F0C6FD362000F0BFFD482058
:1044600000F0C0FD3A2000F0B9FD552000F0BAFD83
:10447000B12000F0B3FD002000F0B4FD1A2000F0E0
:10448000B1FDB62000F0AAFD0A2000F0ABFDA2208D
:1044900000F0A8FDF22000F0A1FD002000F0A2FD38
:1044A000262000F09BFD012000F09CFDE02000F0A4
:1044B00095FD0F2000F096FD2A2000F093FD2820A6
:1044C00000F090FD082000F08DFD0E2000F08AFD28
:1044D000082000F087FD542000F084FDA92000F0A2
:1044E00081FD432000F07EFD0A2000F07BFD0F20BF
:1044F00000F078FD002000F075FD002000F072FD56
:10450000002000F06FFD002000F06CFDE12000F0C5
:1045100065FD002000F066FD152000F063FD17200A
:1045200000F060FD072000F05DFD112000F05AFD55
:10453000062000F057FD2B2000F054FD562000F01F
:1045400051FD3C2000F04EFD052000F04BFD1020F9
:1045500000F048FD0F2000F045FD3F2000F042FD37
:104560003F2000F03FFD0F2000F03CFDFFF73DFD38
:104570007820FDF7BAF9FFF70CFDE1E0FF488088ED
:10458000A0F513412539F8D14FF48071012000F0D6
:104590002FFD4FF4E061022000F02AFD41F23001CE
:1045A000032000F025FD0021042000F021FD40F251
:1045B0000721082000F01CFD0021092000F018FD53
:1045C00000210A2000F014FD00210C2000F010FD55
:1045D00000210D2000F00CFD00210F2000F008FD4F
:1045E0000021102000F004FD0721112000F000FD43
:1045F0000021122000F0FCFC0021132000F0F8FC48
:1046000041F29021102000F0F3FC40F2272111200C
:1046100000F0EEFC1D21122000F0EAFC4FF4A8513E
:10462000132000F0E5FC1821292000F0E1FC0D2109
:104630002B2000F0DDFC0421302000F0D9FC40F2FA
:104640000731312000F0D4FC0221322000F0D0FCF0
:1046500040F20621352000F0CBFC4FF4816136207A
:1046600000F0C6FC40F20751372000F0C1FC4FF4C7
:104670000171382000F0BCFC40F20771392000F0D5
:10468000B7FC40F205413C2000F0B2FC40F602715C
:104690003D2000F0ADFC0021502000F0A9FCEF21EE
:1046A000512000F0A5FC0021522000F0A1FC40F2B6
:1046B0003F11532000F09CFC4FF42741602000F094
:1046C00097FC0121612000F093FC00216A2000F09A
:1046D0008FFC0021802000F08BFC0021812000F065
:1046E00087FC0021822000F083FC0021832000F061
:1046F0007FFC0021842000F07BFC0021852000F05D
:1047000077FC1021902000F073FC4FF4C0619220E0
:1047100000F06EFC0321932000F06AFC4FF48871D6
:10472000952000F065FC0021972000F061FC00213D
:10473000982000F05DFC40F23311072000F058FC97
:104740000020FFF75EFD01208D4908608D4800883C
:10475000FFF799FD10BD70B504460D462946204669
:10476000FFF754FCFFF74CFC874800888749088016
:1047700070BD70B504460E46154631462046FFF71B
:1047800045FCFFF73DFC8148058070BD2DE9FF4FDA
:1047900085B004460D46A246AB460798A0EB040838
:1047A0000898A0EB0509B8F1000F02DD0120029086
:1047B0000AE0B8F1000F02D10020029004E04FF0AF
:1047C000FF300290C8F10008B9F1000F02DD0120AE
:1047D00001900AE0B9F1000F02D10020019004E03D
:1047E0004FF0FF300190C9F10009C84502DDCDF856
:1047F0000C8001E0CDF80C9000261CE01FFA8BF134
:104800001FFA8AF0FFF7A7FF0498404404904F4432
:10481000DDE90301814205DDDDE90301081A0490A9
:10482000029882440398874203DD03983F1A019857
:104830008344701C86B20398401C8642DEDB09B0BC
:10484000BDE8F08F2DE9F04104460D4616461F469F
:104850002B46324629462046FFF798FF3B46324614
:1048600029463046FFF792FF3B46224639463046FE
:10487000FFF78CFF2B46224639462046FFF786FF7E
:10488000BDE8F0812DE9F05F04460D4616461F464F
:10489000DDF82880301B401C1FFA80FBA94615E07C
:1048A00049462046FFF7B2FBFFF7AAFB4FF0000A8C
:1048B00006E0404600F096FB0AF101001FFA80FA7C
:1048C000DA45F6DB09F101001FFA80F9B945E7DBAB
:1048D000BDE8F09F2DE9F0438BB004460D46164627
:1048E000002706F0FF08304604F0F4F9CDE908018E
:1048F00027A00CC8089804F0D7FACDE9060104F007
:1049000071F8814695E005EB080291B2E21990B288
:10491000FFF721FFA5EB080291B2E21990B2FFF771
:104920001AFF05EB080291B2E21B90B2FFF713FFEA
:10493000A5EB080291B2E21B90B2FFF70CFFEA1957
:1049400091B204EB080290B2FFF705FFEA1B91B2A7
:1049500004EB080290B2FFF7FEFEEA1991B2A4EB55
:10496000080290B2FFF7F7FEEA1B91B2A4EB08022F
:1049700090B2FFF7F0FE002148460DE0240400202D
:10498000808121429A000020980000200008006CDD
:10499000000000000000F43F04F060FC21D2384623
:1049A00004F098F9CDE90801F9A00CC8089804F0C2
:1049B00097F9CDE90601F8A00CC8069804F05CF858
:1049C000CDE90401484604F015FCCDE90201DDE91A
:1049D000042304F051F8CDE9000104F003F8814606
:1049E00025E0A7EB080004F05FF9CDE90801E8A095
:1049F0000CC8089804F074F9CDE90601E8A00CC8C9
:104A0000069804F039F8CDE90401484604F0F2FBB9
:104A1000CDE90201DDE9042304F02EF8CDE900011F
:104A200003F0E0FF8146A8F1010000F0FF08781CC8
:104A3000C7B247457FF767AF0BB0BDE8F0832DE9FC
:104A4000FF4F81B004460D461646A246D648B0F840
:104A500000B0A6F1200000010090D4480088A042D8
:104A600003DBD2484088A84202DA05B0BDE8F08FE7
:104A7000202E02DA802E00DDF7E7049800283DD1D1
:104A8000804637E000984044C9490F5C4FF0000968
:104A900028E0C9F1070047FA00F010F0010F03D039
:104AA000C148A0F800B003E0C2480088BE490880B1
:104AB00005EB080291B204EB090290B2FFF74BFE3E
:104AC00004EB0900B9490988884200DBCDE705EB12
:104AD0000800B6494988884200DBC6E709F10100B1
:104AE00000F0FF09B9F1080FD3DB544608F10100CB
:104AF00000F0FF08B8F1100FC4DB34E04FF00008FD
:104B00002EE000984044AA490F5C4FF0000920E0D5
:104B1000C9F1070047FA00F010F0010F07D005EBCC
:104B2000080291B204EB090290B2FFF714FE04EB05
:104B300009009E490988884200DB96E705EB0800DA
:104B40009A494988884200DB8FE709F1010000F0AB
:104B5000FF09B9F1080FDBDB08F1010000F0FF08E5
:104B6000B8F1100FCDDB9048A0F800B07DE72DE93B
:104B7000F84F04460D4616461F46DDF828804FF0D4
:104B8000000BA6F120007843009088480088A042DE
:104B900003DB86484088A84201DABDE8F88F202E62
:104BA00002DA802E00DDF8E74FF000092CE00098D3
:104BB00048447F4911F800B04FF0000A1DE0CAF1E7
:104BC00007004BFA00F010F0010F09D005EB0902C5
:104BD00091B204EB0A0290B24246FFF7CAFD08E028
:104BE00005EB090291B204EB0A0290B20B9AFFF7AF
:104BF000C0FD0AF1010000F0FF0ABAF1080FDEDB88
:104C000009F1010000F0FF09B9F1100FCFDBC4E793
:104C10002DE9F84F04460D4616461F46DDF828805C
:104C20004FF0000B0020009060480088A04203DB9A
:104C30005E484088A84201DABDE8F88F3A465E49EE
:104C40003046FFF759F94FF000095BE05A490098E8
:104C500011F800B04FF0000A1DE0CAF107004BFA4E
:104C600000F010F0010F09D005EB090291B204EB3E
:104C70000A0290B24246FFF77CFD08E005EB09020C
:104C800091B204EB0A0290B20B9AFFF772FD0AF19F
:104C9000010000F0FF0ABAF1080FDEDB0098401CAB
:104CA00000904549009811F800B04FF0000A1FE04D
:104CB000CAF107004BFA00F010F0010F0AD005EB23
:104CC000090291B204EB0A02083290B24246FFF7A1
:104CD00050FD09E005EB090291B204EB0A0208322B
:104CE00090B20B9AFFF745FD0AF1010000F0FF0AB0
:104CF000BAF1080FDCDB0098401C009009F10100BC
:104D000000F0FF09B9F1100FA0DB95E72DE9FC4792
:104D100004460D4616461F46DDE90A891CE0307838
:104D200010F0800F0BD1CDE9008932783B4629463F
:104D30002046FFF71CFF04F1080084B20BE03B465D
:104D4000324629462046CDE90089FFF761FF04F18C
:104D5000100084B2761C761C30780028DFD1BDE8C4
:104D6000FC8710B50246012000E050430B00A1F182
:104D70000104E1B2F9D110BD2DE9F05F04460D4602
:104D800016461F46DDF828804FF0000AD14666E03F
:104D9000000000000000004000000000000008408B
:104DA00000000000000014409800002024040020AF
:104DB000D69300089A00002004040020A7EB090005
:104DC000401EC1B20A20FFF7CCFFB6FBF0F00A216B
:104DD000B0FBF1F201FB12001FFA80FBBAF1000FE9
:104DE00011D1781E48450EDDBBF1000F09D1082115
:104DF00001FB094188B2434620222946FFF71FFEE6
:104E000029E04FF0010A082000FB09407249098897
:104E1000884214DD7048418805F11000814200DAB3
:104E20001FE0082101FB094188B243460BF1300124
:104E3000CAB205F1100189B2FFF701FE0AE00821AC
:104E400001FB094188B243460BF13001CAB2294641
:104E5000FFF7F5FD00BF09F1010000F0FF09B945BA
:104E6000ACDB00BFBDE8F09F2DE9F05F04460D46C6
:104E700016461F46DDF828804FF0000AD14652E062
:104E8000A7EB0900401EC1B20A20FFF76AFFB6FB7C
:104E9000F0F00A21B0FBF1F201FB12001FFA80FBD7
:104EA000BAF1000F13D1781E484510DDBBF1000F99
:104EB0000BD1082101FB094188B243460BF13001B7
:104EC000CAB22946FFF7BBFD29E04FF0010A0820CE
:104ED00000FB094040490988884214DD3E4841886A
:104EE00005F11000814200DA1FE0082101FB0941B1
:104EF00088B243460BF13001CAB205F1100189B204
:104F0000FFF79DFD0AE0082101FB094188B24346F5
:104F10000BF13001CAB22946FFF791FD00BF09F13C
:104F2000010000F0FF09B945AADB00BFBDE8F09F12
:104F30002DE9F04104460D4616461F460BE0327837
:104F4000002329462046FFF77AFD04F1080084B2C9
:104F5000761C781EC7B2002FF1DCBDE8F0812DE988
:104F6000FC5F04460D4616461F46DDE90D9ADDF846
:104F70003080C84515D110E00F9BCDE900A33278F1
:104F80003B4629462046FFF7F2FD04F1080084B2B3
:104F9000761CA9F101001FFA80F9B9F1000FEBDCD2
:104FA00017E0A8EB09001FFA80FB10E00F9BCDE98A
:104FB00000A316F80B203B4629462046FFF7D7FDF5
:104FC00004F1080084B20BF101001FFA80FBC34515
:104FD000ECDBBDE8FC9F0000240400204FF0D8412A
:104FE000088070474D49088070474C4800887047DA
:104FF0004FF0D8421080494A1180704710B50446DE
:105000002046FFF7EBFF0520FCF74DFCFFF7EDFF17
:1050100010BD00B59FB001210802FCF7BAF90121CB
:1050200040F26110FCF7C2F94CF23370ADF8780031
:1050300003208DF87A0018208DF87B001EA93848CF
:10504000FBF70AFF4FF68070ADF8780003208DF86B
:105050007A0018208DF87B001EA93248FBF7FCFE71
:1050600041F20100ADF8780003208DF87A00182095
:105070008DF87B001EA92C48FBF7EEFE012008905E
:1050800000200990FF200A9000200B900C900D90BA
:105090000E90019002900320039000200490059050
:1050A0000690079006200F9000201090119010207D
:1050B00012900020139014901590169017904FF4B2
:1050C00080501890002019904FF480401A900020D2
:1050D0001B9008A81C9001A81D900FA8FBF7A5FB2A
:1050E00001210620FBF706FD1FB000BD08B5012118
:1050F0000820FCF75BF90120ADF8000002208DF8D4
:10510000020010208DF8030069460848FBF7A4FE52
:1051100001210648FBF74AFF08BD00000008006CAB
:10512000001401400018014000200140000C014023
:1051300070B504460B4603E013F8015B04F8015B0D
:105140001500A2F10102F7D170BD30B5034601E0B0
:1051500003F8011B1400A2F10102F9D130BD10B512
:1051600004467A4951F824104A00794951F824003C
:105170000021FFF7EAFF774951F8242074490839E4
:1051800051F824000021FFF7E0FF012170480830AA
:10519000015510BD10B501460022002307E06C4800
:1051A00050F8210030F8130000B1521C5B1C674816
:1051B00050F821009842F2D864205043634C54F8D0
:1051C0002140B0FBF4F0C0B210BD2DE9F047044619
:1051D0000D460026B0465E480830005D20B95C48A8
:1051E00010380168204688471DB94FF0FF30BDE8F0
:1051F000F087594850F82400B5FBF0F087B25648C4
:1052000050F82400B5FBF0F100FB115008B1781CF8
:1052100087B24E4850F82400461E22E04C4850F811
:10522000240030F8160020B908F101001FFA80F8B8
:1052300001E04FF00008B84512D14FF0000908E036
:10524000434850F8240006EB090120F8117009F1D9
:105250000109B945F4D3404850F824007043C6E72B
:10526000761E002EDADA4FF0FF30C0E72DE9F0416C
:1052700004460D4636480830005D38B934481038C9
:105280000168204688470120BDE8F081314850F888
:105290002400A84217D9304850F82400B5FBF0F19B
:1052A0002B4850F8240030F81120002607E0002396
:1052B000274850F824008F1920F81730761C9642A2
:1052C000F5DB0020E0E70220DEE770B504460D467E
:1052D00005B970BD1E48083850F824002E1A314612
:1052E0002046FFF7C3FFF4E770B504460D46294694
:1052F0002046FFF76AFF0646701C00D170BD1448B7
:10530000083850F824003044F8E72DE9F04104460D
:105310000D46164631462046FFF757FF0746781CD4
:1053200001D1BDE8F0810A49083951F82410C819A3
:1053300032462946FFF7FCFE29462046FFF7C5FF07
:105340000348083850F824003844EAE7D8990008A0
:10535000AC000020E8990008E099000870B5044608
:10536000002614B1012C0AD107E0FDF731FF0546F4
:105370000DB9002600E0032603E0002601E0012627
:1053800000BF00BF304670BD0146002070472DE9C8
:10539000F04704460D46164698464FF00009B8F10E
:1053A000000F02D10420BDE8F08714B1012C10D108
:1053B0000CE0424631462846FEF716FD074617B96F
:1053C0004FF0000901E04FF0010905E04FF000093E
:1053D00002E04FF0010900BF00BF4846E3E72DE9B6
:1053E000F04704460D4616461F464FF000094FF0A1
:1053F0001F0A17B90420BDE8F08714B1012C1ED193
:105400001AE00FE03A4631462846FEF726FD804670
:10541000B8F1000F02D14FF0000906E0AAF1010037
:1054200000F0FF0ABAF1000FECD100BFBAF1000F93
:1054300001D14FF0010905E04FF0000902E04FF003
:10544000010900BF00BF4846D5E7002070472DE99D
:10545000FF4104460D46164600270CBB25B1012D21
:1054600009D0032D19D101E0002718E02448006D70
:105470003080002713E02248D0F8508000200346F7
:105480004246CDE902801E48C16C806C02F053FF99
:10549000CDE900013080002701E0042700BF1DE0B6
:1054A000012C1AD135B1012D0FD0022D04D0032DBE
:1054B00010D106E000270FE04FF400703080002785
:1054C0000AE008203080002706E00E48008830807F
:1054D000002701E0042700BF00E00127384604B0A0
:1054E000BDE8F08110B5044621460020FFF7FCFE20
:1054F00010BD10B5044621460020FFF7E6FE10BDA2
:1055000068030020B800002070B504460B4603E095
:1055100013F8015B04F8015B1500A2F10102F7D159
:1055200070BD30B5034601E003F8011B1400A2F181
:105530000102F9D130BDF0B5044625460B460020E6
:1055400000BF1600A2F1010207D015F8017B13F885
:1055500001CBA7EB0C063000F3D0F0BD024600E013
:10556000521C107810B110788842F9D11078704729
:1055700030B5044600200346024621E002EB42001B
:10558000FA4D55F82000C8B102EB420055F8200052
:105590002568A84213D102EB4200F44D05EB8000D0
:1055A0004068A568A8420AD102EB4200EF4D05EB26
:1055B00080000089E588A84201D103E05B1C521CF1
:1055C000022ADBD300BF022A07D10BB9022901D17D
:1055D000002000E01220C0B230BD41B902EB420011
:1055E000E24D05EB80004089B0F5807F01D11020AD
:1055F00000E00020C0B2EFE7002100E0491C0229D2
:1056000006D201EB4100D94A52F820000028F5D11A
:10561000022901D0012070470020FCE730B5034685
:1056200000221BE002EB4200D04C54F820001C6822
:10563000A04212D102EB4200CC4C04EB8000406847
:105640009C68A04209D102EB4200C84C04EB8000E8
:105650000089DC88A04200D102E0521C022AE1D37A
:1056600000BF022A27D1002200E0521C022A06D2E3
:1056700002EB4200BD4C54F820000028F5D1022A6C
:1056800001D1002030BD02EB4204B84D186845F846
:10569000240002EB420405EB840498686060D8881B
:1056A00002EB420405EB84042081002002EB42045B
:1056B00005EB8404608141B102EB4200AB4C04EB8A
:1056C0008000408908B10020DCE711B14FF4807000
:1056D00006E002EB4200A54C04EB80004089401C30
:1056E00002EB4204A14D05EB84046081501CC9E724
:1056F00030B50246531E1A46022B1BD202EB420360
:105700009A4C04EB83035989B1F5807F00D10021C5
:1057100009B14B1E99B202EB4203944C04EB830394
:10572000598129B9002302EB4204904D45F82430F9
:10573000002000E0022030BD10B500210DE001EB9B
:1057400041028A4B53F82220824205D1002201EB0C
:105750004103864C44F82320491C0229EFD310BD95
:1057600070B50446207910B3256B607801232A4672
:1057700004F13401FFF733FE08B1012070BD0020B1
:105780002071606AA84212D8E169606A0844A842A0
:105790000DD9E67809E0E0690544607801232A46DE
:1057A00004F13401FFF71BFE761E022EF3D2002017
:1057B000E4E770B504460D46206BA84210D02046A1
:1057C000FFF7CEFF08B1012070BD607801232A46A3
:1057D00004F13401FFF7DBFD08B10120F4E7256394
:1057E0000020F1E770B504462046FFF7B9FF0546F3
:1057F000002D58D1207803284ED1607900284BD055
:10580000002020634FF40072002104F13400FFF700
:1058100088FE552184F83212AA2184F833125221CD
:105820003420015535200155612136200155412193
:1058300037200155722184F8181284F81912412179
:1058400084F81A12612184F81B12206984F81C0262
:105850002069010A84F81D122069010C84F81E12C7
:105860002069010E84F81F12E06884F82002E068C5
:10587000010A84F82112E068010C84F82212E06821
:10588000010E84F823126078012304F13401626967
:10589000FFF7A5FD00206071607800221146FFF738
:1058A000D6FD00B10125284670BD0246891E9069CB
:1058B000801E884201D8002070479378D06A01FB8F
:1058C0000300F9E72DE9F04104460D46022D02D30D
:1058D000A069A84202D80120BDE8F0812078012803
:1058E00004D002282BD0032863D141E02F463D4647
:1058F00007EB5707606A00EB57212046FFF759FF77
:1059000000B156E0C7F3080104F13400465C7F1C87
:10591000606A00EB57212046FFF74BFF00B148E0DB
:10592000C7F3080104F13400405C46EA002615F094
:10593000010F01D03009CFE7C6F30B00CCE7606A56
:1059400000EB15212046FFF734FF00B131E040F2B3
:10595000FF1101EA450104F1340001EB000898F859
:10596000000098F8011040EA0120B5E730AE0020B1
:10597000606A00EBD5112046FFF71BFF00B118E06D
:1059800040F2FF1101EA850104F1340001EB000847
:1059900098F80300000698F8021040EA014098F8D1
:1059A000011040EA012098F80010084320F07040F0
:1059B00092E700BF4FF0FF308EE72DE9F047044635
:1059C0000D461646022D02D3A069A84202D84FF018
:1059D00002099DE02078012804D0022847D003283E
:1059E0007DD15DE02F463D4607EB5707606A00EB2F
:1059F00057212046FFF7DDFE8146B9F1000F00D0A8
:105A000083E0C7F3080104F1340001EB000815F04E
:105A1000010F05D0F1B298F8000061F31F1000E00B
:105A2000F0B288F800007F1C01202071606A00EB52
:105A300057212046FFF7BDFE8146B9F1000F00D087
:105A400063E0C7F3080104F1340001EB000815F02E
:105A5000010F02D0C6F3071006E098F8000000F02E
:105A6000F000C6F30321084388F800004DE0606AA7
:105A700000EB15212046FFF79CFE8146B9F1000F8F
:105A800000D042E040F2FF1101EA450104F1340088
:105A900001EB000888F80060300A88F8010034E063
:105AA000606A00EBD5112046FFF783FE8146B9F10D
:105AB000000F00D029E040F2FF1101EA850104F156
:105AC000340001EB000898F80300000698F8021073
:105AD00040EA014098F8011040EA012000E011E09E
